:1000000000800060C1002000E3022000E502200023
:1000100000000000000000000000000000000000E0
:10002000000000000000000000000000E7022000C7
:100030000000000000000000E9022000EB022000A8
:10004000130A2000ED022000090B2000090B2000FC
:100050008D022000A302200091052000F904200059
:10006000090B2000090B2000090B2000090B2000C0
:10007000090B2000D90A20000B032000090B2000E7
:10008000090B2000090B2000090B2000090B2000A0
:10009000090B2000670A2000090B2000090B200033
:1000A000090B2000B10A2000890A2000090B20005A
:1000B000090B2000C9032000090B2000090B2000B8
:1000C00000F002F800F078F80CA030C808382418C6
:1000D0002D18A246671EAB4654465D46AC4201D180
:1000E00000F06AF87E460F3E0FCCB646012633423A
:1000F00000D0FB1AA246AB4633431847C0050100A7
:10010000E0050100103A02D378C878C1FAD8520746
:1001100001D330C830C101D504680C6070470000BD
:100120000023002400250026103A01D378C1FBD813
:10013000520700D330C100D50B60704710B5692954
:1001400002D10BF0F9FF10BD642902D10BF0F4FFCE
:1001500010BD752902D10BF0EFFF10BD6F2902D140
:100160000CF07EF810BD782902D10CF0A1F810BD7A
:100170000368DB0901D380231943632902D10CF002
:1001800031FB10BDE32902D10CF043FB10BD002070
:1001900010BD1FB5C046C0460CF091F90CF084FBB1
:1001A0000400002000210CF0EDFB401C60600CF00E
:1001B00065FA1FBD10B510BD03488546FFF7E9FF7E
:1001C00002F0A9FE0CF074FB0080006003B4FFF79E
:1001D000F1FF03BC0CF0B6FBEFF30980704780F32E
:1001E00009887047EFF30880704780F308887047EC
:1001F00040BA7047C0BA704700BF00BF00BF00BF21
:1002000000BF00BF00BF00BF05460E46024F0FCD26
:100210000FC6BD42FBD1F7461000036030B40C4955
:100220000C684A6823681068C0181060241D121DED
:100230008C4207D28A4208D20C604A6030BC40002F
:10024000400870470C00DC3CF6E70A00DC3AF3E7B4
:100250004403006070B505460C46164602E00FCC1C
:100260000FC5103E102EFAD2082E02D303CC03C5C0
:10027000083E042E07D301CC01C5361F03E02178C8
:100280002970641C6D1C761EF9D270BD10B572B653
:10029000E9A1F1480BF0DAFEEF480AF0EEFF62B692
:1002A00010BD10B572B6EDA1EB480BF0CFFEEA48D9
:1002B0000AF0E3FF62B610BD10B572B6EFA1E648D2
:1002C0000BF0C4FEE4480AF0D8FFF549C02088636B
:1002D00010BD016070470068704710B5FFF7F0FE71
:1002E00010BD7047704770477047704710B572B6C1
:1002F000EC480168491C0160EBA1D7480BF0A6FE51
:10030000D5480AF0BAFF62B610BD70B572B60120CA
:10031000E34C4003A063EF4EED4D3560E121002238
:100320004902ED480AF07BFFECA1CB480BF08EFEB2
:10033000C9480AF0A2FFF1A00AF09FFF0120E06285
:100340000020FF21F531401C8842FCD3FB48784453
:100350000AF093FFDF48803801684906FCD5002089
:10036000E062F74CA06A8028FCD1F44878442E3033
:100370000AF083FFA26AF3A1FE480BF067FEFD4876
:100380000AF07BFFED48784470300AF076FF256272
:10039000402030604004A060E8487844B8300AF05B
:1003A0006CFF62B670BD10B50520F34900070BF075
:1003B00006FD401C04D0F14878440AF05EFF10BDF1
:1003C000EE4878445238F8E7F8B572B60022E121D9
:1003D0004902C1480AF023FFB2484168491C416004
:1003E000E7A19D480BF032FE9B480AF046FFAC4C5B
:1003F0003020A063B74DE0022860ED4E3068EE4932
:100400008207EC4812D4F26882420FD072689206DA
:100410000CD47268520509D4F368E84A934205D0B7
:100420008A69002A02D17268520463D5F268824256
:1004300005D07068800602D4886901283BD9AFA036
:100440000AF01BFF0120E0620020FF21F531401C73
:100450008842FCD3DA4878440AF00FFF9D48803880
:1004600001684906FCD50020E062B54FB86A8028D3
:10047000FCD1D34878442E300AF0FFFEBA6AB1A10D
:10048000BC480BF0E3FDBB480AF0F7FECC487844CB
:1004900070300AF0F2FE8E48386240202860400436
:1004A000B860A648784452380AF0E7FEC5A00AF0C2
:1004B000E4FEFFF778FFF168C04881421AD120209E
:1004C000E0624820E062CCA00AF0D7FE00200121C3
:1004D0000903401C8842FCD34020E06297487844DE
:1004E0004C300AF0CAFE28684001FCD58020A06389
:1004F000C004286062B6F8BD70B572B60022E12172
:10050000490275480AF08BFEC8A153480BF09EFDC6
:1005100051480AF0B2FE07242407A269CDA19548EC
:100520000BF094FD93480AF0A8FE6269D5A19148AA
:100530000BF08CFD8F480AF0A0FE0020C043206223
:10054000644E802535609A48C0689C49544C884266
:1005500011D12020E062D7A00AF08FFEE5A00AF0BA
:100560008CFE4820E062A4A00AF087FE0020E10C87
:10057000401C8842FCD34020E062704878445238E6
:100580000AF07BFEA56301208006306062B670BD74
:10059000F8B572B60022E12149024F480AF03FFE49
:1005A000E4A12D480BF052FD2B480AF066FE3C4DAD
:1005B000474EAE634748EF170760614CE26AE7A118
:1005C0006C480BF043FD6B480AF057FEA26AEFA19E
:1005D00068480BF03BFD67480AF04FFE2762A26AAD
:1005E00056497944703963480BF030FD61480AF090
:1005F00044FE6F480168890710D4C1686D4A914272
:100600000CD04168890609D44168490506D4C168FF
:100610006A4A914202D0406840040BD537A00AF0E4
:100620002CFE0120E862E54878440AF026FE2948BD
:100630008038C5E1EBE10000200A20496E205458C3
:100640005F49525148616E646C65722E2E2E2E2EBB
:100650002E2E2E2E2E000000A2010060200A20491E
:100660006E2052585F49525148616E646C65722E1B
:100670002E2E2E2E2E2E2E2E2E000000200A204949
:100680006E204F4E5F4F46465F49525148616E643F
:100690006C65722E2E2E2E2E2E2E2E2E2E0000004B
:1006A0000000048000000060200A20496E202047DE
:1006B0004E53532054696D65722049525120486150
:1006C0006E646C65722E2E2E2E2E2E2E2E2E2E0049
:1006D000FFFF000080E200E080BA8C01200A204980
:1006E0006E20454954204952512048616E646C6522
:1006F000722E2E2E2E2E2E2E2E2E2E00200A20432F
:100700004D302B20726571756573742041502077D0
:10071000616B6575702076696120444255535F5363
:10072000575F57414B455F494E545F524551206ECC
:100730006F772E2E2E2E2E2E2E200000BEC60000ED
:1007400000005740200A204150206D61696C626FA3
:10075000782072656720494E5453523128307834DE
:100760003035375F3030323829203D203078253021
:10077000387800000C010060FF0F0050E8C700004F
:10078000200A202E2E2E2E2E2E2E2E496E20525432
:100790004320616C61726D31204952512048616E75
:1007A000646C65722E2E2E2E2E2E2E2E2E2E0000D6
:1007B00000300480CDAB0000000104803412000042
:1007C000B6C50000200A20434D302B2063686563C6
:1007D0006B204150204452414D2D344B2066726FA6
:1007E0006D2062617365203078353030305F303095
:1007F0003030202000000000200A20434D302B2004
:1008000077616B65207570204350205062757320AE
:100810006E6F772E2E2E2E2E2E2E2E2E2E2E2E2E2E
:100820002E2E2E2E2E2E2E2E2E200000200A204977
:100830006E204350206D61696C626F78204952517F
:100840002048616E646C65722E2E2E2E2E2E2E2E5A
:100850002E2E0000200A2043502F474E5353206D68
:1008600061696C626F7820494E544D535230283084
:1008700078373030303030313829203D20307825FD
:1008800030387800200A2043502F474E5353206DB4
:1008900061696C626F7820494E5453523028307829
:1008A000373030303030313429203D203078253019
:1008B00038780000200A20434D302B2067656E6594
:1008C0007261746520474E53533243505F53575FF4
:1008D000524553455420746F20435020636F6D6D13
:1008E0006F6E20626C6F636B2E2E2E2E2E2E2E2E90
:1008F00020000000200A20434D302B2061776169E1
:10090000742030786162636420736574206279209A
:10091000415020696E204953535228307834303585
:10092000375F30313763292E2E2E2E2E2E2E2E207D
:1009300000000000200A20496E204150206D6169AE
:100940006C626F78204952512048616E646C657208
:100950002E2E2E2E2E2E2E2E2E2E0000200A204140
:10096000502F474E5353206D61696C626F78204958
:100970004E544D5352312830783430353730303280
:100980006329203D2030782530387800200A204126
:10099000502F474E5353206D61696C626F78204928
:1009A0004E54535231283078343035373030323865
:1009B00029203D203078253038780000E4C300003D
:1009C0000168490600D434E60027EF62A06A802857
:1009D000FCD1F34878440AF050FCA26AF1A1FD482A
:1009E0000BF034FBFB480AF048FCED4878444430F7
:1009F0000AF043FC2662EF620120C005A060F648C1
:100A000040210160E648784486300AF036FC62B640
:100A1000F8BD10B572B6F14CF1A12068401C206001
:100A2000F8480BF013FBF7480AF027FCF6A1F5484D
:100A300022680BF00BFBF3480AF01FFCF848F7495B
:100A4000C1602268142A0CD3F64A42600022026078
:100A5000C1600268F4A1EB480BF0F8FAE9480AF02B
:100A60000CFC62B610BD10B572B60022E12149023D
:100A7000F4480AF0D4FBF4A1E2480BF0E7FAE148AD
:100A80000AF0FBFB62B610BD10B572B60022E12180
:100A90004902EC480AF0C3FBF3A1DA480BF0D6FA9E
:100AA000D8480AF0EAFBF8498020886362B610BD96
:100AB00010B5E12100224902E2480AF0B0FB72B60B
:100AC000F2A1D0480BF0C2FACE480AF0D6FBEE49AC
:100AD0004020886362B610BD10B5E12100224902B2
:100AE000D8480AF09CFB72B6BC480168491C0160FA
:100AF000EEA1C4480BF0AAFAC2480AF0BEFBF349C3
:100B00000120086062B610BD10B5E1210022490243
:100B1000CC480AF084FB72B6EDA1BA480BF096FA05
:100B2000B8480AF0AAFB62B610BDD74988682130E0
:100B30008A688242FCD37047D348EE498163A64A53
:100B4000C1171160092189028161816803221204A1
:100B500089180160C1684160816805221204891802
:100B60000161C1684161E44941631B21C90281619E
:100B7000704770B505460E4600242A46DFA1954809
:100B80000BF064FA93480AF078FBB608A00040190D
:100B900003684268E0A18F480BF058FA8D480AF0CC
:100BA0006CFBA41CA642F1D270BD7D4810B5784400
:100BB0008A300AF062FB7A48784438300AF05DFBEC
:100BC000D9A00AF05AFB10BD10B5D7A00AF055FB0A
:100BD000734878441E300AF050FB71487844A430C2
:100BE0000AF04BFB6E487844E2300AF046FB6C4852
:100BF00078440AF042FB10BD10B5FFF7E5FFCBA02B
:100C00000AF03BFB6648784416380AF036FBD148B8
:100C100078440AF032FBCF48784440300AF02DFB8C
:100C2000CC4878447E300AF028FBCA487844BC306F
:100C30000AF023FBC7487844FA300AF01EFBC64886
:100C400078440AF01AFBC448784440300AF015FB97
:100C5000C14878447E300AF010FBBF487844BC306D
:100C60000AF00BFBBDA00AF008FBBB487844F43047
:100C70000AF003FBC84878440AF0FFFAFFF795FF33
:100C800010BD10B580489B498163534AC11711605C
:100C90000921890281618168032292028918016019
:100CA000C168416081680522920289180161C168AA
:100CB000416191494163B949816172B646498039C0
:100CC0000A689200FCD503221202826301204007C9
:100CD00008600A68B04979440C393E480BF0B6F90F
:100CE0003C480AF0CAFA62B6ADA00AF0C6FA10BDD6
:100CF00010B5B4A00AF0C1FAC0A00AF0BEFACD49FE
:100D0000CD480BF05CF8401C02D1CCA00AF0B5FA3B
:100D1000D1A00AF0B2FAD84988070BF050F8401C6D
:100D200002D1D6A00AF0A9FAA6A00AF0A6FADAA083
:100D30000AF0A3FA09F004FDA2A00AF09EFAE2A0CC
:100D40000AF09BFA09F0A8FF9EA00AF096FAEAA022
:100D50000AF093FA0AF068F89AA00AF08EFA8E4820
:100D600078444E380AF089FAFFF78BFF10BD10B5B2
:100D7000FFF72AFF8848784414380AF07EFA86483C
:100D800078442A300AF079FA8348784464300AF0CB
:100D900074FA814878449E300AF06FFAC4E100008A
:100DA00084C00000200A204150206D61696C626F90
:100DB000782072656720494E545352312830783478
:100DC0003035375F3030323829203D2030782530BB
:100DD000387800000C01006080E200E00000006054
:100DE000200A20496E2050545F54494D45525F49B6
:100DF000525148616E646C65722E2E2E2E2E2E2E50
:100E00002E2E2E00A2010060200A2070745F636EF7
:100E100074203D202530386420000000FF020000CF
:100E200000000680FF030000200A2050544D4F446C
:100E30005F43544C5F52455120307825303878203C
:100E400020200A0080BA8C01200A20496E205752C7
:100E500054545F49525148616E646C65722E2E2E57
:100E60002E2E2E2E2E2E2E00200A20496E2050428D
:100E700055535F49525148616E646C65722E2E2E37
:100E80002E2E2E2E2E2E2E0000000480200A204909
:100E90006E20444255535F49525148616E646C65FF
:100EA000722E2E2E2E2E2E2E2E2E2E00200A204971
:100EB0006E20444D415F49525148616E646C6572C9
:100EC0002E2E2E2E2E2E2E2E2E2E000000020080D4
:100ED000200A20496E2044656661756C745F495232
:100EE0005148616E646C65722E2E2E2E2E2E2E2E83
:100EF0002E2E0000FFFF0000FC070000200A204DFE
:100F0000656D656F72792062617365203D20307870
:100F100025303878202000000A202530387820201D
:100F20002530387820200A000A0000000A2A2020F4
:100F3000204A6F736875612F4B65706C657220472E
:100F40004E5353207368656C6C2074657374202055
:100F500020202A0084C10000BCC200000A2A2061AF
:100F6000292052756E205339323520524620616E49
:100F700064204242205343472074657374732020D9
:100F80002020202020202020202020202020202061
:100F90002020202020202A00EEC30000031800009B
:100FA000200A202052544320616C61726D312074FC
:100FB0006573742E2E2E2E2E70617373656420203F
:100FC000200A00000A202D2D2D2D2D2D2D2D2D2D0B
:100FD0002D2D2D2D2D2D2D2D2D2D2D2D2D2D2D2D41
:100FE0002D2D2D2D2D2D2D2D2D2D2D2D2D2D2D2D31
:100FF0002D2D2D2D2D2D2D0A000000000A206368B7
:1010000065636B696E6720696E7465726E616C20D2
:10101000636F646552414D2E2E203078323032316C
:10102000383030302D307832303233316666660AEF
:1010300000000000FF1F2320008021200A202063E1
:101040006F646552414D20746573742070617373D1
:1010500065642E2E200A0000200A20636865636BF9
:10106000696E6720616C6C204453502052414D2EB4
:101070002E2E3434384B2000FFFF06C0200A2044B7
:1010800053502052414D2074657374207061737306
:101090006564200A000000000A2052756E20444D4D
:1010A0004120646174612072616D20746F206461FD
:1010B00074612072616D2074657374202E2E2E2E43
:1010C0002E2E2E20200000000A2052756E20505433
:1010D0002074696D657220696D6D65646961746500
:1010E0002073796E63302074657374202E2E2E2E3B
:1010F0002E2E2E20200000000A2052756E20505403
:101100002074696D657220696D6D656469617465CF
:101110002073796E63312074657374202E2E2E2E09
:101120002E2E2E2020000000C1A00AF0A6F8CC48E8
:1011300078440AF0A2F8CA48784440300AF09DF892
:10114000FFF733FD10BD704710B5C6A00AF095F843
:101150000520CF4900070AF032FE401C03D0CDA085
:101160000AF08BF810BDD8A0FAE7BD4810B5784456
:1011700052300AF082F80320E04940070AF01FFECF
:1011800010BD10B50120DE4940050AF048FEDD49DA
:10119000DD480AF044FEDDA00AF06FF810BD10B57E
:1011A000E4A00AF06AF8EB4988070AF008FEEAA012
:1011B0000AF063F810BD10B5FFF7D9FD0AF03EF84C
:1011C0000028FBD00AF03FF83628F5D005DC31388E
:1011D0000028F1D8FFF7E3FFEEE739280FD006DC4F
:1011E000372809D03828E7D1FFF7BFFFE4E76128A7
:1011F000E2D07828E0D110BDFFF7C3FFDCE7FFF7AE
:10120000A3FFD9E710B5DBA00AF037F8E24CA268DB
:10121000E2A1EB480AF01AFFE9480AF02EF8E2686A
:10122000E8A1E7480AF012FFE5480AF026F8EEA028
:101230000AF023F8A268D9A1E1480AF007FFE048C4
:101240000AF01BF8E268DFA1DD480AF0FFFEDC4887
:101250000AF013F8824878444E380AF00EF8EBA0F2
:101260000AF00BF8F84801214161006910BD10B582
:10127000FFF7AAFC7A487844223809F0FEFFF348C9
:10128000784409F0FAFF76487844143009F0F5FF05
:1012900073487844523009F0F0FF714878448C303C
:1012A00009F0EBFF6E487844D63009F0E6FFE848D5
:1012B000784409F0E2FFE6487844443009F0DDFF65
:1012C000E3487844863009F0D8FFE1487844C830D4
:1012D00009F0D3FFDF48784409F0CFFFDD487844B8
:1012E000483009F0CAFFDB487844923009F0C5FF66
:1012F000D8487844E03009F0C0FFD748784409F076
:10130000BCFFD5487844443009F0B7FFD248784450
:10131000863009F0B2FFD0487844C83009F0ADFFFC
:10132000CE48784409F0A9FFCC487844443009F00D
:10133000A4FFCA487844863009F09FFFC748784424
:10134000C83009F09AFFC648784409F096FFC448AF
:101350007844443009F091FFC1487844863009F060
:101360008CFFFFF722FC10BD70B5FFF780FF032450
:101370002404A50309F062FF0028FBD009F063FFF5
:1013800062283BD01ADC382840D008DC3138030012
:101390000BF0E4FA07343434444342413400432828
:1013A00035D006DC392833D0412832D0422825D127
:1013B0009EE144282ED0612820D10FE0633803003D
:1013C0000BF0CCFA161A1D34333231302F2E1C1C80
:1013D0001C1C1C1C1C1C1C1C1C1C2D1CA048784408
:1013E0004E3009F04AFF9E4878448C3009F045FFA2
:1013F0000F2109039B4866E108F002F880E12146CD
:1014000028460BF08CF808F0F8FE79E167E172E10C
:1014100068E16AE172E15FE15BE157E144E172E1B9
:101420003FE13BE137E133E12CE124E11CE1000045
:101430000A2A20382920636865636B20646174611F
:101440002052414D202D33324B2030783630303011
:10145000303030302020202020202020202A000082
:1014600038C10000200A20434D302B2072642F77B2
:10147000722041502D446275732036344B204461F4
:1014800074612052414D2E2E2E2E2E0A0000000097
:1014900000000150200A2052642F57722041502D25
:1014A000446275732036344B20446174612052418C
:1014B0004D20746573742E2E2E2E2E2E2E2E2E2041
:1014C0006661696C0A000000200A2052642F57727E
:1014D0002041502D446275732036344B2044617492
:1014E000612052414D20746573742E2E2E2E2E2EA7
:1014F0002E2E2E20706173730A000000FF7F0060A3
:10150000FF7F2300FF7F23200000202020417070F8
:101510007320636F64652052414D203232344B207A
:101520006279746573207465737420706173736578
:10153000642E0A00200A20636865636B696E672069
:10154000616C6C204453502052414D2E2E2E343469
:10155000384B2000FFFF06C0200A20445350205281
:10156000414D207465737420706173736564200A43
:1015700000000000200A205265616420525443207C
:10158000636F756E746572203173742074696D6554
:10159000202E2E2E2E2E2E0000000480200A2052F7
:1015A000656164205254432072656720525443435E
:1015B0004F554E54524C203D2020253878200A00AB
:1015C0003E010060200A205265616420525443208D
:1015D00072656720525443434F554E545248202061
:1015E000253878200A000000200A20526561642016
:1015F00052544320636F756E74657220326E64209E
:1016000074696D65202E2E2E2E2E2E00200A20436A
:101610006865636B20525443207374617475732042
:101620007468656E20636865636B2D207365742034
:1016300073746174757320676F6F64206269742EB0
:101640002E2E2E2E2E00000040010480F4B9000042
:1016500050C200005AC300007CC4000086C50000D0
:1016600090C60000003000C0214628460AF057FF0F
:1016700008F046FC44E0214628460AF050FF08F0F6
:1016800003FD3DE00521C90328460AF048FF37E085
:1016900006F01EFB34E007F0DBFF31E006F0D9FA7C
:1016A0002EE006F049FD2BE0FE48784409F0E5FD08
:1016B000FC4878443C3009F0E0FDFB490020886399
:1016C000032040210003FFF754FA19E006F03FFA27
:1016D00016E006F099FA13E006F0ADF810E006F017
:1016E00029FB0DE006F063FA0AE006F0F9F807E0DE
:1016F00006F021F904E004F035F801E006F058FBAB
:10170000FFF7B5FD36E670BD10B5FFF75DFAE7A04F
:1017100009F0B3FDF548784409F0AFFDE14878449D
:10172000143009F0AAFDDF4878445A3009F0A5FDCD
:10173000DC487844A03009F0A0FDDA487844EA306B
:1017400009F09BFDEA48784409F097FDE8487844A1
:101750004C3009F092FDE6487844963009F08DFD52
:10176000E3487844D83009F088FDE248784409F02D
:1017700084FDE04878444C3009F07FFDDEA009F09C
:101780007CFDDC487844903009F077FDEAA009F050
:1017900074FDD8487844D43009F06FFDF648784499
:1017A00009F06BFDFFF701FA10BD70B50125212688
:1017B000AD023604294630460AF0B1FEF04CEF483F
:1017C000A0634020A061EE490520403108605A2204
:1017D000294630460AF07CFE5A222946E0000AF0EB
:1017E00077FE03205A22402140070AF071FE0120B3
:1017F00020620BF0AFF870BD70B5E14CDF48A0631C
:101800004020A061DE480125403005600560460D9E
:1018100021205A22314600040AF05AFE5A2231464B
:10182000E0000AF055FE03205A22402140070AF04A
:101830004FFE25620BF08EF870BDF8B5FFF764FF20
:10184000CF4FCE4ECE4C4037012509F0F7FC002893
:10185000FBD009F0F8FC392868D008DC31380300E7
:101860000BF07CF80816191C282B3C41468762288F
:1018700072D006DC412874D042286FD0612878D11C
:101880005FE063286BD064286AD0782871D1F8BDF6
:10189000FFF7F7F96DE0FFF7AFFF6AE001212120C4
:1018A000890200040AF03BFEA6634020A061FF20ED
:1018B000563028E0FFF779FF5BE001212120890203
:1018C00000040AF02CFEA6634020A061112057E01E
:1018D0000AF0FEFD25620BF03DF84AE0A6634020C9
:1018E000A06141204CE0A6634020A061002047E0B9
:1018F00001212120890200040AF011FEA663402084
:10190000A061FF202C30386003205A22402140077C
:101910000AF0DEFD012121205A22890200040AF08A
:10192000D7FD01215A228902C802D1E701212120D5
:10193000890200040AF0F3FDA6634020A0610320A1
:101940001EE001212120890200040AF0E8FDA663BF
:101950004020A061092013E00EE002E012E018E050
:101960001DE08948874901608848E0610920A0613D
:101970002562FFF7C9FE68E7A6634020A061212029
:10198000386019E08048824901600420A061A663A4
:10199000A0E7A6634020A061FF208130F0E7A663A6
:1019A0004020A061FF20023038603D6001215A22B2
:1019B000C90278480AF08CFD012121205A228902AF
:1019C00000040AF085FD012189025A22C8020AF0AA
:1019D0007FFD5A2240210320400779E710B5FFF729
:1019E000F3F8434878443A3009F047FC6A487844B1
:1019F00009F043FC3E487844703009F03EFC3D4815
:101A00007844743809F039FC3A487844363809F09B
:101A100034FC38487844083009F02FFC35487844C5
:101A2000463009F02AFC33487844843009F025FC1C
:101A300051487844503809F020FC4F487844123817
:101A400009F01BFC4C4878442C3009F016FC4A483D
:101A500078446A3009F011FC47487844A83009F00E
:101A60000CFC45487844E63009F007FC4B487844C4
:101A700009F003FC494878443C3009F0FEFB474834
:101A80007844763009F0F9FB44487844B03009F0E6
:101A9000F4FB42487844EA3009F0EFFB40487844D0
:101AA00080E00000A2C40000400001A00A2A20201B
:101AB0002020202020202020202020202020204CFA
:101AC0006F7720506F776572205465737473202090
:101AD0002020202020202020202020202020202006
:101AE00020202020202020202A0000005EB50000B9
:101AF000D6C50000F8C600000A2A204129204869FE
:101B00006265726E6174652D57616B652D7570200D
:101B1000736F757263652073656C6563742028202C
:101B2000454954322F4750494F3320292020202047
:101B3000202020202A0000000A2A2042292048696B
:101B40006265726E6174652D57616B652D757020CD
:101B5000736F757263652073656C656374202820EC
:101B6000454954312F4750494F3420292020202007
:101B7000202020202A0000000AC80000FFFF0000EB
:101B8000000004802942920100010480FF07020046
:101B9000295092010080048086B200002EC9000006
:101BA00052CA000009F069FBFE48784409F065FB61
:101BB000FC4878443C3009F060FBFB48784409F06D
:101BC0005CFBFEF7F2FF10BD10B5F8490868012272
:101BD000120410430860FFF701FFF54C09F02EFBDB
:101BE0000028FBD009F02FFB622843D013DC3628F5
:101BF00037D007DC313803000AF0B0FE0522242A72
:101C00002D30270037282FD038281ED039281CD057
:101C100061281AD12BE067283BD008DC63282CD040
:101C200064282DD065282ED066280ED12EE0682895
:101C300032D0692833D06A2834D0782805D110BD35
:101C4000DC4801E0DB48001DE060FFF7C7FEC5E7A8
:101C5000D8480830F8E7D7480C30F5E7D5481030B9
:101C6000F2E7D4481430EFE7D2481930ECE7D14816
:101C70002530E9E7CF482930E6E7CE482D30E3E7C5
:101C8000CC483130E0E7CB483530DDE7C948393062
:101C9000DAE7C848B930D7E7C648BD30E060C54884
:101CA000C130E060C348C530CEE710B5FEF78CFF09
:101CB000BC4878447C3809F0E0FABF48784409F021
:101CC000DCFAB8487844463809F0D7FAB548784481
:101CD000083809F0D2FAB3487844363009F0CDFA22
:101CE000B0487844743009F0C8FAAE487844B2304D
:101CF00009F0C3FAAB487844F03009F0BEFAAF48B7
:101D0000784409F0BAFAAD487844403009F0B5FAA1
:101D1000AA4878448E3009F0B0FAA8487844CC300C
:101D200009F0ABFAA6A009F0A8FAB548784409F082
:101D3000A4FAFEF73AFF10BD08B59C4908684009AF
:101D400040011230086000200090401C0090642880
:101D5000FBD397490220C862AA48382101639549FC
:101D6000C91E0161A84A826162224262A74A0260DA
:101D70000122D2058263C161A54A00210B461343AB
:101D8000C361491C0F29F9D341688902FCD49F49DA
:101D9000491C0160C1680902FCD541680907FCD5EE
:101DA0000821416008BDF8B59A4C00252561012144
:101DB000E160022666610320206021612B46FEF768
:101DC000B4FE5B1C022BFAD9E069FF20924F8F30E2
:101DD000386192A009F051FA2561E560666103203F
:101DE00020600120206197490020401C8842FCD3DC
:101DF000E069C7208000386193A009F03EFAF8BD81
:101E000038B56A490868400940011230086000216D
:101E100000910098401C00906428FAD3644A022084
:101E2000D062784C38202063D017A0602160000C6D
:101E300020617548A0616020A0628F482061500435
:101E4000E0634011E0638D482060A068C007FCD0CB
:101E50000120A060E068C005FCD5226A88A19248F4
:101E60000AF0F4F8904809F008FAE26B8FA18E4866
:101E70000AF0ECF88C4809F000FAE26896A18A486A
:101E80000AF0E4F8884809F0F8F9A0680007FCD5E2
:101E90000820A06038BD10B545490220C862594CE1
:101EA000382020634348C01E20615749A1610022A9
:101EB00022602061A1615021616220610121C90578
:101EC000E1634811E0638011E0613A481B30206013
:101ED00060680007FCD5E1633B200005E0638948AA
:101EE000206060684007FCD504206060226A64A11D
:101EF0006D480AF0ABF86C4809F0BFF9E26B6BA1D2
:101F000069480AF0A3F8684809F0B7F9E2687EA1C9
:101F100065480AF09BF8644809F0AFF910BD00214C
:101F2000234A0220D062374818220263214AD21E77
:101F30000261354A8261502242627F4A0260012278
:101F4000D2058263D212C261314B0A461A43C26182
:101F5000491C0F29F9D37849491C0160C16809025D
:101F6000FCD541680907FCD508214160704710B5D0
:101F7000FEF72AFE0B4878443C3009F07EF96F48A2
:101F8000784409F07AF907487844723009F075F915
:101F90000A4878447E3809F070F908487844403897
:101FA000CEE000008AC90000B8B000000001048043
:101FB0004000018002000100B8AF0000B8CA000074
:101FC0000A2A2048292052756E2044687973746F5C
:101FD0006E6531207465737420202020202020201D
:101FE00020202020202020202020202020202020F1
:101FF000202020202020202020202A200000000057
:10200000BCCB000000000D80800380031C003F104B
:10201000A4A3A2A10031048000000380200A205361
:10202000776974636820444C4C20667265717565ED
:102030006E6379203D2039312E363532204D687A55
:102040002000000088130000200A20537769746381
:102050006820444C4C206672657175656E6379200A
:102060006261636B20746F203D203138332E344D14
:10207000687A202000000000FFFFFF06E003010057
:10208000200A2052782064617461207265672030D4
:1020900078383030645F30303230202D2D3E2030A3
:1020A00078253038780000000C010060200A2052AA
:1020B00078204649464F2063746C20726567203053
:1020C00078383030645F30303363202D2D3E20303F
:1020D0007825303878000000200A205278204649C0
:1020E000464F2063746C207265672030783830303A
:1020F000645F30303063202D2D3E2030782530381D
:10210000780000001F3C0000200A20527820464939
:10211000464F207374617475732072656720307840
:10212000383030645F30303063202D2D3E203078E1
:1021300025303878000000001C003C10F4AC000092
:1021400009F09BF8FB48784409F097F8F94878447F
:10215000403009F092F8F74878447E3009F08DF865
:10216000F4487844BC3009F088F8F2487844FA30F2
:1021700009F083F8F048784409F07FF8EE48784495
:10218000403009F07AF8EC4878447E3009F075F870
:10219000E9487844C03009F070F8E7487844FE30E8
:1021A00009F06BF8FEF701FD10BD10B5FFF7DFFE7B
:1021B00009F044F80028FBD009F045F8392837D059
:1021C00009DC313803000AF0C9FB081B1E21242753
:1021D0002A2D3005EAE7642808D00ADC61282AD0D5
:1021E00062282BD06328E1D107F00AF908F00EFD30
:1021F000DCE76528DAD06628D8D07828D6D110BD9B
:1022000008F079FDD2E708F047FDCFE708F00CFEB3
:10221000CCE708F095FDC9E708F0D1FDC6E708F066
:1022200037FEC3E705F027FBC0E708F0A9FDBDE7CF
:1022300005F0EAFCBAE705F0FEFAB7E707F021F986
:10224000B4E770B5BD4DBE4C82E008F0F7FF002842
:10225000FBD008F0F8FF46286CD00FDC31380300C3
:102260000AF07CFB152B2E3134373A3D404376760D
:10227000767676767649767655607600652849D00A
:102280000CDC612834D002DC472861D158E0622898
:1022900034D0632835D064285AD135E0692855D028
:1022A00006DC662843D0672847D0682850D14AE02A
:1022B0006A284DD078284BD170BDFFF776FF47E0F4
:1022C00008F0EAFC44E008F0AFFD41E008F038FD1A
:1022D0003EE008F074FD3BE0FFF721FE38E0FFF739
:1022E000DAFD35E005F0C7FA32E008F049FD2FE0ED
:1022F000FFF786FD2CE0FFF756FD29E005F084FC92
:1023000026E0FFF719FD23E008F0D3F820E008F0FD
:1023100097F81DE000268B4D0124EC6008F033F99E
:10232000EE60FAE721462846FDF76EFF10E008F060
:1023300007FA0DE007F0A5F80AE007F02FF807E02C
:1023400007F05EF804E008F061FC01E008F09FFB94
:10235000FFF7ABFC79E710B5FEF736FC764878441A
:102360007C3808F08AFF7848784408F086FF724885
:102370007844463808F081FF6F487844083808F000
:102380007CFF6D487844363008F077FF6A4878441F
:10239000743008F072FF68487844B23008F06DFF7E
:1023A00065487844F03008F068FF6848784408F0E1
:1023B00064FF66487844403008F05FFF6348784423
:1023C0007A3008F05AFF61487844C83008F055FF69
:1023D0005F48784408F051FF5D487844403008F089
:1023E0004CFF5B4878448E3008F047FF58487844EB
:1023F000CC3008F042FF5748784408F03EFFFEF723
:10240000D4FB10BD534810B578443C3008F035FF7C
:1024100050487844823008F030FF4E4878442830E5
:1024200008F02BFF4B487844BE3008F026FF4A489E
:10243000784408F022FF48487844483008F01DFFEF
:1024400010BD01224548D2038262D110C16220230F
:10245000036343488262C162036370474249414A51
:102460008A63424BCA171A60092292028A618A68FB
:1024700010180860C86848608868052292028018B1
:102480000861C86848613A4848633A4888617047BB
:1024900010B53A483849C160410D4160C802006832
:1024A000FFF7DCFF3049012008620AF053FA0AF016
:1024B00051FA10BDF8B50120400500902848816A06
:1024C000C56A006B2D4A10610123536100244F1B24
:1024D000460009E0FDF7A2FE39460AF022F8491944
:1024E000A2000098641C8150A642F3D8F8BD10B534
:1024F00022482349C1602021416008040068FFF799
:10250000ADFF1949012008620AF024FA0AF022FA04
:1025100010BDF8B50120400500901048816AC56AD9
:10252000006B164A10610123536100244F1B4600C3
:1025300032E0000016C900004ECA0000000003602F
:1025400000010360800001800CA900007CCB00002A
:1025500092CC00009CCD0000A0CE0000800067401F
:1025600080000070FFFF00000000048080E200E0B7
:10257000FC07000003180000341200000030048043
:10258000CDAB0000FDF74AFE394609F0CAFF4919F4
:10259000A2000098641C8150A642F3D8F8BD10B583
:1025A000FFF730FF08F04AFE0028FBD008F04BFE92
:1025B000312806D0322809D034280CD07828EFD121
:1025C00010BDFFF7A6FFFFF792FFE9E7FFF772FFE5
:1025D000FFF75EFFE4E7FFF734FF10BD70B50020A2
:1025E00072B60921EF4A09051160510D401C88425D
:1025F000FCD3ED4D4020E8620020401C8842FCD313
:102600004820E862E9A008F038FEF54C2068400157
:10261000FCD5F448784408F030FE2268F2A1FE4868
:1026200009F014FDFC4808F028FEFF20A8630120F3
:10263000EB498006803108602268EA4979442831F4
:10264000F54809F003FDF44808F017FE62B670BDC6
:10265000F34AF24900205161D34CD34AF149803406
:102660009163F14961610246606005210902401CE5
:102670008842FCD90120000320600020401C8842D1
:10268000FCD962600020401CFF28FCD9E748A0610B
:102690000020401CFF28FCD901206060A0610020C0
:1026A000401C8842FCD9E2A008F0E7FD2268CD4931
:1026B0007944091FD84809F0C9FCD74808F0DDFD66
:1026C000FEE710B5FFF747FE08F0B8FD0028FBD085
:1026D00008F0B9FD382832D009DC313803000AF09F
:1026E0003DF907191C1F2225282B0500EAE763285E
:1026F0002ED008DC392825D0612826D06228E1D1E7
:1027000002F0BAFCDEE7642824D0652825D07828BA
:10271000D8D110BD02F0B6FBD4E702F01DFCD1E722
:1027200002F0E9FBCEE702F047FCCBE702F074FCD5
:10273000C8E702F081FCC5E702F08CFCC2E702F0BA
:10274000ACFCBFE702F015FDBCE702F032FDB9E7D3
:10275000FFF77EFFFFF742FFB4E7FFF720FFB1E787
:10276000BD4B026840681A615861012900D11046CA
:102770007047F0B5002687B03546B8A008F07DFD5B
:1027800008F05CFD0028FBD0112101A808F095FDA0
:1027900000201C2201AF395C0B463039092901D9D0
:1027A000194657398300D31A99408E19401C0828BE
:1027B000F1D30924385D03463038092801D9184679
:1027C0005738A2004021891A884045192246B3A1F2
:1027D0009148009509F03AFC8F4808F04EFD641CC2
:1027E000112CE7D301213046FFF7BAFF3368324698
:1027F000B3A1894809F02AFC874808F03EFD3560FE
:1028000033683246BBA1844809F020FC824808F0B6
:1028100034FD07B0F0BD30B585B00024C2A008F08B
:102820002CFD08F00BFD0028FBD00821684608F0BD
:1028300044FD00206B461C25195C0A4630390929E5
:1028400001D9114657398200AA1A9140401C0C192F
:1028500080B20828F0D323682246BCA16E4809F054
:10286000F5FB6D4808F009FD05B030BD10B5FEF769
:10287000ABF9BD48784408F000FDBC48784408F046
:10288000FCFCB9487844383008F0F7FCB648784486
:10289000763008F0F2FC53487844AC3808F0EDFC90
:1028A00050487844523808F0E8FC4E4878441838CC
:1028B00008F0E3FC4B487844263008F0DEFC494839
:1028C0007844643008F0D9FC46487844A23008F0D7
:1028D000D4FC44487844E43008F0CFFCFEF765F9B6
:1028E00010BD10B5044603F0F4FE03462246A0A135
:1028F000494809F0ABFB484808F0BFFC10BDF0B5F3
:1029000087B00025A2A008F0B8FC08F097FC0028CA
:10291000FBD00D2101A808F0D0FC00210C2301AE52
:10292000705C02463038092801D9104657388A00B1
:102930009A1A9040491C451989B20429F0D30027FE
:102940000524305D03463038092801D91846573828
:10295000A2003021891A8840C71922464FA12E486B
:10296000009709F073FB2C4808F087FC641CA4B2A4
:102970000D2CE6D33946284603F087FE49E730B5EB
:1029800085B0002402F054FD8EA008F076FC08F01B
:1029900055FC0028FBD00821684608F08EFC00207A
:1029A0006B4625E1000002A0000004800A20474E8B
:1029B00053532073656E6420506275732077616B8A
:1029C00065757020696E74657272757074207265B9
:1029D00071756573742E2E2E2E2E2E2E2020000043
:1029E00000E200E05CCD0000200A20434D302B20A7
:1029F0004E5649432070656E64696E672072656744
:102A00002030786530303065323030203D203078ED
:102A100025303878000000000C01006042410000C1
:102A200000300480FFFF0000AF120000EFBE000086
:102A3000200A204E6F77207374617274207761745E
:102A40006368646F6720746573742E2E2E2E2E2E8D
:102A50002E2E2E2E2E00000000000060200A204E98
:102A60006F77207479706520726567206164647285
:102A70002C6461746120746F2062652077726974C0
:102A800074656E203C686868686868686820686873
:102A90006868686868683E2000000000200A2070AE
:102AA0005B25645D3D203078253034782C4461749A
:102AB00061203D2030782530347820200A20000025
:102AC000200A2044617461206265666F7265207718
:102AD00072697474656E2C6164647220307825307C
:102AE0003878203D3D3D3E20307825303878200A2A
:102AF00020000000200A2044617461206166746532
:102B000072207772697474656E2C6164647220300F
:102B10007825303878203D3D3D3E203078253038CE
:102B200078200A2000000000200A204E6F772074D1
:102B3000797065207265672061646472203C686802
:102B40006868686868683E2000000000200A20303D
:102B50007825303878203D3D3D3E20307825303492
:102B600078200A2000000000FCCB0000F8A3000041
:102B7000200A20537065656479207265672030787B
:102B800025303878203D2030782538780000000046
:102B9000200A204E6F77207479706520726620724B
:102BA000656720616464722C2064617461203D3D1E
:102BB0003D3E203C686868682068686868686868A6
:102BC000683E2000200A204E6F77207479706520BF
:102BD00072662072656720616464723D3D3D3D3ED2
:102BE000203C68686868686868683E2000000000EB
:102BF0001C25195C0A463039092901D91146573973
:102C00008200AA1A9140401C0C1980B20828F0D307
:102C1000204603F05EFD03462246F5A1FB4809F07D
:102C200015FAFA4808F029FB1EE610B5F84900200D
:102C300003F02BFDF749042003F027FDF649082097
:102C400003F023FDF5490C2003F01FFD8021102027
:102C500003F01BFD0021242003F017FDF04928207C
:102C600003F013FDEF493C2003F00FFDEE49402037
:102C700003F00BFDFF210231482003F006FDEB4974
:102C8000502003F002FDEA49602003F0FEFC002121
:102C9000642003F0FAFC2821682003F0F6FCE549E3
:102CA000782003F0F2FCE4497C2003F0EEFC2721BD
:102CB000802003F0EAFC01210905902003F0E5FCE7
:102CC0000021142003F0E1FC0021942003F0DDFC3E
:102CD0004021942003F0D9FC0021942003F0D5FC7E
:102CE0000021942003F0D1FC0821942003F0CDFCB6
:102CF0000021942003F0C9FC10BDF8B50D20D04987
:102D0000CE4C00050860D049CE48886153E008F0F9
:102D100095FA0028FBD008F096FA37284BD007DC4C
:102D20003138030009F01AFE051316191C1F47005D
:102D3000622821D006DC38283DD039283BD06128D4
:102D400039D113E063281BD0782834D1F8BDFFF7C0
:102D50006CFF30E003F0DEFB2DE003F014FC2AE012
:102D6000FFF70DFE27E0FFF7CAFD24E0B34900207E
:102D7000091D03F08AFC1EE00020FFF7B2FD1AE0F7
:102D800027460025AE00391D304603F07EFC0020AA
:102D9000401CFF28FCD9304603F09BFC0746034645
:102DA0003246AAA1994809F051F9984808F065FA05
:102DB0006D1C052DE6D3FFF759FDA8E7A249AC4AE3
:102DC0008A63AC4BCA171A60092292028A618B6827
:102DD0000A300322824098180860C86848608868F2
:102DE0000522120480180861C8684861A248486337
:102DF000A2488861704710B5A14994B05022794427
:102E00006846FDF727FA9F4B9969586900281BD03F
:102E100058698D4C0A1A0021E162401E58619AA13E
:102E20007A4809F013F9794808F027FAA6480068AB
:102E3000FFF7C4FF84494A20403108600120206226
:102E400009F088FD09F086FDFDF7D6FE9F4C08F0DD
:102E5000F5F90028FBD008F0F6F961281CD009DC50
:102E60003138030009F07AFD0926292C2F32353834
:102E70003B3E4000662837D006DC622834D0632809
:102E80000DD0642830D10DE067280ED068282BD0F3
:102E9000782829D114B010BDFFF72FFF24E0FFF7E9
:102EA000BAFC21E0FFF765FC1EE0E0212046FDF7BB
:102EB00060FE19E0FEF748F916E0FFF702FC13E0A8
:102EC000FFF7BFF910E0FEF77FFE0DE0FEF7B5FC5F
:102ED0000AE0FEF749FA07E0FEF794F904E0FEF78E
:102EE0006AF901E0FDF704FFFDF786FEAFE77848D9
:102EF00003214161764B0122403B9A63C217026174
:102F00008322C261016241628162714A4032D160B2
:102F1000C10BC1607047FFF7EAFF1D205949C0018E
:102F2000086053486A49C01CC860474900204031C6
:102F30008860E12100224902664808F070F94248A1
:102F40000421C162C16A4907FCD40121016209F070
:102F500001FD09F0FFFC09F0FDFC09F0FBFCFEE7B8
:102F600010B502461CCAC068012907D0022907D043
:102F7000032907D0042900D0002010BD104610BD41
:102F8000184610BD204610BD10B553A008F075F9C5
:102F90005749584808F013FF57A008F06EF910BDC4
:102FA000F8B50A460646014600245A4808F037F9A3
:102FB00000200090401C00906428FBD3204608F0BD
:102FC00050F90025F6080DE008F038F9002809D07E
:102FD00008F039F9A0420AD1641CE4B2204608F096
:102FE00040F96D1CAE42EFD80020C043F8BD93E01D
:102FF000200A20307825303878203D3D3D3E203075
:103000007825303478200A20000000000C01006090
:103010006DFB0F001056190040401A01A49BF40DDF
:103020000C41F120CC1D4600F0776A0BC803B400B8
:1030300004006000D808903E0000340C3012AA55FD
:10304000000002A001000C0000000480200A207390
:10305000706565647920726567203078253038782E
:10306000203D3D3D3E20307825303478200A200038
:10307000FFFF000080E200E0FC07000003180000F2
:10308000AE9B000000010480200A200A20546573D2
:1030900074206E6F3A202530386420202E2E2E2E7C
:1030A000205374617274206E65787420736C65654A
:1030B00070206D6F64652074657374206E6F772E59
:1030C0002E2E2E2E2E2E20000002048000F6FFA0B1
:1030D00040000180B4F13501200A20636865636B0C
:1030E000696E67204453503252414D2E2E2E2000DF
:1030F000FFFF04C0000003C0200A204453503220C8
:1031000052414D207465737420706173736564203F
:103110000A0000000000EE02002067E710B5411C25
:1031200005D0002802D1ECA008F0A7F810BDF4A04B
:10313000FAE77047FC492F2008600320FB4940054F
:103140004862FC48FA4AC261012252038261026964
:10315000521D426042698260F74A826100038860C2
:1031600001204863704710B50C4603F08EFA2246E2
:10317000F2A1FE4808F06AFFFC4808F07EF810BD96
:10318000F0B5FB4889B00026784408F076F8F9A03D
:1031900008F073F808F052F80028FBD013216846B5
:1031A00008F08BF800200C226F46395C0B46303952
:1031B000092901D9194657398300D31A9940401C6F
:1031C0008E1980B20428F0D30520395C0A463039C4
:1031D000092901D911465739052814D06D18401C0A
:1031E00080B20728F1D32A46ECA1E04808F02EFF70
:1031F000DE4808F042F86846417A08463038092827
:1032000005D8069005E00A2251430D46E7E75739F5
:103210000691E8A1D548069A08F018FFD34808F0AF
:103220002CF800200446059020E01220001B82B2FA
:103230006846805C0746303F092F00D9273F3B4650
:10324000E2A1CA4808F002FFC84808F016F805983D
:10325000A74007433B462246E1A1C448059708F032
:10326000F5FEC24808F009F8641CA4B2069884422E
:10327000DBD30598A8400590B0B202F0E5F800272E
:103280003C4607900EE02919012088403843074644
:103290000246DAA1B54808F0D9FEB44807F0EDFFC0
:1032A000641CA4B206988442EDD3079C0598BC43E5
:1032B0000443B0B2214602F008F923463246D6A1B3
:1032C000AA4808F0C3FEA94807F0D7FFB0B202F041
:1032D000BBF803463246DCA1A44808F0B7FEA34879
:1032E00007F0CBFF09B0F0BD10B5FDF76DFCE3486A
:1032F000784407F0C2FFE248784407F0BEFFDF4899
:103300007844383007F0B9FFDC487844763007F06D
:10331000B4FF97487844683807F0AFFFFDF745FCE5
:1033200010BDD849012048637047D6490220486340
:1033300070478048D4498163D44AC117116009217C
:103340008902816181680322120489180160C168C1
:10335000416081680522120489180161C1684161D8
:10336000CB494163CB498161704710B572B6C648FD
:10337000704CA063C549E0170860FDF7DDFBC6A1EE
:103380007A4808F063FE794807F077FF30BF09F00C
:10339000E1FA09F0DFFA09F0DDFA09F0DBFABB48DF
:1033A000803801688900490F0729FAD1C906A1634D
:1033B0000268B24979445C316C4808F047FE6B48BA
:1033C00007F05BFF62B610BD70470020C24A412182
:1033D0009160401C4128FBD3704710B50124FDF7D4
:1033E000DEFE07F0ADF9FDF70DFF641C0A2CF6D3E5
:1033F00010BD10B5FDF7E8FB10BD704710B5B7A0C4
:1034000007F03BFFB5A007F038FF10BD07F016FF2F
:103410000028FBD007F017FFFFF7F0FFF6E797480B
:1034200010B578443A3007F028FF94487844783053
:1034300007F023FF4E487844663807F01EFF4C48DB
:1034400078441C3807F019FF49487844223007F0C7
:1034500014FF47487844603007F00FFF4448784431
:103460009E3007F00AFF42487844DC3007F005FF41
:103470009B48784407F001FF99487844403007F0B2
:10348000FCFE10BD9749002808D0012808D002286A
:1034900003D0032801D19448086070479348FBE7A4
:1034A0009348F9E77CB593A103C900246E460191C6
:1034B0000090305D07F0D5FE641C062CF9D38F4DCB
:1034C0000024305D07F0CDFE07F0C4FE285500282B
:1034D00000D015E119E100000A41726974686D6558
:1034E0007469632073686966742072696768742000
:1034F00074657374206661696C65642E0000000059
:103500000A41726974686D657469632073686966DD
:1035100074207269676874207465737420706173B5
:103520007365642E000000000000098000000A801E
:10353000FF1900000000048003E000000A2053701F
:10354000656564792052462072656720207772692C
:1035500074652030783030203D2030782530387840
:1035600020202E2E2E2E2E646F6E65000C01006022
:10357000D4C50000200A20466F726D6174203D3D65
:103580003D3E203C20686868682044442044442034
:103590006262626262626262203E2000200A202033
:1035A0006269745F7374617274203D2025303864E1
:1035B00000000000200A20206269745F6C656E675D
:1035C0007468203D2025303864000000200A202047
:1035D000705B253038645D203D2025303878000050
:1035E000200A2020746D70446174615B2530326460
:1035F0005D203D202530387800000000200A206D35
:1036000061736B2044617461203D3D3D3E20307804
:1036100025303878200A2000200A20446174612077
:103620005772697465206174206164647265737394
:1036300020307825303878203D3D3D3E20307825BB
:10364000303878200A200000200A2044617461206C
:1036500072656164206261636B20617420616464DF
:103660007265737320307825303878203D3D3D3EBB
:1036700020307825303878200A200000B8C40000B7
:103680007C99000000000180FFFF000080E200E064
:10369000FC07000003180000200A2020457865631D
:1036A0007574652057464920696E7374727563742A
:1036B000696F6E207468656E206177616974696EE8
:1036C0006720696E746572727570742E2E2E2E2EA0
:1036D0002020200A00000000000003800A000000F3
:1036E000EEC6000000010480D200B5001200E10126
:1036F000D2005F0131321851520000000800006012
:10370000641C062C00D2DCE6DAE67CBD704730B5DE
:10371000C14BA1B040330FCB10AC0FC4BE49402207
:1037200050316846FCF796FDBB4B14AC8033103328
:103730000FCB0FC4B848B94C0146426A006A203129
:1037400019921890CA6888681B921A90086949698A
:103750001D91B1491C90886BC96B1E901F91B0A040
:1037600007F08BFD2288BBA1C44808F06FFCC3485A
:1037700007F083FD20888005850FC1A007F07DFD3F
:10378000A80014A9085807F078FD20884006C50F46
:10379000C4A007F072FDA80018A9085807F06DFD35
:1037A00020880007850FC6A007F067FDA80010A9B4
:1037B000085807F062FD20888006C50FC6A007F0F4
:1037C0005CFDA8001AA9085807F057FD2088050BD2
:1037D000C6A007F052FDA8006946085807F04DFD45
:1037E0002088C507ED0FC7A007F047FDA8001CA95A
:1037F000085807F042FD2088C006C40FC6A007F095
:103800003CFDA0001EA9085807F037FD21B030BDCF
:1038100010B5C6A007F031FD02F052F9C849C948F9
:1038200008F0CDFAC8A007F028FD10BDF8B5C848CB
:103830000024784407F021FDC648611E4162C74953
:10384000C54A0A8075498A8901231A438A81C54A73
:10385000C349118181684203114381608068C2A11C
:1038600082B2864808F0F2FB844807F006FDBB4DA3
:10387000203DAF89C6A13A46804808F0E7FB7F4863
:1038800007F0FBFC2E8ACCA132467C4808F0DEFB18
:103890007A4807F0F2FCAE4878441A3807F0EDFC9D
:1038A000CFA007F0EAFCBB20800028830A372F80D6
:1038B000361DAE80D9481021018001214180A748E2
:1038C00000218180D648641C8442FCD9A14C206828
:1038D000400002D4A88B4004F9D500200121490200
:1038E000401C8842FCD9CF4802884688CEA1634854
:1038F00008F0ACFB614807F0C0FC3246D9A15F4834
:1039000008F0A4FB5D4807F0B8FCA069E4A182B20E
:103910005A4808F09BFB594807F0AFFCE869E6A15C
:1039200082B2564808F092FB544807F0A6FC0120EA
:103930008003A883E8A007F0A0FCF8BDFEB500272F
:10394000364940203E460881FF213448403140300E
:1039500001823F218182ECA007F08FFCF84D00240A
:10396000F8486860F849A9602860012008F076FAF4
:10397000E86AA96B042C04D0641C0F4606460A2C86
:10398000EED3801BC91B4D084408062205210420E4
:103990006E4607C6ED4829462218FF39032316391B
:1039A000EBA007F083FDF0487D212818090188422B
:1039B00005D2EE48844202D8ED48844202D2ED4856
:1039C00008F05BFAFEBD0020704710B5EA49002000
:1039D0000860644934204860E8A007F04EFC4120AC
:1039E000F449000608F01BFAF3A007F046FC10BDEE
:1039F00010B5FFF7EAFFFFF7A1FFFFF717FFFFF78B
:103A000007FFFFF784FE10BD10B5F1A007F035FCED
:103A1000F9480288F2E10000000000600000018027
:103A2000200A20436865636B20706F7765722D757F
:103A30007020736F66747761726520636F6E66695C
:103A4000672E207374726170732E2E2E2E2E2E2EE2
:103A50002E2E2E00200A204348495020636F6E66A8
:103A60002E20726567283078383030313030303071
:103A700029203D3D3D3E2025303478000C0100607A
:103A80000A2045445B325D2F43505520626F6F74AE
:103A900020636C6B2073656C6563743D3D3D3D3EFA
:103AA000000000000A20475246332F475246326D2D
:103AB0002073656C656374696F6E3D3D3D3D3E00EE
:103AC0000A2077696474682045445B313A305D3D73
:103AD0003D3D3D3E000000000A20436869702070B3
:103AE00061636B6167653D3D3D3D3E000A20737734
:103AF000436F6E6669674269745B302D335D3D3D8F
:103B00003D3D3E000A20426F6F74206F7074696FF4
:103B10006E3D3D3D3D3E00000A20456E6469616E8C
:103B200020747970653D3D3D3D3E000063686563EE
:103B30006B696E6720424252414D2E2E2E200000AE
:103B4000FFCF048000800480646F6E652E0A000041
:103B5000BEC3000000000A8013E0000020000480C3
:103B600054F20000000009800A2E2E2E50726F675A
:103B700072616D20494E5420656E61626C652072E1
:103B80006567203D3D3E20253878200A0000000072
:103B90000A2E2E2E43757272656E7420415349436E
:103BA0005F525443434F554E54524C203D3D3E20AE
:103BB000253478200A0000000A2E2E2E43757272DA
:103BC000656E7420415349435F525443434F554EF1
:103BD00054524D203D3D3E20253478200A000000FF
:103BE0000A2057726974652030783030303020698F
:103BF0006E746F20636C6F636B2073746F702072D0
:103C0000656720616E64207761697420666F722039
:103C1000696E742E2E2E2E2E000000000000104221
:103C2000FF1F0000000018420A2E2E2E2044656C53
:103C30006179206F66662046504741206D6561734B
:103C40007572656D656E7420636F756E746572282C
:103C50004C53572920203D3D3E2030782530347884
:103C6000200A00000A2E2E2E2044656C6179206FF8
:103C700066662046504741206D6561737572656DBB
:103C8000656E7420636F756E746572284D53572985
:103C900020203D3D3E20307825303478200A000039
:103CA0000A2E2E2E20494E5449525120203D3D3E91
:103CB00020253878200A00000A2E2E2E2041534954
:103CC000435F5254435F535441545553203D3D3E4E
:103CD00020253878200A0000200A20202052544352
:103CE00020414C41524D20696E746572727570743A
:103CF000206465746563746564202E2E2E2E2E2E2E
:103D00002E2E200A000000000A63616C63756C614E
:103D100074696E6720414351434C4B202620454334
:103D20004C4B20617373756D696E67205254434329
:103D30004C4B3D3332373638487A2E2E2E20000039
:103D400000000CC0FF030000888888887EFDFFFF0C
:103D5000414351434C4B3D2564487A2C2045434C0C
:103D60004B3D2564487A0A00803E06FFE703EE02D9
:103D700018FCED022131000000030E804353312076
:103D8000776169745F73746174653D342C20314DC3
:103D90006279746573206578742052414D202F3309
:103DA000322D626974206163636573732E2E2E2039
:103DB00000000000FFFF0F41206578742052414D44
:103DC0002074657374207061737365642E0A00003B
:103DD0000A2052756E6E696E67204468727973743A
:103DE0006F6E652074657374202E2E2E2E2E2E2E4F
:103DF0002E2E2E2E0000000000000D80E6A1ED48C2
:103E000008F024F9EB4807F038FA10BD10B5EA497C
:103E100000200860E94880694007400F042801D06D
:103E2000E7A00EE0F34AD1680020401C6428FCD3D0
:103E3000D068401A41010A1AEFA1DE4808F006F9DD
:103E4000DC4807F01AFA10BD10B5DC48806940075D
:103E5000400F042801D0DAA011E0D7490120E54A3B
:103E60000860D1680020401C6428FCD3D068401A48
:103E700041010A1AE0A1CF4808F0E8F8CD4807F060
:103E8000FCF910BD10B5E4A007F0F7F9CB49F248F2
:103E90008039C861F149F24807F091FF10BD10B5B3
:103EA000F0A007F0EAF9C549EB488039C861FD493F
:103EB000EB4807F084FF10BD38B50020054689089F
:103EC00002E08300F458401C8142FAD894420FD09B
:103ED000800080191346F44902467944B54800949D
:103EE00008F0B4F8B34807F0C8F96D1C0A2D04D8DF
:103EF000ED4878442C3007F0C0F938BDF7B5002400
:103F000082B025468E081BE00298A107A200890F07
:103F10001718491C3846FFF723F8049988420ED039
:103F20000B46E149009079443A464C39A14808F0E3
:103F30008DF8A04807F0A1F96D1C0A2D07D8641C64
:103F4000A642E1D8D8487844283007F096F905B061
:103F5000F0BD10B5D5A007F090F901210907E14A9D
:103F60008B1200208400401C0A519842FAD3012091
:103F70004007DD49FFF7C2FF10BD10B5DBA007F019
:103F80007CF90520E249400707F049FFE1A007F06E
:103F900074F910BDC44810B57844263007F06DF9A7
:103FA00007F04CF9002802D007F04DF90446782CB0
:103FB00003D0732CF4D0772CF2D110BDBA4810B5D1
:103FC0007844463007F059F9B7487844843007F010
:103FD00054F9D2480F21C162864A00216032118211
:103FE000CF4A1168102389B21943116059058160C5
:103FF00001688901FCD5CBA007F03FF910BDF8B5E9
:10400000012635460124B74206D023462A46CDA1D3
:104010006848009708F01AF8CD487619641C844265
:10402000F1D96D1C8542EDD9F8BD30B585B00024BD
:10403000C8A007F022F907F001F90028FBD00821F9
:10404000684607F03AF900206B461C25195C0A46C1
:104050003039092901D9114657398200AA1A9140ED
:10406000401C0C1980B20828F0D3002210465100E1
:10407000E207D20F8A186408401C2028F7DBC3A18E
:104080004C4807F0E3FF4B4807F0F7F805B030BDA8
:1040900030B585B00024C7A007F0EFF807F0CEF8E0
:1040A0000028FBD00821684607F007F900206B467E
:1040B0001C25195C0A463039092901D9114657399E
:1040C0008200AA1A9140401C0C1980B20828F0D333
:1040D00001212046FEF744FB03462246BEA1354897
:1040E00007F0B4FF334807F0C8F8CFE7F0B5002673
:1040F00087B03546BFA007F0C0F807F09FF800284A
:10410000FBD0112101A807F0D8F800201C2201AF34
:10411000395C0B463039092901D9194657398300D2
:10412000D31A99408E19401C0828F1D30924385D10
:1041300003463038092801D918465738A2004021D3
:10414000891A884045192246BAA11A48009507F0F5
:104150007DFF184807F091F8641C112CE7D301216A
:104160003046FEF7FDFA03463246BBA1114807F080
:104170006DFF104807F081F8356001213046FEF7E9
:10418000EFFA03463246C1A10A4807F05FFF09482B
:1041900007F073F807B0F0BD0A20446872797374B1
:1041A0006F6E65207465737420253038782E2E2E3E
:1041B000000000000C01006000030E808000018000
:1041C000200A202054657374206F6E6C79207275FC
:1041D0006E2066726F6D204249552F657874657246
:1041E0006E616C20464C4153482021212121202022
:1041F00020200A00000004800A2045786563757459
:10420000696F6E2074696D65203D2025303864200B
:104210007573200A00000000636865636B696E6750
:1042200020696E7465726E616C2031364B2070614E
:10423000746368205352414D2E2E30783230323222
:104240003030303020746F20307832303232336684
:1042500066662E2E2E0A0000D3A50000FF3F222006
:1042600000002220636865636B696E6720696E7465
:1042700065726E616C2031364B2043616368652046
:104280005352414D2E2E307832303232343030306D
:1042900020746F20307832303232383766662E2EF6
:1042A0002E0A0000FF872220C6BD000063686563F8
:1042B0006B696E672044414D20626F6172642053C8
:1042C00052414D2E2E3078323030305F3030303029
:1042D00020746F203078323030305F303030302E04
:1042E000202E0A00AA55AA559CFF0F00636865633B
:1042F0006B696E6720394B20627974657320636146
:10430000636865206D656D6F72792E2E2E2000001A
:10431000FF2300A0646F6E652E0A000000000A8073
:10432000000003800A202E2E2E2E427265616B2023
:1043300055415254207061757365206D6F64652E10
:104340002E2E2E0025782025782025780A000000C2
:10435000FFFF0000200A204E6F77207479706520DF
:104360003332206269742076616C756520746F2029
:104370006265206269742072657665727365642077
:104380003C68686868686868683E2000200A204EBB
:104390006577207265766572736520626974207630
:1043A000616C7565203D20307825303878200A20F2
:1043B00000000000200A204E6F772074797065207D
:1043C0007265672061646472203C68686868686828
:1043D00068683E2000000000200A20307825303830
:1043E00078203D3D3D3E20307825303478200A202D
:1043F00000000000200A204E6F772074797065203D
:1044000072656720616464722C6461746120746FEA
:10441000206265207772697474656E203C686868F4
:1044200068686868682068686868686868683E20C6
:1044300000000000200A20705B25645D3D2030787C
:10444000253034782C44617461203D20307825304B
:10445000347820200A200000200A20446174612062
:104460006265666F7265207772697474656E2C611F
:1044700064647220307825303878203D3D3D3E2000
:10448000307825303878200A20000000200A2044A7
:1044900061746120616674657220777269747465F5
:1044A0006E2C6164647220307825303878203D3D70
:1044B0003D3E20307825303878200A20000000006A
:1044C00070B5B84D00242868082108432860B64E0E
:1044D0008905B0680843B060B448784406F0CDFE62
:1044E0002A68B24979444E31B14807F0AFFDB0486F
:1044F00006F0C3FE6A68AD4979448231AC4807F0E2
:10450000A5FDAB4806F0B9FE6868C005FCD5A9A1B9
:10451000A748B26907F09AFDA54806F0AEFE042050
:10452000F0622A68AFA1A24807F090FDA04806F00B
:10453000A4FE6A68B8A19E4807F088FD9C4806F072
:104540009CFE06F07BFE00281AD006F07CFE064694
:104550002246BEA1964807F079FD954806F08DFEEB
:104560003246C1A1924807F071FD914806F085FEE0
:104570006A68C1A18E4807F069FD8D4806F07DFE8E
:10458000641CA4B20F2CDCD36A68C7A1884807F06A
:104590005DFD874806F071FE70BD10B5CFA006F036
:1045A0006CFEDC4900208881DC49DB4808804B2117
:1045B00000224902DA4806F032FE10BD7B4810B5F1
:1045C0007844801C06F059FED24AD6A1784807F0FC
:1045D0003DFD774806F051FEDCA006F04EFECD4AC8
:1045E000E6A13032724807F031FD714806F045FE11
:1045F000EBA006F042FE10BD10B5F3A006F03DFEA4
:1046000010BD10B5FDA006F038FE012007F026FC15
:10461000C04A2120203A1081FE480B238381FF20CD
:10462000BC49403020310882FF208882B949088087
:1046300093812320F84900010883F7481321203093
:1046400001800021818010BDFEB500215648C9437C
:104650004162F14EF14920363180816842031143B5
:1046600081608268EEA1524807F0F0FC504806F0E5
:1046700004FE7503EA69F3A14D4807F0E7FC4C48D6
:1046800006F0FBFDF8A006F0F8FD298806200422BC
:10469000052700920290032301970222FDA006F055
:1046A00005FF07F011FC9B4C203C218901200143B0
:1046B0002181A1890143A181964920310A8A0243BF
:1046C0000A828A8A15231A438A82D24A918901432F
:1046D00091819048018839430180C7A006F0CDFD43
:1046E00007F0F2FB00227D20C00000920099491CD7
:1046F00000918142FAD30A21A18131212181A28036
:10470000F349298300920099491C00918142FAD310
:10471000B280FEBDF8B5EF48784406F0AEFD00204B
:10472000214DC0436862BC4EBC4820363080794879
:10473000203881890127394381817849E6480881F9
:10474000E6480188202211430180A86851060843E9
:10475000A860AA68E2A1164807F078FC144806F0A1
:104760008CFD7403E269E8A1114807F06FFC0C208E
:104770002083EE481021018047800020B080ED4961
:10478000EB48088048806920EB49C0000880A08B76
:10479000C00BFCD0002001214902401C8842FCD9FA
:1047A000E648CDE10000038000000A8086B90000E1
:1047B0000C010060200A204265666F726520554139
:1047C000525420412041434B20494E542C20494E05
:1047D0005449525120726567203D20307825303889
:1047E00078000000200A204265666F7265205265DD
:1047F0006164205278206275662C554152542041E4
:1048000020636F6E74726F6C20726567203D20307C
:104810007825303878000000200A204265666F72E3
:10482000652052656164205278206275662C55417E
:10483000525420412073746174757320726567202F
:10484000203D20307825303878000000200A2052A2
:10485000656164696E67205278206275662C2062FB
:10486000797465202564000020203D3D3D3D3E20BB
:104870002025632000000000200A20496E20726578
:104880006164696E67205278206275662C554152CA
:104890005420412073746174757320726567203DE4
:1048A0002030782530387800200A204166746572FF
:1048B0002072656164696E67205278206275662C8B
:1048C0005541525420412073746174757320726590
:1048D00067203D2030782530387800000A203D3DA3
:1048E0003D3D3D3D2043505520436C6B2020737768
:1048F00069746368656420746F20737065656420F3
:104900003530204D687A3D3D3D3D3D3D3D3D2020CB
:10491000200000002000018074F0000000000980E9
:104920000000EE02200A205541525420636C6B2097
:10493000636F6E74726F6C20207265676973746543
:1049400072203D2025303878000000000A2043689E
:10495000616E676520535020636C6F636B20736FCB
:10496000757263652066726F6D20414351434C4BF5
:1049700020746F2045434C4B20000000200A205338
:104980005020636C6B20636F6E74726F6C202072AA
:1049900065676973746572203D20253038780000A2
:1049A0000A205573696E67206E6577205350206327
:1049B0006C6F636B20746F20746573742044535064
:1049C0002052414D00000000200A202E2E2E2E2EB7
:1049D00020416C6C204857544C20726567732057F7
:1049E000522F524420746573742E2E2E2E2E2E2E8E
:1049F0002E706173736564200A0000000A415445FB
:104A0000207374616E64627920636F64652E2E2E4C
:104A10000A00000000000280000004801320000053
:104A20000950726F6772616D20494E5420656E6146
:104A3000626C6520726567203D3D3E2025387820F8
:104A40000A0000000943757272656E742052544367
:104A500053544154555320726567203D3D3E2025F7
:104A60003878200A000000000970726573732022F4
:104A700073362220627574746F6E20746F207475A3
:104A8000726E206F6E2043505520434C4B2E2E2EBD
:104A90000A0000000A20636865636B20626F6F7410
:104AA00073747261702072656769737465722073C4
:104AB000746179207468652073616D65206F722060
:104AC0006E6F743A203078253034780A0000000088
:104AD0003D03000078B8000054F20000000104809B
:104AE0000A2E2E2E50726F6772616D20494E54202F
:104AF000656E61626C6520726567203D3D3E2025D4
:104B00003878200A000000000A2E2E2E437572729B
:104B1000656E74205254435354415455532072656A
:104B200067203D3D3E20253878200A0000001042D5
:104B3000FFFF000000002842000020420000184251
:104B4000028846883FA14E4807F080FA4C4806F09C
:104B500094FB32464BA14A4807F078FAAA6958A15B
:104B6000474807F073FA464806F087FBA28B5AA124
:104B7000434807F06BFA424806F07FFB0120000330
:104B8000A0835DA006F079FBF8BD10B50022D243EA
:104B900065490023654C0B610A60226912180B609D
:104BA00020698242FBD810BD644861A1016064A104
:104BB000416069A1283001606AA141606CA18160F7
:104BC0006EA1C16070A11030016071A1416072A13D
:104BD000816073A1C16074A1016175A1416176A179
:104BE000816177A1C16178A1016279A141627AA155
:104BF00081627BA1C1627CA101637DA141637EA131
:104C000081637FA1C16380A14030016080A14160C8
:104C100080A181607CA1C16080A17038016082A107
:104C2000416084A10830016084A1416086A1083000
:104C3000016089A141608CA1083001608EA14160B2
:104C4000704700000A2E2E2E2044656C6179206F7B
:104C50006E2046504741206D6561737572656D65C4
:104C60006E7420636F756E746572284C53572920DB
:104C7000203D3D3E20307825303478200A00000069
:104C80000C0100600A2E2E2E2044656C6179206F85
:104C90006E2046504741206D6561737572656D6584
:104CA0006E7420636F756E746572284D535729209A
:104CB000203D3D3E20307825303478200A00000029
:104CC0000A2E2E2E20494E5449525120203D3D3E61
:104CD00020253878200A00000A2E2E2E2041534924
:104CE000435F5254435F535441545553203D3D3E1E
:104CF00020253878200A0000200A20202052544322
:104D000020414C41524D20696E7465727275707409
:104D1000206465746563746564202E2E2E2E2E2EFD
:104D20002E2E200A0000000000F007410000048041
:104D300052455345542070696E0000001800006011
:104D40007072696F72207761746368646F67207234
:104D50006573657400000000382062697420454462
:104D600000000000313620626974204544000000D4
:104D70003332206269742045440000007265736517
:104D80007276656400000000623030303000000050
:104D900062303030310000006230303130000000CD
:104DA00062303031310000006230313030000000BC
:104DB00062303130310000006230313130000000AB
:104DC000623031313100000062313030300000009B
:104DD000623130303100000062313031300000008B
:104DE000623130313100000062313130300000007A
:104DF0006231313031000000623131313000000069
:104E00006231313131000000616371636C6B00000D
:104E10007274630065636C6B000000004752463299
:104E20006D207573656400004752463320757365C5
:104E3000640000003130302070696E00313434205D
:104E400070696E200000000065787465726E616C98
:104E500020626F6F74000000696E7465726E616C21
:104E600020626F6F740000006C6974746C6520655B
:104E70006E6469616E00000062696720656E646936
:104E8000616E000070B572B60025D54EED433560F9
:104E9000D4A006F0F2F9D24C803C20684006FCD544
:104EA000DD48784406F0E9F92268DCA1E74807F01C
:104EB000CDF8E64806F0E1F9E54CE26AE5A1E34801
:104EC00007F0C4F8E14806F0D8F9A26AEDA1DF487E
:104ED00007F0BCF8DD4806F0D0F92562A26ACE4999
:104EE00079440A31D94807F0B1F8D84806F0C5F935
:104EF000356062B670BD70B572B60025B84EED4330
:104F00003560ECA006F0B9F9B54C803C206800068D
:104F1000FCD5C14878441A3006F0AFF92268BFA129
:104F2000CA4807F093F8C94806F0A7F907242407F0
:104F3000A269EDA1C54807F089F8C44806F09DF9BB
:104F40006269F5A1C14807F081F8C04806F095F9FB
:104F50002562356062B670BD30B5AF4885B00024BB
:104F60007844163006F089F906F068F90028FBD07D
:104F70000421684606F0A1F900206B461C25195C47
:104F80000A463039092901D9114657398200AA1A2F
:104F90009140401C0C1980B20428F0D3AC488460C6
:104FA000AB4A23460832E8A1A84807F04FF8A748C3
:104FB00006F063F905B030BD30B585B0002472B697
:104FC00095487844001F06F058F906F037F9002894
:104FD000FBD00421684606F070F900206B460C25D2
:104FE000195C0A463039092901D91146573982001E
:104FF000AA1A9140401C0C1980B20428F0D3072053
:105000000007C4612346D74ACFA1904807F01EF895
:105010008E4806F032F9CDE710B572B68C4AD24907
:10502000803200208300401CD1504028FAD3CFA00A
:1050300006F023F962B610BDCA4A10B56432CA49F7
:1050400000208300401CD1504028FAD3D4A006F0A1
:1050500014F910BD10B5704800247844543806F097
:105060000CF9DC490120086105200002641C84421F
:10507000FCD30020086110BD10B5674800247844B7
:105080002C3806F0FAF8D34940204039C862052090
:105090000002641C8442FCD310BDF0B55E4885B0AC
:1050A000002478440C3006F0E8F8CBA006F0E5F8D0
:1050B00006F0C4F80028FBD00421684606F0FDF88D
:1050C00000206E460C27315C0A463039092901D888
:1050D00089B201E0573A91B28200BA1A9140091997
:1050E000401C8CB20428EED3002001210903401C8F
:1050F0008842FCD3B748611EC03041618461B54C21
:105100000420403CE0620020210D401C8842FCD37A
:10511000414878441C3806F0B0F806F08FF80028B3
:10512000FBD00421684606F0C8F80020315C0A462E
:105130003039092901D889B201E0573A91B2820089
:10514000BA1A91404D19401C0428EFD3AAB2AFA15E
:105150003E4806F07BFF3D4806F08FF8B1480560F9
:105160002846FDF72BFE0120206207F0F3FB05B077
:10517000F0BD10B51A49AC480860964C0320403C7D
:10518000A0610220A061244878444E3806F075F8EA
:10519000A649BB20C8600420E0620020090D401C25
:1051A0008842FCD30120206207F0D4FB07F0D2FB39
:1051B00010BD194810B578442C3806F05EF89B49AC
:1051C000AA208860834A0420403AD0620020090D5A
:1051D000401C8842FCD30120106207F0BBFB10BDCD
:1051E00080E200E00A2077616974696E6720666F6B
:1051F000722041502D3E20474E53532049504320AA
:105200006F6363757272656E6365732E2E2E2E2E1C
:105210002E2E20200000000036B10000200A20437E
:105220004D302B204E5649432070656E64696E6781
:10523000207265672030786530303065323030203C
:105240003D20307825303878000000000C010060E7
:1052500000005740200A2041502F474E5353206DE5
:1052600061696C626F7820494E544D535231283039
:1052700078343035373030326329203D203078257E
:1052800030387800200A2041502F474E5353206D6C
:1052900061696C626F7820494E54535231283078DE
:1052A000343035373030323829203D2030782530C1
:1052B000387800000A2077616974696E6720666F2C
:1052C000722043502D3E20474E53532049504320D7
:1052D0006F6363757272656E6365732E2E2E2E2E4C
:1052E0002E2E202000000000200A2043502F474E81
:1052F0005353206D61696C626F7820494E544D5351
:105300005230283078373030303030313829203D35
:105310002030782530387800200A2043502F474E1F
:105320005353206D61696C626F7820494E5453521B
:1053300030283078373030303030313429203D203B
:105340003078253038780000200A20307825303831
:1053500078203D3D3D3E20307825303478200A20AD
:10536000000000001C0000703412AA55200A2041E1
:10537000502F474E5353206D61696C626F782073D4
:105380006861726564207265676973746572732001
:10539000746573742E2E2E2E2E7061737320000090
:1053A000200A2043502F474E5353206D61696C6291
:1053B0006F782073686172656420726567697374C1
:1053C00065727320746573742E2E2E2E2E70617389
:1053D0007320000040000480200A204E6F77207464
:1053E00079706520696E20726570656174207469DA
:1053F0006D657320696E20484558206E756D626535
:1054000072203A203C686868683E2000200A2069C3
:105410006E7075742064617461203D203078253091
:105420003478000000020480FFFF00000030048098
:1054300008B51120F949C001C86000200090401C47
:1054400000906428FBD308BD7CB505460246F4A154
:10545000FE4806F0FBFDFD4805F00FFF280A8021FD
:10546000EE4A08431060E8B210600020106010603F
:10547000106050601069C007FCD000216E46107AA1
:105480007054491C0529FAD900242A46F0A1F6488F
:1054900006F0DCFDF44805F0F0FE335D2246F3A192
:1054A000F14806F0D3FDF04805F0E7FE641C052C3A
:1054B000EBD96B46D97898780A04000619795B799C
:1054C00009021043084318437CBD7CB50C460546D1
:1054D000FFF7AEFFEDA005F0D0FED049280A086026
:1054E000E8B20860200E08602002000E0860200468
:1054F000000E0860E0B248600869C007FCD00020D8
:105500006B468A681A54401C0528FAD97CBDF8B548
:10551000FFF78EFF00210846FFF7D7FFEB4DEA4962
:105520002846FFF7D2FF2E1D00213046FFF7CDFFA2
:105530000324640521462846FFF7C7FF1921890483
:105540002846FFF7C2FFE2492846FFF7BEFFE149C0
:105550002846FFF7BAFF09213046FFF7B6FF0020C3
:1055600005210902401C8842FCD9DB49DB48FFF7D2
:10557000ACFF0A21B420FFF7A8FFD9490020FFF7AC
:10558000A4FFD8490420FFF7A0FFD7495020FFF718
:105590009CFFD021C420FFF798FFD44D0820294656
:1055A000FFF793FF0820FFF74FFFD1490C20FFF7CB
:1055B0008CFF0C20FFF748FFCE493C20FFF785FF0A
:1055C0003C20FFF741FFCC498020FFF77EFF802081
:1055D000FFF73AFFBD499020A431FFF776FF9020F6
:1055E000FFF732FFC5490820FFF76FFF0820FFF7DC
:1055F0002BFFC3497820FFF768FF7820FFF724FFCF
:10560000B24EA83E3046FFF71FFF371F0021384635
:10561000FFF75BFF3846FFF717FF08213846FFF713
:1056200054FF3846FFF710FFB648FFF70DFF30462E
:10563000FFF70AFF3046FFF707FF3046FFF704FF8A
:1056400021466020FFF741FFAF496020FFF73DFF93
:105650006020FFF7F9FEAD498420FFF736FF842074
:10566000FFF7F2FE2B2109019020FFF72EFF90207B
:10567000FFF7EAFEA6499020FFF727FF9020FFF7EB
:10568000E3FEA4499420FFF720FF9420FFF7DCFEFF
:10569000A1499020FFF719FF9020FFF7D5FE9F4901
:1056A0009020FFF712FF9020FFF7CEFE3046FFF765
:1056B000CBFE3046FFF7C8FEFF21B1319020FFF747
:1056C00004FF9020FFF7C0FE29460820FFF7FDFEEB
:1056D0000820FFF7B9FE92498420FFF7F6FE304616
:1056E000FFF7B2FE30212420FFF7EFFE8420FFF702
:1056F000ABFE7C20FFF7A8FE7420FFF7A5FE8820F4
:10570000FFF7A2FE9C20FFF79FFEF8BD7047704791
:1057100010B5FFF78DFE0A21B420FFF7D6FE10BDAD
:1057200010B52420FFF790FE7E4901402420FFF7AA
:10573000CCFE10BD10B52420FFF786FE802101436A
:105740002420FFF7C2FE10BD704710B576A005F00B
:1057500094FD03214420FFF7B8FE7D493420FFF774
:10576000B4FE10BD70B5FFF763FE00F0FFFF0A2125
:10577000B420FFF7AAFE774D00202946FFF7A5FECB
:1057800075490420FFF7A1FE5A493C20FFF79DFE12
:10579000D821C420FFF799FE8020FFF755FE012194
:1057A000490201438020FFF790FE03214905602054
:1057B000FFF78BFE00216420FFF787FE0820FFF72C
:1057C00043FE1121490301430820FFF77EFE634990
:1057D0007820FFF77AFE624A0023136208201062E5
:1057E00009218901506A08408842FBD15D4CA068BC
:1057F0000A30A1688142FCD313620020FFF724FE27
:10580000012601463605B1430020FFF75EFE374909
:105810000820FFF75AFE36490C20A5E0000004A03E
:10582000200A204861727269657220535049202C09
:1058300020726561642072662072656769737465A1
:105840007220307825303478200000003402006067
:105850002048617272696572205246207265672025
:105860002534782000000000A2010060200A2036C4
:10587000206279746573207265616420253064202C
:105880003D20307825303278200000000A20536512
:105890006E642048617272696572205246205350CE
:1058A00049206D657373616765202E2E2E2E2E2E76
:1058B0002E2E2E2E2E2E2E2E2E2E2E2E2E2E2E2E08
:1058C0002E2E2E20202000000000FEFF0C420000A3
:1058D000C0114400C0514F00488411004C400000EA
:1058E000E8FB1F005EDA2B008003B40000409A0240
:1058F0004037E91BFC1D4C00240A000000609A029E
:10590000E01F48013CF00000100060000020800013
:10591000B012000020030018B0100000B011000009
:105920000020800C7F070000200A20496E697469FE
:10593000616C697A652041494F2070696E2E2E2E68
:105940002E2E2E2E2E2E2E2E2E2E2E2E000000002F
:10595000C0730000E8FF1F00C0D92800B01F480D29
:105960004001048000000480FFF7AFFDFE49502095
:10597000FFF7ABFDFD495020FFF7A7FDA068801D94
:10598000A1688142FCD30020FFF75EFD3043014651
:105990000020FFF79AFD29460020FFF796FDFF2122
:1059A000B1312420FFF791FD0020FFF74DFD0420C9
:1059B000FFF74AFD0820FFF747FD0C20FFF744FDE5
:1059C0004020FFF741FD00F0D1FE0A21B420FFF78F
:1059D0007CFDE849E648C86070BD70B5FFF7C2FEBF
:1059E000E54CA068E5494018A1688142FCD3E44E2B
:1059F000A0203146FFF769FDE249A420FFF765FDCD
:105A0000E149A820FFF761FDE04DC0202946FFF7DE
:105A10005CFD3146A020FFF758FDA0687D210901FB
:105A20004018A1688142FCD32946C020FFF74DFDF4
:105A30000521B420FFF749FDCE49CD48C86070BDAF
:105A400010B5FFF7F5FC0321B420FFF73EFD10BDB4
:105A500070B5FFF7EDFC0521B420FFF736FDC9490D
:105A6000A420FFF732FDC849A820FFF72EFDC84942
:105A7000C020FFF72AFDC24DA0202946FFF725FDD3
:105A8000BD4CA0683C30A1688142FCD3C149A02034
:105A9000FFF71BFDA0683C30A1688142FCD329467A
:105AA000A020FFF712FD0521B420FFF70EFDB14C39
:105AB000AF4DE5600521B420FFF707FDE56070BD3F
:105AC00010B5FFF7B5FC18214420FFF7FEFCB249E2
:105AD0003420FFF7FAFCB1490520086010BDB14938
:105AE000AF48C8607047704710B586B0AEA005F0EB
:105AF000C4FBB8490020086003200860D720086074
:105B0000FF200860FE2048600869C007FCD0002024
:105B10006A468B688400401C13510428F9D906B0EA
:105B200010BD70B5FFF784FCABA005F0A6FBA94D36
:105B300002202860F0202860202028607220286041
:105B4000642068602C69B2A12246B84806F07EFA4B
:105B5000B64805F092FBE007F4D00020A968401C8D
:105B60000428FBD970BD70B586B0B1A005F085FBE7
:105B7000984D8020286000202860286028602860D8
:105B800068602869C007FCD000246E46AB68A0009E
:105B900033502246B3A1A54806F058FAA34805F0B1
:105BA0006CFB641C052CF1D906B070BD30B585B016
:105BB00000240094019402940394B3A0049405F08B
:105BC0005CFB844D8F2028602C602C602C606C6006
:105BD0002C698FA12246954806F038FA934805F0C3
:105BE0004CFBE007F4D000206946AA688300401C03
:105BF000CA500428F9D30198049C00060443029873
:105C0000039900040902084304436001820FA7A11D
:105C1000864806F01BFA854805F02FFBE001C20F0D
:105C2000A7A1824806F012FA804805F026FB200260
:105C3000020FA8A17D4806F009FA7C4805F01DFB7B
:105C40002003020EA7A1794806F000FA774805F074
:105C500014FB2005020FA7A1744806F0F7F973485A
:105C600005F00BFB2006020FA6A1704806F0EEF926
:105C70006E4805F002FB0098C00701D0A5A000E027
:105C8000ACA005F0FAFA00980006000F0F2803D127
:105C9000B848784405F0F1FAB6487844403005F049
:105CA000ECFA05B030BD30B585B0FFF7C1FBB2A04E
:105CB00005F0E3FA474D0320286080202860382053
:105CC00028603D202860C12068602C6950A12246D0
:105CD000564806F0BBF9554805F0CFFAE007F4D076
:105CE00000206946AA688300401CCA500428F9D9DC
:105CF000D7E730B585B0FFF79BFBAEA005F0BDFA46
:105D0000344D042028600A202860AA202860002042
:105D100028603C2068602C693DA12246434806F07B
:105D200095F9424805F0A9FAE007F4D00020694649
:105D3000AA688300401CCA500428F9D9B1E730B5DD
:105D400085B0FFF775FBA5A005F097FA214D04205B
:105D500028600A202860AA202860012028603C20B2
:105D600068602C69224647E1C013B400C003B40048
:105D70000A00010040000180000004808813000038
:105D8000E079180818232500ABAAAA033D63080E82
:105D90003D63D90FE0791818A07700000002048055
:105DA00098180000000104A00A20535049206D7388
:105DB00067203020636F6D6D616E642E2E456E61BD
:105DC000626C6520506F7765722E2E2E2E2E2E203F
:105DD00020200000000004A00A20535049206D73C9
:105DE00067203220636F6D6D616E642E2E2E5365B9
:105DF0007420504C4C2D436C6F636B20436F6E745A
:105E0000726F6C732E2E2E2E2E202020000000008C
:105E1000200A205350495374617475732E2E2E2E10
:105E20002E2E2E2E3078253034782000A2010060EE
:105E30000A20535049206D7367203020636F6D6DC9
:105E4000616E642C207265616420726620726567E1
:105E5000697374657220302E2E2E2E2E2E20202057
:105E600000000000200A20524620726567697374A2
:105E70006572206279746520253064203D20307879
:105E800025303478200000000A2053504920525415
:105E9000432053746174757320696E7175697279EA
:105EA0002E2E2E2E2E2E2E2E202020000A09436864
:105EB00069705F566572093D0925690A0000000096
:105EC000095254435F537461747573093D09256920
:105ED0000A000000094D66675F494409093D09252C
:105EE000690A00000950726F645F494409093D095D
:105EF00025690A00095665725F494409093D09256B
:105F0000690A0000095265765F494409093D09257F
:105F1000690A00000A205254432053746174757357
:105F2000207265616420676F6F642E2E2E2E2E20E6
:105F3000000000000A2052544320537461747573AA
:105F4000207265616420626164202A2A2A2A2A2A32
:105F50002A2A2A2A2A2A2A2A2A2A2A2A2A2A2A2AA1
:105F60002A2A2A2A2A2A2A2A2A2A2A2A2A2A382A83
:105F7000200000007EA600000A20535049206D73C7
:105F800067203320636F6D6D616E642E2E2E536516
:105F900074205443584F20616E6420467261632D13
:105FA0004E20636F6E74726F6C732E2E2E2E2E2009
:105FB000202000000A20535049206D6573736167EB
:105FC0006520342E2E2E2E2E52756E2056434F20D5
:105FD00063616C2E2E2E2020200000000A205350DA
:105FE00049206D6573736167652034612E2E2E2EF6
:105FF0002E2E2E2E20202000BAA1C14806F026F811
:10600000BF4805F03AF9E00700D1AAE6002069464A
:10601000AA688300401CCA500428F9D941E630B56B
:1060200085B0FFF705FAB7A005F027F9BF4D0420AA
:1060300028600A202860AA202860002028603C20D0
:1060400068602C69A7A12246AD4805F0FFFFAC4867
:1060500005F013F9E007F4D000206946AA68830030
:10606000401CCA500428F9D91BE610B586B0FFF7CA
:10607000DFF9AFA005F001F9AC49042008600A205F
:106080000860AA200860402008603C204860086939
:10609000C007FCD000206A468B688400401C135166
:1060A0000428F9D93BE510B586B0FFF7C1F9AAA0DD
:1060B00005F0E3F89D49042008600A200860AA2042
:1060C000086000200860BC2048600869C007FCD058
:1060D00000206A468B688400401C13510428F9D9BB
:1060E0001DE510B586B0FFF7A3F9A8A005F0C5F827
:1060F0008E49052008600020086032200860AA2030
:10610000086048600869C007FCD000206A468B68B8
:106110008400401C13510428F9D900E510B586B05D
:10612000FFF786F9A7A005F0A8F8804906200860C7
:1061300004200860082008600020086007204860EC
:106140000869C007FCD000206A468B688400401CA8
:1061500013510428F9D9E2E410B586B0FFF768F9C5
:10616000A5A005F08AF871490720086000200860A2
:1061700008600860822048600869C007FCD00020E1
:106180006A468B688400401C13510428F9D9C6E480
:1061900010B586B0FFF74CF9A3A005F06EF863497F
:1061A00007200860002008600860086082204860BE
:1061B0000869C007FCD000206A468B688400401C38
:1061C00013510428F9D9AAE410B586B0FFF730F9C5
:1061D000A1A005F052F8554907200860002008608A
:1061E00008600C200860B22048600869C007FCD035
:1061F00000206A468B688400401C13510428F9D99A
:106200008DE410B586B0FFF713F99BA005F035F8C3
:1062100046490A20086037200860B520086012202F
:106220000860232048600869C007FCD000206A4647
:106230008B688400401C13510428F9D96FE410B511
:1062400086B0FFF7F5F898A005F017F837490B204E
:106250000860802008600860086048600869C0071E
:10626000FCD000206A468B688400401C135104282F
:10627000F9D954E410B586B0FFF7DAF891A004F02C
:10628000FCFF2A490C2008600020086008600860B4
:10629000132048600869C007FCD000206A468B685C
:1062A0008400401C13510428F9D938E410B586B095
:1062B000FFF7BEF890A004F0E0FF1C490D20086035
:1062C0000020086008600860132048600869C00763
:1062D000FCD000206A468B688400401C13510428BF
:1062E000F9D91CE4200A2053504953746174757322
:1062F0002E2E2E2E2E2E2E2E307825303478200065
:10630000A20100600A20535049206D6573736167D4
:10631000652034622E2E52756E2052432063616CCC
:106320002E2E2E2E2E2E202020000000000004A055
:106330000A20535049206D6573736167652034638B
:106340002E2E52756E2052432063616C2E2E2E2EFF
:106350002E2E2020200000000A20535049206D6579
:1063600073736167652034632E2E456E61626C65C0
:106370002056434F207265706561742063616C2EF6
:106380002E2E2E2E2E202020000000000A205350FA
:1063900049206D65737361676520352E2E4C50461C
:1063A000207472696D20616E6420414443207265DF
:1063B000736F6C7574696F6E2E2E2E2E2E2E20200C
:1063C000200000000A20535049206D6573736167F7
:1063D0006520362E2E4C4E4120706F7765722064FA
:1063E000657420616E64204950322063616C2E2EEA
:1063F0002E2E2E2E202020000A20535049206D657D
:10640000737361676520372E2E52756E2044434F9B
:106410004320616E6420667265657A652E2E2E2E8D
:106420002E2E2020200000000A20535049206D65A8
:1064300073736167652037612E2E52756E20444359
:106440004F4320616E6420667265657A652E2E2E3C
:106450002E2E2E20202000000A20535049206D654A
:1064600073736167652037622E2E2E2E2E2E2E2EF0
:106470002E202020000000000A20535049206D6586
:10648000737361676520412E2E2E2E536574204D47
:106490006978657220436F6E74726F6C732E2E2E46
:1064A0002E2E2020200000000A20535049206D6528
:1064B000737361676520422E2E2E2E2E2E2E2020E5
:1064C000200000000A20535049206D6573736167F6
:1064D0006520632E2E2E474C4F2041474320766186
:1064E0006C7565732073657420746F204D696E2E12
:1064F0002E2E2E20202000000A20535049206D65AA
:10650000737361676520442E2E2E2E2E2E2E202092
:106510002000000070B5384C364860603748A060F5
:106520003748E0603D200001206136486061FF206F
:106530000130A061304800254038C560102101615C
:106540004901416130486061304860601E2004F0BC
:1065500055FE2F486061E0698006FCD5282004F0D4
:106560004DFE2C4860601E2004F048FE2A48606002
:10657000FF202D3004F042FE284860602560294944
:106580002748C86070BD70B51B4E002535600A20D5
:1065900004F034FE244921204860174C2348803CF5
:1065A000206023486060F020A060322004F026FEC6
:1065B0001E48E03020602561322004F01FFE1020CC
:1065C00020610001B0616069C005C20E606919A157
:1065D0008004C40E214805F039FD204804F04DFE2A
:1065E00022461FA11D4805F031FD1C4804F045FE60
:1065F00070BD00002040CD10800005A000006501A6
:10660000000059060041200000012000904C4D116F
:1066100000052000904C4511904C4111904C4113C5
:106620000A00010040000180000001A010000200EB
:1066300020224404200A204144435F4920726561BE
:10664000645F535441545553205B383A345D203DC8
:1066500020307825303878200000000034020060B7
:10666000200A204144435F5120726561645F5354A6
:1066700041545553205B31333A395D203D20307809
:106680002530387820000000704710B5234C244A8C
:1066900062602161C00103210904084360616068F0
:1066A000C00760680DD0C006400F10D062681DA101
:1066B000244805F0CBFC234804F0DFFD0020C04354
:1066C00010BD8007EBD520A004F0D7FDE7E701203F
:1066D00010BD10B5114C12496160C001491C08433E
:1066E00060616068C00760680DD0C006400F10D0C0
:1066F00062680CA1134805F0A9FC124804F0BDFD26
:106700000020C04310BD8007EBD50FA004F0B5FDFD
:10671000E7E7401CFF28FCD9206910BD000002A05B
:10672000FFFF000020200A20537065656479205423
:1067300078206572726F72203D20253038782020D5
:10674000200000000C01006020200A2053706565C5
:10675000647920524620492F4F2074696D65206F5F
:106760007574202020202020000000000CB500209F
:1067700000900190FE480121490302680192009AAD
:10678000521C00928A42F8D90CBD10B5202103207A
:1067900080070160F7494160F74A8260F749C160AC
:1067A000F74B0361F74B4361F74B8361F74B036290
:1067B000F74B8362F74BC362F74B0363F74B4363BB
:1067C000F74B83634308C363F74BF6481860F648FA
:1067D000F64B40300360F64B8360F64BC360F64BDC
:1067E000836141235B04C361430B03620123436262
:1067F000ED4880300160F1494160F1498160EF4925
:10680000C91C8161ED49E8481031C0308160ED4913
:10681000C160ED488C1C04604362EB48403001606D
:1068200009144160C91C8161E948E8494161C261BC
:10683000E84901620B214902416210BD0320E6498B
:1068400080070160E5494160E5498160E549C16033
:10685000CB4A0261CB4A4261CB4A8261E24A026280
:1068600000224262E14A8262CA4AC262E04A02638C
:10687000432212014263DF4A82630D221207C26380
:10688000C94ADD481060C848DC4A403002604022F6
:106890008260DB4AC260DB4A8261DB4AC26103225A
:1068A0004262C14880300160D8494160D74983398C
:1068B0008160D7498161D749C161D749016205210A
:1068C00049058162C162D149BF4813318038816076
:1068D000D249C160BC488A1C026001224262BA48A7
:1068E0004030016009144160C91C81617047032078
:1068F000B94980070160CA494160A449DE3181601D
:10690000C849C1609E4A02619E4A42619E4A8261B4
:10691000C54A026201224262B44B83629D4BC3624C
:10692000C24B0363C24B43634123DB0183630D23EB
:106930001B07C363B0489C4BFE3018609A48BD4BA0
:106940004030036081239B018360AD4BC360BA4B31
:10695000836151239B04C3610B231B0403624262C6
:10696000914880300160B549416023218160B3497D
:10697000C91C8161A84901627047032096498007BC
:1069800001609649491E4160AD498160AD49C160D1
:106990007B4A02617B4A42617B4A8261924A02627F
:1069A000A94A4262A94A82627A4AC262A84A02633A
:1069B000432212014263C21582638210C2637A4A83
:1069C0008D4810607848A34A40300260A24A826035
:1069D000A24AC2608B4A8261A14AC261032242621A
:1069E0007148803001607E49AA314160874983390E
:1069F00081609C4981619C49C1618749016205218F
:106A000049058162C1628E496F48BD31803881601D
:106A10009649C1606C488A1C0260012242626A4841
:106A20004030016009144160C91C8161914890495E
:106A3000016091494160914981609149C1600021A3
:106A40000161904941610914C1618F49016290213E
:106A50004162704700208D4A05210902D368401C1D
:106A60008842FBD97047F0B5FFF741FF884B84207F
:106A7000586101279F610020986186494860854AD6
:106A80008549803211618549516185499161824909
:106A90005162844991628249D162844A8249116378
:106AA00003245463824DD563804940310C607F4A92
:106AB000804E803296630526D6637F268E610D62F6
:106AC0004C620E638D63CC639660156154617749A7
:106AD000794AC031CA600B2212020A614A617749C1
:106AE000086148618861C861086248628862C8625A
:106AF000684A73491160674A724980321160724A6C
:106B0000D0639063704E0B214036316018626E493D
:106B10003B0440390B604B608F606B4D1023803D10
:106B20002B606860A860A863176268485062801F85
:106B30007060A0020862486265488862FFF716FE2E
:106B40002C60F0BDF8B55E495C480A314163012014
:106B50006049400500230860FFF770FE4C4984201F
:106B60004861012088618B614A4C63600D20B3E06D
:106B7000000104800B00880C091D00000933093650
:106B8000010342D003000300CD07FE3F2B0A0000A3
:106B9000FF033F00FF03EC03FF0100022206000099
:106BA000800002001D4D600B400000C015361536F8
:106BB00045310300000A1400780802001536000071
:106BC0002822000025362736800100C0091D091D36
:106BD00000E800C080B00200200050001000C80C87
:106BE000091E0000091E8920010A1900FF03FF0386
:106BF000FF03002080F81F00C2010B0C8F209220A1
:106C00000004040014010101020084008F20000030
:106C10009520100000A0E2573A010A00A220A4200B
:106C20007008880C090B890D040A5802FF03000044
:106C300026080000CB0DCB0D64050600CB0D00002F
:106C4000091E0040991EAD1E00FF0100FF03070052
:106C50001F000321B31EB61E51500000280005007E
:106C600002008402B91E10001E78F257C61EC81E0C
:106C7000DBD026BE00F000C03FC489C7109EA239F9
:106C8000CABECB88091E091E08100100000004803E
:106C9000800003A0000001A080270100FDC00C00BF
:106CA0007F5C0F00BAF6E0FFCD843117000101A030
:106CB000CD84E40E0658040000060A00400401A03A
:106CC000F5FF000001020000800800A0737F0000B3
:106CD0000030C07F00E100E0FE49C0010861FE48CD
:106CE0004861FE4888610D20C00148628B62FB4804
:106CF000C862F849FA488031086303254D63C863C8
:106D0000F449C0310D60F849F6484863F748886394
:106D10000520C863F4497F2040398861F24AF04970
:106D2000403A1162032151621063ED4991630321DE
:106D3000D163ED498860EA48086103204861EA4868
:106D4000EB4A4030C26020210162EB4FE94E3E63C6
:106D500002610F22520242613B617B61BB61FB61B8
:106D60003B627B62BB62FB62E4482060D948016001
:106D7000E349CB638B63E24EE24840363060E24841
:106D800003620122DE485204403802604260012260
:106D90008260DB4C1022803C22606360A360A363AE
:106DA00001220A62D94A4A62911F7160A9020162F6
:106DB0004162D7498162D7488068D6491E308A68C7
:106DC0008242FCD3CC48826BD3A1DA4805F03EF96D
:106DD000D84804F052FA2560F8BD704770B5CA492A
:106DE0008420486101248C6100208861B949803980
:106DF00048600D21B74A09021161B7495161B7498D
:106E000091610D21090251629062B449D162B14988
:106E1000B34A80310A6313234B63CA63B2494039D2
:106E20000B60B14AAF4D5563C34D95630525D563DE
:106E30007F258D61C14E0E624B620D638E63CB6305
:106E4000956016615361A849A94A4031CA600F2272
:106E500052020A614A61A849086148618861C861B3
:106E6000086248628862C8629A4AA449803A1160FE
:106E7000984A21021160A24AD0639063A049403130
:106E800008609F49630440390B604B608C609C4BE9
:106E90001025803B1D605860986098631462A84B71
:106EA000536208624862A748886270BDF8B592488C
:106EB000A549416394498420486101238B610020E6
:106EC0008861844E803E7060824AA0491161A04969
:106ED0005161824991619D4951629E4991627F4908
:106EE000D1627C4A9C4980321163132151637C49F1
:106EF000D1637D49132240390A607B4A794C54633F
:106F00008D4C94630524D4637F248C618B4D0D627A
:106F100013274F620C638D63CF63946015615761D3
:106F20007149734A4031CA60FF242134CC61724DEB
:106F3000704C2C630A610F2252024A612861686119
:106F4000A861E86128626862A862E862FF21D43122
:106F5000316043215F4AC90011606949C863886391
:106F6000674A40321060664A5C04403A14605460DC
:106F70009360634D803D6860A860A8630B627048B1
:106F80004862B00080681E30B400A1688142FCD322
:106F90005948826B60A1674805F058F8654804F0CD
:106FA0006CF903202860A068401DA1688142FCD3D1
:106FB000F8BD70B5504964484863FFF7DEFC52499C
:106FC0008420486101248C61002088614149803916
:106FD0004860404A0221803AD161604991623D4A4D
:106FE0005F49403A51603B4A5849116158495161E3
:106FF0003A49916155495162564991623749D16286
:107000003449554A80310A6313234B63344ACA63B7
:10701000354940390B60344A324D5563464D9563CE
:107020000525D5637F258D61444E0E624B620D634D
:107030008E63CB639560166153612B492C4A4031B6
:10704000CA60FF232133CB612B4D2A4B2B630A618E
:107050004A6128616861A861E86128626862A86283
:10706000E862FF211B4AD431803A1160194A282175
:1070700011602349C8638863214A40321060204A66
:107080005B1C403A1360536094601D4A803A506024
:10709000906090630C622A4848621E4881681E31E5
:1070A00082688A42FCD30B488038C16AC907FCD089
:1070B00070BDF0B5FFF761FC1349842048610123DE
:1070C0008B6100208861034980394860014A1F496B
:1070D000116147E0800001A055471F007F5C0F0051
:1070E000CD84E40E03140000800101A006580400C2
:1070F00000063000FFFF0100400401A005F0000081
:10710000800800A03FFDF4F3800003A0337F00005F
:107110000030C07F00000480204953505F42455F2B
:107120004952515F53544154203D2030782025303E
:10713000387800003402006002540400CD04403866
:1071400033BF00000030C0BFFFFF0000002F02006F
:10715000FDC00C00BAF6E0FFCD843117F4415300B6
:107160003FF00200FE495161FE499161FE495162C2
:10717000FE499162FB49D162FE49FD4A0A6313222E
:107180004A63FD4CCC63FB4940310A60F949FB4C32
:1071900080314C63FA4C8C630524CC63F54D7F241D
:1071A0004035AC61F34EF74D4036F561F14FF64E88
:1071B00040373E627A623C637D63BE63FA638C60F3
:1071C000CD600E614A61EB4AF049C032D160116175
:1071D0005161EF49086148618861C861086248628D
:1071E0008862C862FF21EB4AD4311160E14A59023A
:1071F000803A1160E849C8638863E74A403210600A
:10720000E54A5C04403A146054609360E24C803C70
:107210006060A060A0630B62E0484862FFF7A6FAD6
:1072200003202060F0BDF0B5FFF7A7FBDC49842008
:10723000486101238B6100208861D6494860CD4AAE
:10724000C949803A1161C6495161C6499161C6492F
:107250005162C6499162C349D162C649C44A0A63B0
:1072600013224A63C44CCC63C24940310A60C1490D
:10727000C24C80314C63C24C8C630524CC63BD4D41
:107280007F244035AC61BF4FEF61BA4EBE4D4036F2
:10729000356272623463B563F2638C60CF600D61F6
:1072A0004A61B44AB949C032D16011615161B849EB
:1072B000086148618861C861086248628862C86282
:1072C000FF21B44AD4311160AA4A5903803A1160AF
:1072D000B149C8638863B04A40321060AE4A5C046A
:1072E000403A146054609360AB4C803C6060A06096
:1072F000A0630B62A9484862FFF738FA03202060B8
:10730000F0BD70B5FFF739FBA54984204861012520
:107310008D61002088619F494860964A9249803A71
:1073200011618F4951618F4991618F4951628F4934
:1073300091628C49D1628F4A8D4911638D49132224
:107340004A638C4B8C49D9638A4940310A60894928
:107350008A4B80314B638A4B8B630523CB63854C0F
:107360007F234034A361834E864C4036F4610B6228
:107370004C62854C346272623363B463F2638B6037
:107380000C614A617B49814BC031CB600F225202B4
:107390000A614A618B617E49086148618861C86100
:1073A000086248628862C862FF217A4AD43111605B
:1073B00070496A0480390A607749C8638863764BEC
:1073C00040331860744B403B1A605A609D60724CA9
:1073D000803C6060A060A0630D6270484862FFF767
:1073E000C5F90320206070BD704770B56C488421DA
:1073F00041610123836100248461664844606549DA
:10740000684888600720C8601F200861CC61614916
:107410006548403148600D205649000280390861B6
:10742000624848614F4888610D20000248628C62C2
:107430004C48C8624F485049016313224263C163FC
:107440004C48403002604B494C4D80314D634C4DAF
:107450008D630525CD637F258561554E06624262A9
:1074600005638663C2638D600E614A614148474986
:10747000C030C16001610F2149024161816144480E
:10748000046144618461C461046244628462C462D0
:10749000FF204049F6300860364946488039086088
:1074A0003D49CC638C633C4A4348403210603A48C3
:1074B0005A044038026042608360374A1025803A9F
:1074C00015605460946094630B62344A4A620462AB
:1074D00044623A498162FFF749F9264880380460DE
:1074E00070BDF0B52E4B8420586101259D610020B0
:1074F0009861284A032191632549314A0A63254A44
:107500005060244C274AA2603722E2601B2222618D
:10751000E0612C4AA2621F4C234A40346260154A43
:10752000803AD0603522134C5201803C2261264AB9
:1075300062610C4AA261254A6262254AA262094A36
:10754000E262A063E0630B4A403A1060D0601061D1
:10755000506110625062906250639063D06339E072
:10756000FDC00C007F5C0F00002F0200BAF6E0FFA8
:10757000CD843117000101A0CD84E40E0314000076
:107580000254040027FE0200CD04403800063000FB
:10759000400401A0000001A0800800A033BF00004B
:1075A000800003A0FA1784039440060055471F008B
:1075B000CD040000080A00003FFDF4F30030C0BF16
:1075C000FFFF0000F4817000BA180300207A010068
:1075D0003BB92100FE4A9060D0601061D06110621A
:1075E0005062FC4E1663FA4C11226263FA4AE2635F
:1075F000F74C112240342260F74AA2601122E26067
:10760000F34CF64A80346263F54AA263F04A0524DB
:107610008032D463EE4AC0321460ED4F7F2440378D
:10762000BC6178613E6211267E623C63F862EA4E7C
:10763000BE631126FE63E64E8036B4607060306132
:10764000E34F102680377E613C62F861B862FE62CB
:1076500003246402D4601461E24C54610F24640278
:107660009461C860086148618861C86108624862C5
:107670008862C862FF21DC4AFA3111600321D44AD2
:107680008903803A1160D94AD0639063D74F40375D
:10769000B860D74939601862D4496B0440390B602F
:1076A0004B608D60D14C803C26606060A060A06320
:1076B0001562D0485062801F786003208002086203
:1076C0004862CD488862FFF751F803202060F0BD82
:1076D000F0B5CA488421416101218161C749002078
:1076E0008861C14C0321A163C649C54A0A63606031
:1076F000C549A1600721E1601F212161E061C34903
:10770000A162B94AC24940325160B14B803BD86056
:10771000352149011961BF495961BF499961BF4983
:107720005962BF499962BC49D9629863D863A84934
:1077300040390860C8600861486108624862886230
:1077400048638863C863A2498860C8600861C861EB
:10775000086248629F4A0A6311224A639E4ACA63CA
:107760009B49112240310A6088601022CA60984A01
:107770009A4D803255639A4D95630525D5632E4603
:10778000934DC0352E607F268E614861914F0F6208
:1077900011274F620E63C8628F4F8F631127CF632B
:1077A000966050601061102151611662D061906244
:1077B000D16203214902E9608A4929610F21490206
:1077C0006961A9618F49C860086148618861C861C1
:1077D000086248628862C862FF21F63121609149DF
:1077E0001960824AD0639063804B4033986080492F
:1077F00019608249086201247C49640440390C60A4
:107800004C6001248C60794C1025803C25606060C0
:10781000A060A0630120106276485062801F58600B
:10782000032080020862486273488862FEF79EFF68
:1078300003202060F0BD10B5FF206B4901300860C7
:107840006E484021803881604A05C260C21742619B
:107850004162016041684906FCD481694906FCD552
:1078600066484038426870A17F4804F0EFFB7E48CC
:1078700003F003FD10BD70B50024FF205A4901300C
:1078800008607A494C615D4DFF26803DAE600E2058
:10789000E860C8176861012068622860FBF749FD4D
:1078A000680D641C8442FCD36868C007FCD1A869D9
:1078B000C007FCD0EA6A6EA16B4804F0C7FB6A48B7
:1078C00003F0DBFC7A480078800708D579487844D3
:1078D00003F0D3FC7649022080310860AE6070BDB1
:1078E00070B5002401206149800248613E49801042
:1078F0000860424D4020803DA86007214906E960AC
:10790000611E696168622860FBF713FD680D641CE5
:107910008442FCD368684006FCD4A8694006FCD5C4
:1079200036484038426864A14F4804F08FFB4E4807
:1079300003F0A3FC70BD10B50020FF212A4A0131DD
:1079400011606D4A50604A002C4980398A60E023FA
:107950000B61431E4B614A620A60401C6428FCD3E1
:1079600048688005FCD488698005FCD523484038E8
:10797000026962A13C4804F069FB3B4803F07DFCCE
:1079800010BD0020FF21184A013111601B49FF235F
:1079900080398B60694A0A60421E4A6101244C6248
:1079A0000C60401C6428FCD34868C007FCD1C86A3E
:1079B00012484038C2618B600020C8604A61402094
:1079C000486208600020401C6428FCD38869B7E046
:1079D000000101A0CD845511CD84610F0314000076
:1079E0000658040000063000000001A0800800A036
:1079F0003FFDF4F3B38E00000030C08F800003A081
:107A0000FFFF0000400401A0FA178403F481700016
:107A100094400600BA1803007F5C0F00207A010032
:107A20003BB92100080A0000200A2073796E6336F2
:107A30002C3438466F20636C6F636B20646F6D610C
:107A4000696E2C20696D6D65642053572D696E3009
:107A500020636170747572652076616C7565202590
:107A60003038782020200A00340200608000018035
:107A7000200A2073796E63302C57434C4B20636C83
:107A80006F636B20646F6D61696E2C20696E3620A8
:107A900052544320616C61726D3120747269676762
:107AA0006572656420253038782020200A000000A7
:107AB00000E200E0CE8A0000200A2073796E63366F
:107AC0002C3438466F20636C6F636B20646F6D617C
:107AD000696E2C20696E362052544320616C6172AD
:107AE0006D3120747269676765726564202530386E
:107AF000782020200A00000080F4FFFF200A207375
:107B0000796E63392C3438466F20636C6F636B2059
:107B1000646F6D61696E2C20696E3620525443206B
:107B2000616C61726D31207472696767657265643A
:107B300020253038782020200A000000080080002E
:107B4000400600D442E7EFA003F097FBFBE710B537
:107B50000020FF21F74A01311160F74CFF21A1609D
:107B6000D101E160411E6161202161622160401C00
:107B70006428FCD36068800608D56268EFA1F948E4
:107B800004F064FAF74803F078FBF3E7A069800695
:107B9000FCD5E94840300468F34922467944F1486D
:107BA00004F054FAEF4803F068FB204610BDE248A9
:107BB00010B504218030816100218161FEF7D6FD7E
:107BC000FF20DC4901300860DB48FF218160012192
:107BD000C905C1602021016041688906FCD4D64AEC
:107BE0004032116803231B03C9185162DF498160C9
:107BF000D117416101218903016041684904FCD426
:107C0000DBA003F03AFB10BD10B5FF20C9490130DD
:107C10000860C94CC917A1600020A0600822E2607A
:107C200061616061012060622060A069C007FCD0D2
:107C30006268DFA1CB4804F009FACA4803F01DFBD3
:107C4000E26AE5A1C74804F001FAC64803F015FB53
:107C500010BD10B5EF4A0020116807231B0299439D
:107C6000FF31FF31023111600121B24AC9031160B5
:107C7000E94A116905239B0419401161AE4CFF21AB
:107C8000A1600021A160120DE260421E626161618B
:107C900004216162401CFF28FCD90020FF22013230
:107CA000401C9042FCD92160A0694007FCD5626865
:107CB000DAA1AC4804F0CAF9AA4803F0DEFA626B14
:107CC000E0A1A84804F0C2F9A64803F0D6FA10BD16
:107CD0001CB5002400940194FFF796FF9648611E9E
:107CE000816084600822C2604161446101210160B9
:107CF00000940099491C00916429FAD3FF210131B5
:107D00000194019A521C01928A42FAD94168C9072A
:107D1000FCD1C16A032212028918874A4032D1611C
:107D20000121090301604168C904FCD4D5A003F016
:107D3000A4FA1CBD10B5B74AE24900201160B64A4A
:107D4000E1491161D10D7B4A11607B4CFF22A26099
:107D5000A060CB00E360431E636160610422626245
:107D6000401CFF28FCD90020401C8842FCD922601E
:107D70006068400708D56268A8A17A4804F066F9EF
:107D8000784803F07AFAF3E7A0694007FCD5626807
:107D9000A2A1744804F05AF9724803F06EFA626BBB
:107DA000A8A1704804F052F96E4803F066FA10BDBD
:107DB00010B5984AC34900201160974AC349116120
:107DC0005D4C411EA160A060E06005214903216176
:107DD000110D6162610DE161BD49A160BD49216084
:107DE000401CFF28FCD90020FF210131401C8842A3
:107DF000FCD96068400708D5626888A1594804F03A
:107E000025F9584803F039FAF3E7A0690005FCD5D5
:107E10006268B1A1534804F019F9524803F02DFAF1
:107E2000454840308269B64979444E4804F00EF91D
:107E30004C4803F022FA10BD10B50020FF213D4A46
:107E400001311160AF4B02221A603B4CFF22A2604D
:107E5000A060CB00E360431E636160610422626244
:107E6000401CFF28FCD90020401C8842FCD922601D
:107E70006068400708D5626868A13A4804F0E6F8EF
:107E8000384803F0FAF9F3E7A0694007FCD56268C7
:107E900062A1344804F0DAF8324803F0EEF9626B7C
:107EA00068A1304804F0D2F82E4803F0E6F910BD7E
:107EB00010B50020FF211F4A01311160564B924A34
:107EC0001A611D4CFF22A260A060CB012361431EFA
:107ED00063616061CA006262401CFF28FCD9002017
:107EE000401C8842FCD922606068000508D56268A1
:107EF0004AA11C4804F0AAF81A4803F0BEF9F3E7B7
:107F000004E10000200A2053796E63362C20616C56
:107F100061726D30202D696E342049525120736595
:107F2000742E2E2E2E2E2E2E2E2E2E2E2E2E202047
:107F3000200A0000000001A0000003A0200A207316
:107F4000796E63352C2020474E53535F54494D5F63
:107F500043544C5F535441203D2025303878202035
:107F6000200A00003402006048880000FFFF000083
:107F7000200A2020416C61726D203220736F75726F
:107F80006365207472696767657265642C20343894
:107F9000666F20636C6F636B20646F6D61696E2E1A
:107FA0002E2E2E2E2E2E2E2E2E2E2020200A00009B
:107FB000200A2073796E63302C2020474E53535F84
:107FC00054494D5F43544C5F535441203D2025306C
:107FD00038782020200A0000200A2073796E633050
:107FE0002C2057434C4B20646F6D61696E2C2069C7
:107FF0006D6D65642053572D696E302C2063617060
:10800000747572652076616C75652025303878202E
:1080100020200A000001048040000180200A207313
:10802000796E63322C2020474E53535F54494D5F85
:1080300043544C5F535441203D2025303878202054
:10804000200A0000200A2073796E63322C206578A4
:10805000743120636C6B20646F6D61696E2C2069D4
:108060006D6D65642053572D696E302C20636170EF
:10807000747572652076616C7565202530387820BE
:1080800020200A00200A2020416C61726D203020DF
:10809000736F757263652074726967676572656472
:1080A0002C2057434C4B20636C6F636B20646F6DC7
:1080B00061696E2E2E2E2E2E2E2E2E2E2E2E20204E
:1080C000200A0000528AA401B7610575B7619F7547
:1080D000FFFFFF0700088001200A2073796E6331DB
:1080E000312C2020474E53535F54494D5F43544C2D
:1080F0005F535441203D20253038782020200A004D
:108100000086000000F1FFFFFFE14575A069000552
:10811000FCD56268F4A1FE4803F098FFFC4803F028
:10812000ACF8FC488269FC497944F94803F08EFFB9
:10813000F74803F0A2F810BD10B50020FF21F74A60
:1081400001311160F64B5860F24CFF23403CA360B4
:10815000A060CB012361431E63616061CA0062625B
:10816000401CFF28FCD90020401C8842FCD922601A
:108170006068000508D56268EAA1E54803F066FF7B
:10818000E34803F07AF8F3E7A0690005FCD56268DC
:10819000D5A1DF4803F05AFFDD4803F06EF8DD4853
:1081A0008269DD4979443439D94803F04FFFD84812
:1081B00003F063F810BD30B50320E4498007016087
:1081C000E3494160E3498160E349C160E34A0261F8
:1081D000E34A4261E34B8361E34C0462E34C846213
:1081E000E34C0463E34C44634124E40184634400AE
:1081F000C463E24CE0482060E048E14C4030046059
:10820000E04C4460FF2446348460DF4CC460DF4CA3
:108210008461DF4DC56103250562D8488030016067
:10822000DC494160DC498160DC498161DC49C16134
:10823000DC490162052149058162C162CF48DA4902
:10824000C0300160D9494160D24913318160D849B9
:10825000C160D84D0561426183614203C261D64A63
:108260000262D64A8262D64AC262D64A02631122AA
:1082700092014263C84A623A82630F221207C263C4
:10828000BD48D14A401C1060CF48D04A40300260FF
:10829000CF4A8260CF4AC260CF4A42618461CF4AEE
:1082A000C26129224262C84880300160CC494160E5
:1082B000CC498160CC498161CC49C161CC49016222
:1082C000810A8162C16230BDF0B5FFF774FF914B46
:1082D00084204033586101269E61002098618F4AB6
:1082E0000F219163C44AC34911638C4948608B498B
:1082F0008031C8600D21894AC90180321161BF49AE
:108300005161BF4991610D21C90151629062BC491F
:10831000D1629063D0638149C0310860C860086150
:10832000486108624862886248638863C863B549E7
:108330008860C8600861C86108624862B14AB24991
:10834000116303245463D163AE4940310C60AD49DD
:10835000AE4A80314A63AB4D40352C604A63AC4A2B
:108360008A630522CA637F22AA616861A54FA94D6D
:1083700040373D627C623A63F862BD63FC638A60A9
:1083800048600D614C619F49A34AC031CA600F2209
:1083900052020A614A619849C860FF215F4AF4317C
:1083A00011605E4A2021803211609C4AD063906344
:1083B0009A4F9B494037B9606F49C9433960186289
:1083C0009649B30440390B604B608E60934D102387
:1083D000803D2B606860A860A86316629148506277
:1083E000801F7860A002086248628F488862FEF7AA
:1083F000BDF92C60F0BD8E488C4901608D4941600B
:108400008D4981608D49C1608D4901618D4941610E
:108410008D4981618D49C1618D4901628D494162FA
:108420008D4981628D4981628D49C1628D490163A7
:108430008D4941638D4981638D49C1637C488D4974
:10844000403001608C4941608C4981608C49C16039
:108450008C4901618C4941618C4981618C49C161C0
:108460008C4901628C4941628C4981628C49C162AC
:108470008C4901638C4941638C4981638C49C16398
:108480006B488C49803001608B4941608B49816029
:108490008B49C1608B4901618B4941618B49816185
:1084A0008B49C1618B4901628B4941628B49816271
:1084B0008B49C1628B4901638B4941638B4981635D
:1084C0008B49C1635A488B49C03001608A49416079
:1084D0008A4981608A49C1608A4901618A4941614A
:1084E0008A4981618A4915E1200A2073796E6331D6
:1084F000312C2020474E53535F54494D5F43544C19
:108500005F535441203D20253038782020200A0038
:1085100034020060400003A048830000000001A076
:1085200000F1FFFF200A2073796E63322C20204770
:108530004E53535F54494D5F43544C5F5354412055
:108540003D20253038782020200A000020005402E9
:108550000F00C8040D1E00000D2A4D2B010342D050
:1085600003000300CD07FE3F020A0000FF037F0067
:10857000FF0103223004443DC0020B0C400000C048
:10858000532B562B0000C08D000A1400140101016A
:1085900002008400532B00000C200000592B08001F
:1085A00000A0E25706460A00400050000F00C80E27
:1085B0000E2C9E2D010302C0020A1900FF030700C2
:1085C000FF03EC031F000012400100C0A42DCD2DBD
:1085D00045311300A00014202AFD7C0C0200040287
:1085E000A42D00000C300000D02D10001E78E347B1
:1085F0003A010A00FFFF0000400401A055471F0098
:108600007F5C0F00000101A0CD84E40E0314000084
:1086100006580400CD04000000066000800800A099
:10862000ABAAAAAAB38D00000030C08FD5E59A7519
:10863000006E04C0689D1BEEF13504FCB52F01A847
:10864000CCB826991DB32EBD8ED5D7CBA77C9B6009
:10865000A4C7A07E25DEA7E106F00CB11C2E5C1697
:10866000766F5F1859B26127C57AED19BFC4E02C47
:10867000FABD085F0E48A66F826EC06CFA3332E70F
:10868000C69A244281E688DAC54E9432E4453C67B6
:10869000433E0A66C0A3658651D4CC225DA350ED4B
:1086A000BF43B96C3DBD3F072BB11071BF71857BD6
:1086B00092342A0CC9C350ED9662E403D8CC32C779
:1086C0006C51D7D2CD647EDD0869A2D0FB43EA9815
:1086D000EEEBF71E6B47113F071C5120181C3704A7
:1086E0008C24F1FA6B9AE38001C652B8E39836B154
:1086F0008988E3DA8AA3F0A13237C67BFDF97F5877
:108700009D02E6AC378CE1E4B6E753F4B542E140B4
:108710009E6A93DCC161FE490162FE494162FE49E5
:108720008162FE49C162FE490163FE494163FE491F
:108730008163FE49C163FF48FD490163FE4941630E
:10874000FE498163FE49C163FA48FE494030016039
:10875000FD494160FD498160FD49C160FD490161FC
:10876000FD494161FD498161FD49C161FD490162E8
:10877000FD494162FD498162FD49C162FD490163D4
:10878000FD494163FD498163FD49C163E948FD49F4
:1087900080300160FC494160FC498160FC49C16056
:1087A000FC490161FC494161FC498161FC49C161AD
:1087B000FC490162FC494162FC498162FC49C16299
:1087C000FC490163FC494163FC498163FC49C16385
:1087D000D848FC49C0300160FB494160FB498160D9
:1087E000FB49C160FB490161FB494161FB49816172
:1087F000FB49C161FB490162FB494162FB4981625E
:10880000FB49C162FB490163FB494163FB49816349
:10881000FB49C163FC48FB490160FC494160FC49DC
:108820008160FC49C160FC490161FC494161FC492E
:108830008161FC49C161FC490162FC494162FC491A
:108840008162FC49C162FC490163FC494163FC4906
:10885000816370470320FB4980070160FA4941604A
:10886000FA498160FA49C160FA4A0261FA4A4261F2
:10887000FA4A8261FA4A0262FA4A8262FA4A026358
:10888000FA4A42635F22D20182634200C263F94A1C
:10889000F7481060F748F84A403002600F2252064D
:1088A0004260F64A8260F64AC260F64A8261F64A3F
:1088B000C26103224262EF4880300160E3493A31ED
:1088C0004160F2498160F2498161F249C161F24936
:1088D0000162052149058162C162DC49E5484C31EC
:1088E000C0308160ED49C160ED488A1C0260012200
:1088F0004262EB484030016009144160891C81618B
:108900007047E948E7498160E849C160E849016189
:10891000E8494161E849C16109144162E74981625E
:10892000CD491D31C1627047DF48E5490160E54925
:108930004160E5498160E549C160E5490161E5497A
:108940004161E5498161E549C161E5490162E54966
:108950004162E5498162E5498162E549C162E549D3
:108960000163E5494163E5498163E549C163CE4857
:10897000E44940300160E4494160E4498160E449F0
:10898000C160E4490161E4494161E4498161E4492C
:10899000C161E4490162E4494162E4498162E44918
:1089A000C162E4490163E4494163E4498163E44904
:1089B000C163BD48E34980300160E3494160E34958
:1089C0008160E349C160E3490161E3494161E349F1
:1089D0008161E349C161E3490162E3494162E349DD
:1089E0008162E349C162E3490163E3494163E349C9
:1089F0008163E349C163AC48E249C0300160E249A8
:108A00004160E2498160E249C160E2490161E249B5
:108A10004161E2498161E249C1613D4901623D49EB
:108A200041623D4981623D49C1623D4901633D4921
:108A300041633D4981633D49C163DA483C49016076
:108A40003D4941603D4981603D49C1603D49016109
:108A50003D4941613D4981613D49C1613D490162F5
:108A60003D4941623D4981623D49C1623D490163E1
:108A70003D4941633D4981633D49C163C9483D4921
:108A8000403001603C4941603C4981603C49C160E3
:108A90003C4901613C4941613C4981613C49C161BA
:108AA0003C4901623C4941623C4981623C49C162A6
:108AB0003C4901633C4941633C4981633C49C16392
:108AC000B8483C49803001603B4941603B49816086
:108AD0003B49C1603B4901613B4941613B4981617F
:108AE0003B49C1613B4901623B4941623B4981626B
:108AF0003B49C1623B4901633B4941633B49816357
:108B00003B49C163A7483B49C03001603A494BE14A
:108B10007121ED03C395C3EF17D4BCCD7A6D4B73B0
:108B2000BD7FE0107FBB6E32C1992A4F3309226DA1
:108B30004A0B05B8C06F04C014BDD6B9BC9B2E301B
:108B4000759C554A9AFE3F48E45F1BED71F53F8CDA
:108B50007D29654C85555E06555A7990B0456DF472
:108B6000B6BDBFA3B06FD7879B2969987FD9C44092
:108B700024B13601B84B6B03F81F0456C903B54442
:108B80006399307237E52BBDCF364C62A54B4BCD88
:108B900019340671566BBD1B3A491674BD9327886C
:108BA000FED1FE21489C43A5B59EEE87787239E53B
:108BB0005CAAA179B5EF93438F4D51D652E30404DB
:108BC00098C400C6CCF8A31AE66A73851FE281CE6A
:108BD000052569B200833590A909A884A4250BA8AE
:108BE00049A3B243AA7AD8C5325E039C9CB2989E30
:108BF0007545FDDED454319D6B7491C83497C7CD53
:108C0000A40FC4357681E873C07004C0EAB5D2E41D
:108C100078DF30E8F4FD1F5F56E825096D3EE58DED
:108C2000FA615A5177CF6E8A65449C7041F52B18D2
:108C3000E3F52B516FBD4220243C5D285B855AA48F
:108C4000F63D8B1C200054020F00C80C091E0000CA
:108C5000291E3D1E010342D003000300CD07FE3F45
:108C6000010A0000FF0307001F0000103004440148
:108C7000C0020B0C400000C0431E461E40500000C6
:108C80002000040014010101020084020C200000F5
:108C9000481E080000A0F257044C0E00551E571E37
:108CA000800100C01C509B3800F000C0A03671400D
:108CB0006DE280DAC401B589091E091E0830000082
:108CC000D5E59A75689D1BEEF13504FCB52F01A81A
:108CD000CCB826991DB32EBD8ED5D7CBA77C9B6073
:108CE000A4C7A07E25DEA7E106F00CB11C2E5C1601
:108CF000766F5F1859B26127C57AED19BFC4E02CB1
:108D0000FABD085F0E48A66F826EC06CFA3332E778
:108D1000C69A244281E688DAC54E9432E4453C671F
:108D2000433E0A66C0A3658651D4CC225DA350EDB4
:108D3000BF43B96C3DBD3F072BB11071BF71857B3F
:108D400092342A0CC9C350ED9662E403D8CC32C7E2
:108D50006C51D7D2CD647EDD0869A2D0FB43EA987E
:108D6000EEEBF71E6B47113F071C5120181C370410
:108D70008C24F1FA6B9AE38001C652B8E39836B1BD
:108D80008988E3DA8AA3F0A13237C67BFDF97F58E0
:108D90009D02E6AC378CE1E4B6E753F4B542E1401E
:108DA0009E6A93DC00F100C04160FE498160FE498B
:108DB000C160FE490161FE494161FE498161FE4990
:108DC000C161FE490162FE494162FE498162FE497C
:108DD000C162FE490163FE494163FE498163FE4968
:108DE000C1637047F0B5FFF735FDFFF79DFDFFF755
:108DF00088FDFA498420486101238B610020886145
:108E0000F74A0F219163F84CF64921635060F74906
:108E10007F268E614861F64D0D6203244C620E631D
:108E2000C8628D63CC63F14940318E6048600D614A
:108E30004C61EE49EF4D8031CD600F256D020D6123
:108E40004D61D9031160E64AC91080321160EA4AC7
:108E5000D0639063E84EE9494036B160E84931603B
:108E6000E5495D0440390D604D608B60E24D10278F
:108E7000803D2F606860A860A8631362E14850627B
:108E8000801F7060A00208624862DF488862FDF7B8
:108E90006DFC2C60F0BD0320DC4980070160DC49DB
:108EA0004160DC498160DC49C160DC4A0261DC4A26
:108EB0004261DC4A8261DC4A0262DC4A8262DC4A4C
:108EC0000263DC4A42634122D20182634200C263F0
:108ED000DA4AD9481060D948D94A40300260D94AA4
:108EE0004260FF2246328260D74AC260D74A82611E
:108EF000D74AC26103224262D04880300160D5491E
:108F00004160D5498160D5498161D549C161D54963
:108F10000162052149058162C162CE49C74813310A
:108F2000C0308160D049C160D04A881C1060CF48F1
:108F30004030016009144160C91C81617047032001
:108F4000CB4980070160B249491F4160B149816046
:108F5000C849C160B14A0261B14A4261B14A826105
:108F6000052252020262B14A8262C34A8262C34A45
:108F70000263C34A42637922D20182634200C26320
:108F8000AE4AC0481060AD48BF4A40300260AD4AAA
:108F90004260FF2246328260BC4AC260AB4A8261B4
:108FA000AB4AC26103224262A44880300160B849E2
:108FB0004160A9498160B7498161A949C161A94955
:108FC0000162052149058162C162B149A748133197
:108FD00080388160B049C160A4488A1C02600122C7
:108FE0004262A2484030016009144160C91C81619D
:108FF0007047AB48A94981610521890401620121BB
:1090000049054162A749C163A54809144030016080
:109010004160A5498160A549C1607047F8B5FFF777
:109020008EFFFFF7E6FF6D4D842068610126AE617B
:109030000020A8616A4A032191636B4A9C4911632D
:1090400067494860664B9B4999603721D9601B216D
:109050001961D86198499962614B984940335960C8
:109060005F498031C86035215D4B4901803319610A
:109070009349596193499961934959629349996216
:109080009049D9629863D863584980390860C860AC
:109090000861486108624862886248638863C863FF
:1090A000524940398860C8600861C86108624862F6
:1090B0004E4B8749403B1963112159634B49854BFE
:1090C0004039CB63494911230B60824B8B601123DC
:1090D000CB60464C804B40346363804BA363434B6F
:1090E00005244033DC63414B80331C603E4F7F24BA
:1090F00040373C628C614861754F0F6211274F62A7
:109100000C63C862734F8F631127CF6337494031B7
:109110008C60364F72494037F960786038611021B1
:1091200079613C62F861B862F96203242E4F6402EF
:1091300080373C60DC601C616A4C5C610F24640217
:109140009C61D060106150619061D061106250628A
:109150009062D062264A224BD43A1A60204B624A6F
:1091600080331A60244AD0639063234B4033986065
:10917000234C1C602862204C4D03403C25606560F8
:10918000A6601D4C803C21606060A060A0631662F8
:1091900056485062801F5860F7F7C7FC03202060D4
:1091A000F8BD00003497C7CDA40FC4357681E873AD
:1091B000EAB5D2E478DF30E8F4FD1F5F56E8250910
:1091C0006D3EE58DFA615A5177CF6E8A65449C7089
:1091D00041F52B18E3F52B516FBD4220800003A011
:1091E000000001A0FF3F0000400401A0400101A0D9
:1091F000CD04000000063000800800A0ABAAAAAA97
:109200003FFDF4F3B38D00000030C08F2080560086
:109210000F00C8040D1E00008D2ACD2B010342D083
:1092200003000300CD07FE3F020A0000FF037F009A
:10923000FF0100123004142AC30B2F0C400000C0A1
:10924000D32BD62B0000C08E000A1400140101019C
:1092500002008402D32B00000C200000D92B080050
:1092600000A0E25706460A00E62BE82B800100C06A
:10927000200077004D24ED24AA020C07FF00001205
:109280003004100AEE1FEF0BF324F624000514003F
:10929000F3240000F924080086258825202B0700E8
:1092A00000F000C00D1E0D1E4080090040060800A1
:1092B000FFFF0000FA178403F48170009440060059
:1092C000BA1803007F5C0F00207A01003BB921002F
:1092D000CD845511CD84610F03140000065804009D
:1092E00060FA17000006600004C00000B38E0000A2
:1092F000F0B5FFF7D0FDFF498420486101228A6163
:1093000000248C61FC4D0F20A863FD4BFB481863C3
:109310006C60FC487F27876184614461FA4B03627B
:10932000032646620763C4628363C663F548403020
:109330008460446003614661F248F44B8030C3604E
:10934000036143610F235B028361F148C8610C62D2
:10935000FF20FA302860E849B00380310860ED480A
:109360009104016041608260EA4F1021403F396002
:109370007C60BC60BC63E74940310A62E64A4A62ED
:10938000911FE44A80325160B10201624162E349B7
:109390008162FDF7EBF93E602C60F0BD70B5E049ED
:1093A00008680722920390430122D20380180860C4
:1093B000C80DD1490860CF4CDA48803CA062FEF766
:1093C000C6FB05460246D8A1E04802F03FFEDF4852
:1093D00001F053FF600DC749281840398863012008
:1093E000000560622060A069C002FCD5D8A001F031
:1093F00044FFE04860610020DF49C043086070BD61
:1094000070B5C74900200A68DC4B1A40BB4B41339A
:10941000D2180A60B84BCA0D1A60B64C451E803C83
:10942000A56065610B221205E26020226262226063
:1094300003231B02401C9842FCD98A604A6000202A
:10944000401CFF28FCD900204860A069800608D491
:10945000A269CBA1BD4802F0F9FDBC4801F00DFFA7
:10946000F3E7A44840380668CFA13246B74802F077
:10947000EDFDB64801F001FF6561BF48056030466B
:1094800070BD70B5A6490868BC4A10409B4A41327D
:1094900080180860C80D98490860964CCD17803C2C
:1094A000A560656107204005E060202060622060C3
:1094B000F9F73FFFA069800608D4A269B0A1A348CC
:1094C00002F0C4FDA14801F0D8FEF3E78948403816
:1094D0000668B5A132469D4802F0B8FD9B4801F0F0
:1094E000CCFE6561C0488563A3480560304670BD09
:1094F00010B5814CBD4820602268824203D0BCA1D7
:10950000924802F0A3FD914801F0B7FEB7485530EC
:1095100020602268824203D0C4A18C4802F096FDEC
:109520008A4801F0AAFED0A001F0A7FE724CD948EB
:10953000803420602268824203D0D7A1834802F0A1
:1095400085FD824801F099FEE3482060226882424E
:1095500003D0E2A17D4802F079FD7C4801F08DFE48
:10956000EEA001F08AFE10BD0321F74889070860CC
:10957000F6484860F64A8A60F648C860F6480861CE
:10958000F648486100208861F54BCB610862F54BD5
:109590004B62F54B8B62F54BCB6243231B010B6394
:1095A000F34B4B63F34B8B63F34BCB63F349086093
:1095B000F34B4B608860C86008614861CB018B61E8
:1095C000EE49F04B40314B60EF4B8B604023CB605A
:1095D00008614861ED4B8B61ED4BCB6103230B625E
:1095E000486288620223CB634E4BE449FD3B8031E5
:1095F0000B604A608860E74ACA6008614861E64AD1
:109600008A61E64ACA610862E54A4A62E54A8A62B4
:10961000E54ACA620863486301228A63E34ACA636F
:10962000D649C0310860112212025060E04A8A60B7
:109630003C4BEA3BCB6008614861DE49901C4860C6
:109640000114DC48403001604260C91CC1617047B0
:10965000F8B5284D842068610120A8610020A86128
:10966000254A03219163264AD34911632249486060
:10967000214AD24991603721D1601F211161D06107
:10968000CF4991621C4ACF49403251601A4A0321A6
:109690008032D160CC491161CC495161CC49916192
:1096A000C9495162CB499162C949D1629063D06383
:1096B000144980390860C8600861486108624862DE
:1096C000886248638863C8630E4940398860C8600F
:1096D0000861C861086248620A4ABF49403A11639A
:1096E00013215163BD49D163064A13211160BC495E
:1096F000916077E1800003A0000001A0FF3F00001F
:10970000400401A0400101A0CD040000000630008B
:10971000CCA00000400800A0B38D00000030C08F36
:10972000000104808C0F0000200A20736574206102
:109730006C61726D20636E74203D2030782538781E
:10974000202B2030783430300000000034020060DC
:109750000A20416C61726D203720747269676765F9
:10976000726564202D203438467820636F756E74DE
:1097700065720000FFFFFF0F80E200E01F3FFEFF69
:10978000200A2073796E63352C2020474E53535F97
:1097900054494D5F4952515F535441203D2025307B
:1097A00038782020200A0000200A2073796E633563
:1097B0002C3438466F20636C6F636B20646F6D616F
:1097C000696E2C205453594E4320494E332C20634C
:1097D0006170747572652076616C7565202530380E
:1097E000782020200A00000000000480AA03000066
:1097F000200A2072656769737465722072656164FE
:10980000206261636B2077726F6E672C20657870C1
:1098100065637465642030783361612C2061637402
:1098200075616C203078253378202000200A207262
:109830006567697374657220726561642062616333
:109840006B2077726F6E672C206578706563746526
:10985000642030783366662C2061637475616C20F7
:109860003078253378202000200A206973705F66E5
:10987000655F6F6E5F6F66665F72656720746573A4
:10988000742E2E2E2E2E2E2E2E2E2E2E70617373B3
:1098900000000000AA553A00200A2072656769732B
:1098A0007465722072656164206261636B207772F7
:1098B0006F6E672C206578706563746564203078FE
:1098C0003361353561612C2061637475616C2030C2
:1098D0007825357820200000FFFF3F00200A207205
:1098E0006567697374657220726561642062616383
:1098F0006B2077726F6E672C206578706563746576
:10990000642030783366666666662C206163747501
:10991000616C20307825357820200000200A2069ED
:1099200073705F62655F6F6E5F6F66665F726567BB
:1099300020746573742E2E2E2E2E2E2E2E2E2E2E4D
:1099400070617373000000001070C80C200050009C
:10995000090C890E090C00000B043800010342D0E9
:10996000CD07FE3F030A1900FF03EC03FF03FF03CB
:10997000FF03002000BEFF4F00068001400000C032
:10998000C0020B0C8F0E920E000404000200840231
:10999000140101010120020000A0E257950E100001
:1099A0003A010A0000AC9100008957003520000000
:1099B000220F240F800100C0FFFF0000FA1784036C
:1099C000F40132009440060080270100FDC00C0025
:1099D0007F5C0F00BAF6E0FFCD843117CD84E40E32
:1099E000CD84610F1521D160FE49FD4A4A63FE4BCB
:1099F0000522DA63FC4C80346263FB4B40331A600F
:109A00005A609A60F94E8E63CA63F54AF54E921C0D
:109A100040363260FF221A629A621A639A63F14BEF
:109A2000403B9A615861EF4FF14B403F3B6213233B
:109A30007B623A63F862EE4BBB631323FB638A607D
:109A40004860086110234B610A62C8618862CB627A
:109A5000E849F16003214902216049003161E16078
:109A60007161A161B1616162DF4A0221D16010615F
:109A700050619061D061106250629062D062DF4AA2
:109A8000DD491160DD4A012180321160DC49C86383
:109A90008863DB4C4034A060DA4A22602862D84AEE
:109AA0005D03403A1560556001259560D44A803ABF
:109AB00013605060906090630D62D3484862801FCD
:109AC0006060F7F732F8F8BD10B50020FF21CB4AEF
:109AD00001311160CD4CFF21A160D101E160411E37
:109AE0006161202161622160401C6428FCD36068B0
:109AF000800608D56268C6A1CF4802F0A7FACE4812
:109B000001F0BBFBF3E7A0698006FCD5BF484030FD
:109B10000468BE48E11DF93180300162C749C16166
:109B2000026AC7497944C44802F090FAC24801F079
:109B3000A4FB204610BDF8B5B44D84208035686183
:109B40000120A8610020A861AC4A03219163A64AC4
:109B5000BC491163A9494860A84ABB4991603721B3
:109B6000D1601F211161D061B8499162A34AB849FF
:109B700040325160A14A03218032D160B549116160
:109B8000B5495161B5499161B2495162B449916297
:109B9000B249D1629063D0639249C0390860C8600D
:109BA0000861486108624862886248638863C863E4
:109BB0008C4980398860C8600861C8610862486261
:109BC000884AA849803A116313215163884ED663AD
:109BD000844A403A1160A44991601521D160814ABC
:109BE0007F495163804A0521D1637F4B803359639C
:109BF0007D4A40321160516091607A4C7B49A1638B
:109C00000521E1637649774C891C40342160FF21AE
:109C10001162916211639163724A403A916150619D
:109C20001662704F1322403F7A623963F862BE6356
:109C3000FA636C4A9160506010616A4E1022726142
:109C40003162F061B062F26203214902E1601960A1
:109C5000C9002161D960891061619961A16159626E
:109C6000614B0221D960186158619861D86118620E
:109C700058629862D862614B7C4919605F4B7C499D
:109C8000803319605E49C86388635D4C4034A060CE
:109C90005C4B236028625A4B5503403B1D605D605E
:109CA00001259D60564B803B1A6058609860986310
:109CB0000D6255484862801F6060F6F736FFF8BDB8
:109CC000F0B5524900200860504E84218036716101
:109CD0000121B161B061494A032191634249654A5A
:109CE0000A6346494860454A574991600721D16057
:109CF0001F211161D06141495F4A8A623F49544A3C
:109D000040314A603D498031C86035213B4A4901B4
:109D100080321161594951615049916158495162EC
:109D2000584991624D49D1629063D0632D49C03941
:109D30000860C860086148610862486288624863D8
:109D40008863C863274980398860C8600861C86132
:109D500008624862234A4C49803A116311215163D9
:109D60004149D1631F4A1121403A1160906010238C
:109D7000D3601C4A1A4951631B4A0521D1631A4C0E
:109D800080346163184A4032116051609160154F10
:109D90003E4DBD63F9631249124D891C403529605F
:109DA0007F2111629162116391630E4A403A916181
:109DB0005061106253621163D0620A4F2A4A403FD9
:109DC000BA631122FA63074A9160506010615361CF
:109DD0001162D0619062D36203214902E96057E0C9
:109DE00003140000800101A0400401A006580400F3
:109DF000CD84E40E00060C000F050000000001A059
:109E0000800800A03FFDF4F3B39E0000000003A013
:109E1000200A2073796E63352C2020474E53535F00
:109E200054494D5F43544C5F535441203D202530ED
:109E300038782020200A000034020060490C080312
:109E4000D8690000FFFF0000FA178403F401320014
:109E50009440060080270100FDC00C007F5C0F00CD
:109E6000BAF6E0FFCD843117CD84610FF70700000B
:109E7000060A0000FFFF0100F4817000BA18030019
:109E8000207A01003BB92100CD8455110650040011
:109E9000C9002160FE492961E160FE496961A16153
:109EA000A9616162FC49C860086148618861C86154
:109EB000086248628862C862F94AF8491160F84A43
:109EC000F849803211605060F749C8638863F64CE6
:109ED0004034A060F54A22603062F34A5D03403AA4
:109EE0001560556001259560EF4A803A1360506017
:109EF000906090630D62EE484862801F6060F0BD24
:109F0000F0B5E549EB484863FF22EB480532426172
:109F100001228261E84A00209061E14B03229A63AA
:109F2000E64A0A635860E64A9A603722DA601F22DE
:109F30001A61D861E34A9A62D94BE34A40335A60C6
:109F4000D74B03228033DA60E04A1A61E04A5A6153
:109F5000E04A9A61DD4A5A62DF4A9A62DD4ADA6271
:109F60009863D863CE4AC0321060D06010615061EF
:109F700010625062906250639063D063D74A9060E1
:109F8000D0601061D06110625062D44BD44A1A6321
:109F900013225A63D34ADA63D04B132240331A6038
:109FA000CE4AD14B403293601523D360CB4ACF4B7E
:109FB000803253630523CB63B74D80356B63B64C5A
:109FC000403423606360A360C94E9663D363C74B7C
:109FD000C24E9B1CC0363360FF232362A3622363FF
:109FE000A363BE4C4034A3616061BC4FBD4C40379D
:109FF0003C6213247C623B63F862BA4CBC6313245A
:10A00000FC63936050601061102454611362D0614E
:10A010009062D462B74AF2602A60B74B3361EA605B
:10A020007261AA61B2616A620222CA600861486113
:10A030008861C861086248628862C862984AAF490C
:10A0400011602863964A80218032116050609649E1
:10A05000C8638863944B40339860944A1A60964A68
:10A060001062914A6503403A15605560012595607C
:10A070008D4A803A14605060906090630D628C4805
:10A080004862801F5860F0BDF0B583498948486335
:10A09000894D842068610120A8610020A861804B5F
:10A0A00003229A63854A0A635860954A9A60072298
:10A0B000DA601F221A61D861924A9A62784B824A0A
:10A0C00040335A60764A8032D0603522744B520158
:10A0D00080331A618C4A5A617E4A9A618B4A5A626D
:10A0E0008B4A9A627B4ADA629863D8637B4A403A29
:10A0F0001060D060106150611062506290625063D5
:10A100009063D063754A9060D0601061D061106236
:10A110005062724B7F4A1A6311225A63724ADA63A1
:10A120006E4B112240331A6098601024DC606B4A39
:10A130006E4B803253630523CB63574E8036736377
:10A14000554E403633607360B360694E9663D36397
:10A15000664E624BB61CC0331E60604F7F26403790
:10A16000BE61786138627C6280263E63F8625E4E32
:10A17000BE631126FE637F269660506010615461B5
:10A180001662D0619062D4625A4ADA60404A1A611B
:10A19000404A5A619A61C860086148618861C86133
:10A1A000086248628862C862FD213D4A89001160E8
:10A1B0003949803108634D49394A891E803211601E
:10A1C00050603949C8638863374B40339860374AD9
:10A1D0001A602862344A6503403A156055600125CB
:10A1E0009560314A803A14605060906090630D62CF
:10A1F0002F484862801F5860F0BDF0B526492D48B1
:10A2000048632D48842242612B4A0120906100203E
:10A210009061234B03229A63284A0A635860384AA4
:10A220009A603722DA601B221A61D861354A9A6235
:10A230001B4B254A40335A60194A8032D060352280
:10A24000174B520180331A612F4A5A61214A9A6191
:10A250002E4A5A622E4A9A621E4ADA629863D8637C
:10A260001E4A403A1060D060106150611062506226
:10A27000906250639063D063184A9060D060106120
:10A28000D06110625062154B224A1A63112243E0DA
:10A2900000063001001E0001400401A0F507000087
:10A2A000000001A00C0A4000800800A03FFDF4F36C
:10A2B000B39E0000FFFF0000800003A0FFFF01002D
:10A2C000FA175802F401320094400600802701007A
:10A2D000FDC00C007F5C0F00BAF6E0FF000101A09A
:10A2E000CD843117CD84E40ECD84610F03140000BA
:10A2F000065004000006180100120001F3030000DC
:10A30000FA178403F4817000BA180300207A010060
:10A310003BB92100CD8455115A633C4ADA633C4B6A
:10A3200011221A60394A9A601122DA60384A394B90
:10A33000403253630523CB63374C6363364C403C58
:10A3400023606360A360354D9563D363314D304B1B
:10A35000AD1C80331D607F252562A5622563A56342
:10A360002B4CA56160612062294E10247462356314
:10A37000F062274F254EBE631126FE63802696604D
:10A380005060106154611562D0619062D462244AB9
:10A39000DA601A61234A5A61234A9A6103225202FF
:10A3A000DA611A625A62C860086148618861C861EE
:10A3B000086248628862C862FF211C4A0931116044
:10A3C000154908630321194AC9038032116050609E
:10A3D0001749C8638863164B40339860154A1A6062
:10A3E000154A1062124A6503403A1560556001250E
:10A3F00095600F4A803A14605060906090630D62DF
:10A400000E484862801F5860F0BD0000CD84610F87
:10A41000400101A003140000C00401A00650040084
:10A420000006000100063001001E0001000001A02E
:10A43000800800A03FFDF4F3800003A0B39E00005D
:10A44000F8B5FE4D08265021284602F066F8FD4971
:10A45000FB480860FC48B102016062B6FB48C307D4
:10A460001860FC4AFA4850609560FB485061FB4810
:10A4700010600320F24C0002A41C0021491C814200
:10A48000FCD3596827468F43F7D101201060F44868
:10A49000784400F0F2FE002405E02A5DF1A1F348C3
:10A4A00001F0D4FD641CB442F7D3F04800F0E5FE9F
:10A4B000F8BD70B5E14D08265021284602F02DF870
:10A4C00072B6E248801CC3071860E24AE048506058
:10A4D0009560E7481060C0120021491C8142FCD3FE
:10A4E0001979C907F8D001201060DD4878440C388C
:10A4F00000F0C3FE002405E02A5DDAA1DB4801F08C
:10A50000A5FD641CB442F7D3D84800F0B6FE70BD78
:10A5100070B5D849002001240B1F5C600F250A6824
:10A520006D03AA438D0C5219D34DAA43FF250C325B
:10A530006D01AA432243CC04A2430A60052119609D
:10A54000CE49CA071160C349C14B4B6053235B0618
:10A550008B60C74B0B60D912401C8842FCD35068FB
:10A56000C107FDD0C64802681105FCD5C5A1BF488A
:10A5700001F06CFDBD4800F080FEB94878445438C5
:10A5800000F07BFE70BDF0B587B0182700243A4676
:10A59000CAA16846F5F75EFE0F20AA49CD4E00031A
:10A5A000086035466846015D2955641CBC42FAD3F3
:10A5B000A648801CC4072060250D5A222946304633
:10A5C00001F086FF3746C44E7760A148001FB06097
:10A5D000C24830600020401CA842FCD36068C1061D
:10A5E000FDD59F487844683800F047FE0120306070
:10A5F00007B0F0BD70B586B0182600243246AFA172
:10A600006846F5F727FEB34D2C55641C402CFBD350
:10A61000B3A000F032FE0020694602E00B5C2B5430
:10A62000401CB042FAD38948801CC3071860AA4A6C
:10A630005560B5489060002003210902401C884203
:10A64000FCD3B1481C38142101637D490161AF4935
:10A65000816162214162AE4901600121C9058163C6
:10A66000AC4911605968864BCA06FDD519684A0580
:10A67000FDD5A749491C0160C1680902FCD54168A4
:10A680000907FCD50821416018688101FDD500202B
:10A69000C043586206B070BD70B586B0182600245D
:10A6A000324686A16846F5F7D5FD8A4D1821284621
:10A6B00001F035FF2C55641C402CFBD388A000F022
:10A6C000DCFD0021684602E0435C6B54491CB1424A
:10A6D000FAD35E48801CC30718607F4A55608A48D9
:10A6E0009060002003210902401C8842FCD38A4864
:10A6F0001421016352490161844981615021416201
:10A70000834901600121C90581638249116059684B
:10A710005B4BCA06FDD519684A05FDD57C49491C25
:10A720000160C1680902FCD541680907FCD5082110
:10A73000416018688101FDD50020C0435862A9E737
:10A74000F0B589B000241826202274A16846F5F7D8
:10A7500081FD7A490220C860794D1821284601F010
:10A76000DEFE1821774801F0DAFE6F46395D295583
:10A77000641CB442FAD37448C4072060734845602F
:10A7800070498160FF21A03101606268D00507D463
:10A790006FA1364801F05AFC344800F06EFDF4E732
:10A7A00075A000F06AFD00240FE0285D395D884245
:10A7B00002D07FA000F061FD2A5D86A12B4801F048
:10A7C00045FC2A4800F059FD641CB442EDD383A037
:10A7D00000F053FD09B0F0BD70B588B018242022F8
:10A7E0004EA16846F5F736FD54490220C860884DF1
:10A7F0001821284601F093FE864E1821304601F0BC
:10A800008EFE00216846425C6A54491CA142FAD37C
:10A810004D48C4072060804845608660FF21A03114
:10A8200001606268D00407D449A1104801F00EFC11
:10A830000E4800F022FDF4E7F0E0000000000160A7
:10A84000FFFF000080E200E000E100E0F51F0000F3
:10A850000C0003800001008042470000FB0058000C
:10A86000B460000020257820000000003402006061
:10A870008B001800040002801E001E00F79F0000DD
:10A8800000000A80200A20204E415620444D4130CD
:10A8900020494E54207472696767657265642E2E74
:10A8A0002E49544D4F445F494E54524547203D2058
:10A8B0003078253038782020200A00002048656C48
:10A8C0006C6F20576F726C642021200A202020209A
:10A8D000202020000008016000020080070810000E
:10A8E000200A20444D41204350552044617461208A
:10A8F00052414D20746F20493243202E2E2E2E2E91
:10A900002E2E2E200A2000001C00078080038003CA
:10A910001C003F108701100000000D80200A204815
:10A92000656C6C6F20576F726C642021200A2E2E8C
:10A930002E2E2E20202020202000000080000180CC
:10A940000080212000610060070800800003008073
:10A95000200A20444D415F53544154555320283020
:10A9600078383030305F3030303429203D20307836
:10A970002530387820000000200A20444D41204333
:10A98000505520636F64652052414D3120746F2013
:10A99000646174612052414D3220547820636F6DA0
:10A9A000706C6574652E2E2E2E2E200A200000005D
:10A9B000200A20646174612078666572206D697375
:10A9C0006D61746368202E2E2E2E2E2E2E2E2E2E8E
:10A9D000000000002025303278202000200A20448A
:10A9E0004D4120636F646552414D312052414D20ED
:10A9F000746F20646174612052414D32207465731C
:10AA0000742E2E2E2E2E706173736564200A200022
:10AA100000002020000901600004008036A000F042
:10AA20002CFC08B070BD70B588B01824202240A15D
:10AA30006846F5F70FFC46490220C86005252D073A
:10AA40002021284601F06BFD424E2021304601F0C6
:10AA500066FD00216846425C6A54491CA142FAD353
:10AA60003D48C40720603D48456086603C49016020
:10AA70006268D00407D43BA1444801F0E7FA434898
:10AA800000F0FBFBF4E742A000F0F7FBC9E770B56C
:10AA900088B01824202226A16846F5F7DBFB2C4954
:10AAA0000220C86005252D071821284601F037FD32
:10AAB000284E1821304601F032FD00216846425CE4
:10AAC0006A54491CA142FAD32348C40720603F4876
:10AAD00045608660FF21A03101606268D00507D41F
:10AAE00020A12A4801F0B2FA284800F0C6FBF4E79A
:10AAF00037A000F0C2FB94E7200A20444D412043D8
:10AB0000505520636F64652052414D3120746F2091
:10AB1000646174612052414D3220547820636F6D1E
:10AB2000706C6574652E2E2E2E2E200A20000000DB
:10AB3000200A2048656C6C6F20576F726C6420216E
:10AB4000200A2E2E2E2E2E20202020202000000035
:10AB50008000018000090160070800800004008077
:10AB60000F020000200A20444D415F5354415455C8
:10AB70005320283078383030305F3030303429205E
:10AB80003D20307825303878200000003402006005
:10AB9000200A20444D4120435055206368332D4105
:10ABA0005020442D4275732052414D20746F204730
:10ABB0004E53532052414D20547820636F6D706C7A
:10ABC0006574652E2E2E2E2E200A20000003008094
:10ABD000200A20444D4120636832204350552041D3
:10ABE0005020442D4275732052414D20746F2047F0
:10ABF0004E53532052414D20547820636F6D706C3A
:10AC00006574652E2E2E2E2E200A2000FEB50027FC
:10AC1000B6A0009700F031FB1420C14D0190002632
:10AC2000C14CC0482E606060304600F055F9BF4806
:10AC3000E060BF486063A00D206180202060052097
:10AC400000027F1C8742FCD305212A6809030020EB
:10AC5000401C8842FCD3142AF9D1B24860602660B7
:10AC60002268B4A1BA4801F0F1F9B94800F005FB37
:10AC7000AE48E060B7A1B648019A01F0E7F9B448E0
:10AC800000F0FBFABEA1B2482A6801F0DFF9B04833
:10AC900000F0F3FA0098FEBD70B50024204600F0E5
:10ACA0001BF9A148A149C1607F2141600821816051
:10ACB000012505610560641C642CFCD30168002932
:10ACC000FCD14469BBA12246A14801F0BFF9A048CC
:10ACD00000F0D3FAC3480268C3A19D4801F0B6F959
:10ACE0009B4800F0CAFABF4880300560C7A000F05A
:10ACF000C4FA204670BD10B5FFF7CEFF012109034D
:10AD00004118894841627F21416010210161016041
:10AD100001680029FCD1C6A000F0AFFAB148026872
:10AD2000CFA18B4801F092F9894800F0A6FAAD490D
:10AD3000012080310860D2A000F09FFA002010BDF1
:10AD400010B5794CD748E0607F206060200DA0608E
:10AD50000420206120602068002803D0D2A000F0E9
:10AD60008CFAF8E7E469D7A12246794801F06EF938
:10AD7000774800F082FADFA000F07FFA204610BD8D
:10AD800010B5FFF7DDFF0121090541186648816212
:10AD90007F21416020210161016001680029FCD10F
:10ADA00090480268AEA16A4801F050F9684800F086
:10ADB00064FA8C49012080310860002010BD10B574
:10ADC0005948B849C1607F214160010D816004216B
:10ADD000016001680029FCD1C1690522920289182D
:10ADE00081620921816021210161016001680029DE
:10ADF000FCD144696FA12246554801F027F9544817
:10AE000000F03BFA7748026895A1514801F01EF91D
:10AE10004F4800F032FA7349012080310860BEA02B
:10AE200000F02BFA204610BD70B53F4C7F206060CB
:10AE30008020A0600220206120602068002803D0CC
:10AE4000BEA000F01AFAF8E7A569C3A12A46404857
:10AE500001F0FCF83E4800F010FACBA000F00DFA2B
:10AE6000D3A000F00AFA5F4C80342168C907FCD0F7
:10AE70005C4802687AA1364801F0E8F8344800F0EE
:10AE8000FCF901202060D3A000F0F7F9284670BD3E
:10AE900010B525487F2141600821816001210161B1
:10AEA000016001680029FCD141690922FF310131AB
:10AEB000120282604162142101610160016800296F
:10AEC000FCD1C4697FA12246214801F0BFF8204887
:10AED00000F0D3F9204610BDC206D20E01219140E8
:10AEE0004009C54A8000801801607047200A20523E
:10AEF000756E6E696E672050542074696D6572209E
:10AF0000696E74657276616C20746573742E2E2E72
:10AF10002E2E2E2E2E2E2E2E2E2E2E2E2E200000BB
:10AF200000000060FF03000000000680FF02000038
:10AF300008AF2F00200A2050544D4F445F43544C1B
:10AF40005F524551203078253038782020200A0083
:10AF500034020060200A7465737420636F6D706C36
:10AF6000657465642C20696E7465727275707420E6
:10AF70006578706563746564203D20253064000049
:10AF8000200A7465737420636F6D706C65746564FA
:10AF90002C2061637475616C20696E7465727275C2
:10AFA0007074206F6363757272656E636573203DA4
:10AFB00020256400200A2073796E63302057434CAB
:10AFC0004B20636F756E7465722063617074757267
:10AFD000652076616C7565203078253038782020C2
:10AFE000200A000000E200E0200A204E56494320DB
:10AFF000307865303030653230302E2E2E2E2E2EA9
:10B000002E2030782530387800000000200A2050AB
:10B01000542074696D65722073796E633020746595
:10B0200073742E2E2E2E2E2E2E7061737365640077
:10B03000200A2050542073756D6D61727920696EFD
:10B04000742074726967676572656420616E64203C
:10B0500061636B65642E2E2E2E2E2E2E00000000B6
:10B06000200A204E56494320307865303030653212
:10B0700030302E2E2E2E2E2E2E3078253038780081
:10B08000200A20505420696E7420616C61726D300A
:10B0900020696E74206C6174636865642E2E2E2E98
:10B0A0002E2E2E00FF010000200A2073796E6332DD
:10B0B0002073746174757320627573792E2E2E2E31
:10B0C0002E2E2E00200A2073796E633220505420D9
:10B0D000636F756E7465722063617074757265203C
:10B0E00076616C7565203078253038782020200A0C
:10B0F00000000000200A20505420696E74207379EB
:10B100006E633220696E74206C6174636865642EAE
:10B110002E2E2E2E2E2E0000200A20505420696E36
:10B12000742073796E633020696E74206C6174636F
:10B130006865642E2E2E2E2E2E2E0000200A2073DF
:10B14000796E6331207374617475732062757379DD
:10B150002E2E2E2E2E2E2E00200A2073796E633175
:10B160002057434C4B20636F756E7465722063618A
:10B1700070747572652076616C7565203078253045
:10B1800038782020200A0000200A20505420696EC0
:10B19000742074726967676572656420616E6420EB
:10B1A00061636B65642E2E2E2E2E2E2E0000000065
:10B1B000200A20505420696E742073796E63312008
:10B1C000696E74206C6174636865642E2E2E2E2E59
:10B1D0002E2E0000200A20505420696E74207379AE
:10B1E0006E633120746573742E2E2E2E2E2E2E70CB
:10B1F000617373656400000000E100E00021C82372
:10B20000F14A584301E01368491C8842FBD8704753
:10B210007047EE48012141600021816070470020A5
:10B220000122EB49D2030A60401C80B23228FBD3D2
:10B23000C72080000861572008607047E4484068D4
:10B24000C006C00F7047E2484168C906FCD5C06817
:10B25000C0B27047DE48418AC906FCD5C08AC0B278
:10B260007047DB494A681206FCD588607047D849A8
:10B270004A8A1206FCD58882704700B5034608E06A
:10B280000A2802D10D20FFF7ECFF18785B1CFFF7AE
:10B29000E8FF18780028F3D100BD00B5034608E0A8
:10B2A0000A2802D10D20FFF7E2FF18785B1CFFF798
:10B2B000DEFF18780028F3D100BD70B500250E46DA
:10B2C00004462B460DE0FFF7BEFF03460D2802D1D2
:10B2D0000A23FFF7C6FF1846FFF7C3FF2370641C5D
:10B2E0006D1CB54201DA0A2BEDD10020207070BD33
:10B2F00070B500250E4604462B460DE0FFF7AAFF69
:10B3000003460D2802D10A23FFF7B1FF1846FFF7C5
:10B31000AEFF2370641C6D1CB54201DA0A2BEDD11F
:10B320000020207070BD10B5AA48818A8907890F56
:10B3300005D001290FD002290FD003290ED1A64C28
:10B34000808AA6A18207920FAC4800F07FFEAB482E
:10B35000FFF793FF02E0AA4C00E0AA4C9D48203082
:10B3600080894007400F030001F0F8FA0805070A3A
:10B370000D101316191F204610BD0021C94310E0FF
:10B380000121C9430DE00221C9430AE00321C94359
:10B3900007E00421C94304E00521C94301E0062177
:10B3A000C943204601F07CF910BD002010BD96A0D5
:10B3B000704797487844704794B0684614B0704717
:10B3C0008248704701210906884204D3032292076C
:10B3D00082188A4207D28F48808B002801D08EA025
:10B3E000704792A07047BF22120682188A4201D28B
:10B3F00094A070475F22520682188A4201D295A01B
:10B40000704705214907012241185204914201D297
:10B4100094A070477B21490640189449884201D284
:10B4200093A0704795A070477A4A203A1288530734
:10B430005B0F0B605106890F06D0012906D0022947
:10B4400006D0032901D12021016070470821FBE7C4
:10B450001021F9E76F4A203A928853075B0F0B607F
:10B460005106890F06D0012906D0022906D00329EA
:10B4700001D12021016070470821FBE71021F9E785
:10B48000644A203A128953075B0F0B605106890FFB
:10B4900006D0012906D0022906D0032901D1202196
:10B4A000016070470821FBE71021F9E770B59EB0F5
:10B4B0000D46144622A946C9019100930292014605
:10B4C000039623462A4604A800F0C0FD04A8FFF70F
:10B4D000D4FE1EB070BD13B50020009A0199C04380
:10B4E000914201D98C1A03E066A0FFF7C6FE002046
:10B4F00001210A46224203D0009A11604900F8D186
:10B500001CBD70B50346032000070024591A58409B
:10B51000E4438D08654A002102E08E008251091D36
:10B52000002DFAD120461A6070BDF0B5604F044678
:10B53000FA4387B0D0170592A14204D9091B89109C
:10B540000391012108E04FA0FFF797FE002007B00C
:10B55000F0BD8A00A7504900039A1142F9D1012594
:10B56000276010E0A9006258BA420BD005230420DE
:10B57000062601930090091902963B464DA0FFF75D
:10B5800095FF00206D0003990D42EBD1059901262E
:10B590002160BAE0B100059A049162500499012536
:10B5A00009190691AAE0B5420CD0A9006158B94228
:10B5B00008D00622052104206B4607C304983B46A9
:10B5C000225895E099E0000000010480A00000608E
:10B5D0000000038000000180916D444220434C4BE9
:10B5E0005F42434C4B53454C2076616C7565203D62
:10B5F0003D3D3E202578200A000000003402006016
:10B600008FC218420000C8415448554D4200000006
:10B61000FBFFFFFF20000980464C4153482F434168
:10B6200043484520454E41424C454400464C415319
:10B63000482F43414348452044495341424C4544E7
:10B640000000000045585445524E414C2053524191
:10B650004D00000045585445524E414C2052414D3A
:10B660000000000045444F2052414D000004009668
:10B670004C4F43414C2052414D000000554E4B4E23
:10B680004F574E00656E6420616464726573732069
:10B690006C657373207468616E20737461727420BA
:10B6A000616464726573730A00000000AA55AA55AC
:10B6B0005C5C5C5C76616C75652040203078253080
:10B6C0003878203D203078253038782C2073686F0A
:10B6D000756C64206265203078253038782C2062C3
:10B6E000697420737475636B20686967680A000069
:10B6F000FEA00699FFF7DAFE00206D0003990D42C7
:10B7000000D050E704997600675003990E4200D0AC
:10B7100040E71CE7F0B50446091B0020491CC04364
:10B720008F08012285B0002103E08B00E250521CFB
:10B73000491CB942F9D3012500261AE0B100039152
:10B740006258AA420CD004200090052103980623D9
:10B750000191029301192B46F3A0FFF7A7FE0020E9
:10B76000E943FC4A6D1C914200D11146039A761CB4
:10B77000A150BE42E2D30126002515E0F1438C46DC
:10B78000A9006258761C8E4662450CD00420052123
:10B790000090062301917046029301196346E2A0CE
:10B7A000FFF784FE00206D1CBD42E7D305B0F0BD5D
:10B7B000FEB5044600200E1BC043761C012200216A
:10B7C00003E06254521CD2B2491CB142F9D30127A2
:10B7D000002513E0625DBA420BD006230521042048
:10B7E00002930191009061193B46CFA0FFF75EFEE6
:10B7F0000020F9437F1C6155FFB26D1CB542E9D3AF
:10B800000127002516E0F943CBB2615D7F1CFFB232
:10B810008C4699420BD00622052104200292019108
:10B82000009061196246C0A0FFF740FE0020002191
:10B8300061556D1CB542E6D3FEBDF0B50446091B4B
:10B840000020491CC0434F08012285B0002104E0BC
:10B850004B00E252521C92B2491CB942F8D3012566
:10B86000002617E071000391625AAA420CD004200E
:10B8700000900521039806230191029301192B469C
:10B88000A9A0FFF713FE0020E9436D1C039AADB297
:10B89000A152761CBE42E5D3012600251AE0F143F1
:10B8A0008BB269000391615A761CB6B28C469942FC
:10B8B0000CD00420009005210398062201910292E9
:10B8C0000119624698A0FFF7F1FD002000220399BC
:10B8D0006D1C6252BD42E2D368E7F0B50546491BD4
:10B8E000491C85B0090904919B490020C0430022EE
:10B8F000CB680C694E698F6903E011014919D8C101
:10B90000521C04998A42F8D30021944E039150E0CE
:10B9100009018C464C1921468EC98EC68E4F103EA9
:10B920000C373B6899420CD0052104200622019176
:10B930000090029260462A5821467BA0FFF7B6FD90
:10B94000002071687B6899420BD0052104200622F3
:10B95000019100900292211D73A06268FFF7A6FD7D
:10B960000020B168BB6899420CD0052104200191E8
:10B97000062200900292214608316BA0A268FFF7D0
:10B9800095FD0020F168FB6899420BD00622052145
:10B9900004206F4607C721460C3163A0E268FFF719
:10B9A00085FD00206C4F1C378ECF8EC40399491C37
:10B9B0000391049A9142ABD3002158E009018C46CF
:10B9C0004C1921468EC98EC6634F103E1C373A680B
:10B9D00091420ED00622052104206B4607C338464B
:10B9E0001038036860462A5821464FA0FFF75EFDD5
:10B9F000002071687A6891420DD00622052104204A
:10BA00006B4607C35448211D0C30436846A062684A
:10BA1000FFF74CFD0020B168BA6891420ED00622B3
:10BA2000052104206B4607C34B4821460C30836830
:10BA300008313DA0A268FFF739FD0020F168FA68DF
:10BA400091420ED00622052104206B4607C34248CE
:10BA500021460C30C3680C3133A0E268FFF726FDA5
:10BA60000020314610318EC98EC40399491C049AB6
:10BA700003919142A2D399E6F0B50A1A521C87B0FD
:10BA800000255209ED4300240592049008E0049833
:10BA900061010818304920222C31F4F7DBFB641CCB
:10BAA00005988442F3D30020062605270390D7E0AB
:10BAB0004801049906904418284820222146203045
:10BAC000F4F7C8FB25482030016823482C30036870
:10BAD000994246D004200197009004990698029656
:10BAE0000A58214610A0FFF7E1FC39E076616C7539
:10BAF00065204020307825303878203D203078256A
:10BB00003038782C2073686F756C64206265203043
:10BB100078253038782C2062697420737475636BD3
:10BB2000206C6F770A00000076616C7565204020FC
:10BB3000307825303878203D203078253038782C02
:10BB40002073686F756C642062652030782530380A
:10BB5000780A0000FFF8FFFFA0000060D401006039
:10BB60000025E7484168E7484368994209D0042026
:10BB7000009001970296211DE3A06268FFF796FCF2
:10BB80000025DF488168DF48836899420AD0042095
:10BB900000900197029621460831DBA0A268FFF7CA
:10BBA00085FC0025D648C168D648C36899420AD0AA
:10BBB000042000900197029621460C31D2A0E26841
:10BBC000FFF774FC0025CE480169CE48036999420D
:10BBD0000AD0042000900197029621461031CAA095
:10BBE0002269FFF763FC0025C5484169C5484369E0
:10BBF00099420AD004200090019702962146143100
:10BC0000C1A06269FFF752FC0025BD488169BD48AB
:10BC1000836999420AD00420009001970296214638
:10BC20001831B9A0A269FFF741FC0025B448C169E9
:10BC3000B448C36999420AD0042000900197029643
:10BC400021461C31B0A0E269FFF730FC0025AD4968
:10BC5000204620222031F4F7FDFA0398401C03907F
:10BC600001460598814200D222E70020A0E0400171
:10BC700004990690441820222146A148F4F7EAFAD4
:10BC80009F4801689F482030036899420BD00420E8
:10BC9000019700900499069802960A5821469AA0A6
:10BCA000FFF704FC00259648416896482030436819
:10BCB000994209D00420009001970296211D92A07C
:10BCC0006268FFF7F3FB00258D4881688D482030BE
:10BCD000836899420AD00420009001970296214679
:10BCE000083189A0A268FFF7E1FB00258448C168FC
:10BCF00084482030C36899420AD0042000900197FC
:10BD0000029621460C3180A0E268FFF7CFFB0025A8
:10BD10007B4801697B482030036999420AD004209E
:10BD20000090019702962146103177A02269FFF713
:10BD3000BDFB002572484169724820304369994231
:10BD40000AD00420009001970296214614316EA07B
:10BD50006269FFF7ABFB00256948816969482030BB
:10BD6000836999420AD004200090019702962146E7
:10BD7000183165A0A269FFF799FB00256048C169E9
:10BD800060482030C36999420AD00420009001978E
:10BD9000029621461C315CA0E269FFF787FB002573
:10BDA0005749204620222031F4F754FA0398401CCA
:10BDB00005990390884200D259E72846A9E470B556
:10BDC00000240D460646E443FFF785FB002819D002
:10BDD00029463046FFF7A9FB002815D029463046F2
:10BDE000FFF798FC002811D029463046FFF7E0FC09
:10BDF00000280DD029463046FFF71FFD002809D046
:10BE0000204670BD4BA006E050A004E056A002E022
:10BE10005DA000E064A0FFF730FA002070BD70B5AF
:10BE20000C460546FFF757FB00280ED02146284652
:10BE3000FFF77BFB00280AD021462846FFF76AFC63
:10BE4000002806D00020C04370BD3AA002E03FA009
:10BE500000E045A0FFF711FA002070BD0CB55B486B
:10BE6000C1680191C168019A00919142FAD001E044
:10BE7000C16800919142FBD10CBD3EB5054654A06E
:10BE8000FFF7FBF953A0FFF7F8F906240523042276
:10BE900068461CC003230222294659A0FFF706FB6F
:10BEA0004CA0FFF7EAF94AA0FFF7E7F93EBD3EB51F
:10BEB00002880624052304216D461AC50146032382
:10BEC0005AA0FFF7F3FA3EBD10B55E48FFF7EFFF4B
:10BED0005C48001DFFF7EBFF5A480830FFF7E7FF0B
:10BEE00058484C30FFF7E3FF56485030FFF7DFFF6C
:10BEF0005548FFF7DCFF53481C30FFF7D8FF10BD53
:10BF0000F4010060CC00006076616C756520402013
:10BF1000307825303878203D203078253038782C1E
:10BF20002073686F756C6420626520307825303826
:10BF3000780A00004461746120627573207465732F
:10BF400074206661696C65640A0000004164647273
:10BF500065737320627573207465737420666169FC
:10BF60006C65640A00000000526561642F577269B5
:10BF7000746520776F7264207465737420666169DC
:10BF80006C65640A00000000526561642F57726995
:10BF900074652062797465207465737420666169C4
:10BFA0006C65640A00000000526561642F57726975
:10BFB00074652068616C6620776F726420746573A5
:10BFC00074206661696C65640A00000000000480EA
:10BFD0000A0A0000212121212121212121212121C1
:10BFE0002121212121212121212121212121212141
:10BFF000212121212121212121212121210A00008A
:10C000002121212121212120206572726F725F6E12
:10C01000756D626572203D2030782530347820209F
:10C020002121212121212121210A0000726567207F
:10C030004020307825303878203D20307825303445
:10C04000780A0000040001800C0002800FB41CB5C7
:10C05000074B06AA7B4469460090059800F09FFBB9
:10C060000020694600F0AEFB1CBC08BC04B01847B9
:10C070006D07000070B5044685690068C10601D5EA
:10C08000302600E02026C00707D070BD6268304629
:10C09000A1689047206A401C20626D1EF6D570BDD5
:10C0A00070B5044685690078C00707D170BD626825
:10C0B000A16820209047206A401C20626D1EF6D5A2
:10C0C00070BD09684A0501D540B27047C905FCD565
:10C0D00000B2704709684A0501D5C0B27047C9056A
:10C0E000FCD580B2704770B50C460546012A05D0D4
:10C0F0002878800600D5EA69002302E0012305E0E4
:10C100005B1C934202D2E05C0028F9D1A869E618D2
:10C11000C01AA861286AC01828622846FFF7AAFF3B
:10C1200004E06A682078A968641C9047B442F8D398
:10C130002846FFF7B5FF70BDF7B5002575291068D3
:10C14000009914A611D0FFF7BCFF002802DA404284
:10C1500011A608E0009909688A0701D50FA602E038
:10C16000490704D50EA6012501E0FFF7B3FF009FA4
:10C170000024243704E000F07AFB30313955641C88
:10C180000028F8D12B4632462146009800F0AAFA42
:10C19000FEBD0000000000002D0000002B0000008C
:10C1A00020000000F7B51546044686B02B497944B7
:10C1B000002703C93E460090019111E007986A46A6
:10C1C0007100415A02A800F030FB411C07D02178D1
:10C1D000890603D5E269391891420ED83F18761CBA
:10C1E0002078800602D5E069B84206DDAE42E5DB84
:10C1F00007987100405A0028E0D1A069C01BA061D7
:10C200002046FFF737FF154979445A3903C9009092
:10C210000020019116E041006A460798415A02A8A1
:10C2200000F003FB0590401C0AD0002505E0626881
:10C2300002A8A168405D90476D1C05988542F6D321
:10C240000498401CB0420490E5DB206AC0192062CB
:10C250002046FFF725FF09B0F0BD0000C6440000EE
:10C2600070B5044621461068FFF734FF00212546CB
:10C27000243505E04207520F30326A54491CC00889
:10C280000028F7D12068002307A2050708D520253C
:10C290002840084304D0E069012304A2401EE06165
:10C2A000204600F01FFA70BD0000000030000000C2
:10C2B00070B504460D4621461068FFF70BFF218834
:10C2C000090502D50F4A7A4402E00E4A7A440E323A
:10C2D00023460021243305E00607360F965D5E54A1
:10C2E000491C00090028F7D120780023000705D554
:10C2F000702D03D0002901D011320223204600F016
:10C30000F1F970BDB6430000F3B50446002081B0DA
:10C3100020622046E1688847002872D0252802D094
:10C320006268A168ABE0594F00267F442046E1686F
:10C3300088472028054608DB312D06D27819203899
:10C340000078002801D00643F0E7B00701D50420AB
:10C3500086430020E0610746A0612A2D0AD02846C6
:10C3600000F009FB002827D0303DB80000190090EC
:10C37000856119E00298BA00121902C89161029011
:10C380002046E1688847012F054617D1E06900285B
:10C390001FDA202086431CE000980A218069484368
:10C3A00000994019303888612046E1688847054681
:10C3B00000F0E1FA0028EFD1012F0AD02E2D08D18C
:10C3C0002046E16888470546202006437F1C022F4F
:10C3D000C3DBA069002803DA4042A06101200643C4
:10C3E000F00701D0102086436C2D0BD0682D09D0AA
:10C3F0004C2D3CD06A2D38D0742D38D07A2D36D0C3
:10C4000016E040E0E1682F4620468847B8420546DE
:10C4100009D16C2F29D001208002E1680643204613
:10C420008847054604E06C2F1DD0FF2001300643ED
:10C43000002D28D028464138192803D80120C002F1
:10C4400006432035204626602946029A1646F3F711
:10C4500075FE002810D001280BD0F61DF008C00092
:10C460000830029055E74020E1E78020D5E7002022
:10C47000D3E7361D02964CE762682846A1689047CC
:10C48000206A401C44E7206AFEBD00007A43000099
:10C490000C4A30B511460C4C44310B46C03B0B6284
:10C4A000CA61372106E0020C8D0012185A51074A62
:10C4B000504300190A46491E002AF4DC30BD012011
:10C4C000E6E70000E4020060E119D666CD0D010048
:10C4D000D2B210B513029A1813049A1800F00EF88D
:10C4E00010BD01E004C0091F0429FBD28B0701D550
:10C4F0000280801CC90700D00270704700290BD051
:10C50000C30702D00270401C491E022904D38307CE
:10C5100002D50280801C891EE3E70022EEE700229C
:10C52000DFE7002203098B422CD3030A8B4211D38D
:10C5300000239C464EE003460B433CD400224308B4
:10C540008B4231D303098B421CD3030A8B4201D3A4
:10C5500094463FE0C3098B4201D3CB01C01A52413C
:10C5600083098B4201D38B01C01A524143098B428C
:10C5700001D34B01C01A524103098B4201D30B0175
:10C58000C01A5241C3088B4201D3CB00C01A52419A
:10C5900083088B4201D38B00C01A524143088B425F
:10C5A00001D34B00C01A5241411A00D201465241F8
:10C5B000104670475DE0CA0F00D04942031000D317
:10C5C0004042534000229C4603098B422DD3030A6C
:10C5D0008B4212D3FC22890112BA030A8B420CD37C
:10C5E000890192118B4208D3890192118B4204D3A5
:10C5F00089013AD0921100E08909C3098B4201D325
:10C60000CB01C01A524183098B4201D38B01C01A5E
:10C61000524143098B4201D34B01C01A52410309D5
:10C620008B4201D30B01C01A5241C3088B4201D384
:10C63000CB00C01A524183088B4201D38B00C01A31
:10C640005241D9D243088B4201D34B00C01A524108
:10C65000411A00D20146634652415B10104601D395
:10C660004042002B00D54942704763465B1000D31F
:10C67000404201B50020C046C04602BD70B5064C20
:10C680007C44064D7D4403E0206800198047241D4A
:10C69000AC42F9D170BD0000684100006841000063
:10C6A00010B5FF2243001B0E09D05A4007D091421B
:10C6B00005DA5C42A14202DDC905081810BDC40FAD
:10C6C000E407002B06D0002A06D0002902DBFF2059
:10C6D000C0050443204610BD4102FCD0004810BDF7
:10C6E0000000C07FFFB504460D4681B024300090A5
:10C6F0002168880604D51022E0699143216000E09A
:10C700000120A84201DD471B00E000270498A16931
:10C710007A191018081AA0612078C00602D42046A1
:10C72000FFF7A8FC002608E003986268A168805D16
:10C730009047206A401C761C206204988642F3DBF6
:10C740002078C0060AD52046FFF794FC06E0626810
:10C75000A16830209047206A401C206238467F1E26
:10C760000028F4DC07E000986268A168405D90470B
:10C77000206A401C206228466D1E0028F3DC2046FB
:10C78000FFF78EFC2078000602D5022005B0F0BD30
:10C790000120FBE701694A1C02610878704700B577
:10C7A0008FB00291002105910549019379440391CD
:10C7B000114604906846FFF7A7FD0FB000BD0000CA
:10C7C000E5FFFFFF0A681070521C0A60704710B541
:10C7D0004369002B02D0C046C04601E0FFF783FC4E
:10C7E000012010BD1278014624310A7000224A70DF
:10C7F0000122ECE711680022D243E8E710B5436953
:10C80000002B02D0C046C04601E0FFF7CBFC012060
:10C8100010BD12880146243182840022C284012284
:10C82000ECE711680022D243E8E770B516460C46E3
:10C83000054600F031F80368FF200230C05C012893
:10C8400007D0FF2C10D8185D00280DD001202C70C7
:10C8500070BDFF20324621460830C0581B182846BC
:10C86000FF330833984770BD0020C04370BD0146B8
:10C870008008081A02091018020A1018020C101871
:10C88000C008820012185200891A01E00A39401CBF
:10C890000A29FBD27047000010B500F005F8001D12
:10C8A00010BD00BFE1000000004870476C0300604D
:10C8B0000446C046C0462046F3F788FC024670B5E1
:10C8C0000A4392072AD11E4DEE0104C808C9541B21
:10C8D0009443344017D0D0B2D9B2401A2106014354
:10C8E00010D190B299B2401A210401430AD110022A
:10C8F0001902000A090A401A2102014302D1100E4E
:10C90000190E401A70BD9A42DFD010BA19BA884287
:10C9100001D9012070BD0020C04370BD02780B78A2
:10C92000401C491C002A09D09A4207D102780B7892
:10C93000401C491C002A01D09A42EFD0D01A70BD89
:10C940000101010101491820ABBEFEE726000200EB
:10C950007047000000BF00BF00BF00BF30B4744686
:10C96000641E2578641CAB4200D21D46635D5B00EB
:10C97000E31830BC184730380A2801D2012070472C
:10C980000020704710B500290AD00878002807D089
:10C9900005487844FFF792FF002801D0002010BD21
:10C9A0000248784410BD00004A3D0000423D0000AE
:10C9B00001000000650000002300000019000000D5
:10C9C0004300000017000000080000005A000000AB
:10C9D0001C000000200000002D0000005700000097
:10C9E0005B00000018000000290000005900000052
:10C9F00027000000300000004D000000150000007E
:10CA0000AA55AA55FFFFFFFF78563412AFBEADDE20
:10CA1000200A20434D302B206177616974696E676D
:10CA20002041502077616B65757020696E742066B7
:10CA3000726F6D206269742037206F6620494E54F2
:10CA40005352312073657420746F203128494E543D
:10CA50005352313D3078383029200000200A2043DD
:10CA60004D302B20646574656374732041502077CA
:10CA7000616B65757020696E746572727570742073
:10CA800061636B6E6F776C65646765206166746562
:10CA90007220434D302B2073657420444255535F00
:10CAA00053575F57414B455F494E545F52455120A4
:10CAB0006269742000000000200A20434D302B20C2
:10CAC000636C6561727320444255535F53575F57DF
:10CAD000414B455F494E545F524551206269742075
:10CAE0006E6F7720616674657220415020446275D4
:10CAF00073204D49462077616B6575702061636BCB
:10CB00006E6F776C65646765642E2E2E2E2E2E2E2A
:10CB100020000000200A20434D302B207365742034
:10CB20006269743233206F6620494E544752302078
:10CB3000746F203120746F207369676E616C2041BF
:10CB40005020446275732077616B65757020444F87
:10CB50004E452041434B202000000000200A204188
:10CB60006674657220434D302B2077616B6575705C
:10CB70002C2072642F77722041502D4462757320EF
:10CB800036344B20446174612052414D20746573EA
:10CB9000742E2E2E2E2E2E2E2E2E20706173730AA2
:10CBA00000000000200A20416674657220434D3069
:10CBB0002B2077616B6575702C2072642F77722043
:10CBC00041502D446275732036344B2044617461AA
:10CBD0002052414D20746573742E2E2E2E2E2E2E33
:10CBE0002E2E206661696C0A00000000200A204396
:10CBF0004D302B206177616974696E672043502046
:10CC0000506275732077616B6575702041434B20CE
:10CC100066726F6D204350206E6F772E2E2E2E2E53
:10CC20002E2E2E2E2E2E2E2E2E2E2E2E2E2E2E2E24
:10CC30002E200000200A20416674657220494E545F
:10CC40007320636C65617265642C41502F474E53AD
:10CC500053206D61696C626F7820494E5453523194
:10CC6000283078343035373030323829203D203084
:10CC700078253038780000000A2A2A2A2A2A2A2A07
:10CC80002A2A2A2A2A2A2A2A2A2A2A2A2A2A2A2A04
:10CC90002A2A2A2A2A2A2A2A2A2A2A2A2A2A2A2AF4
:10CCA0002A2A2A2A2A2A2A2A2A2A2A2A2A2A2A2AE4
:10CCB0002A2A2A2A2A2A2A2A2A2A2A2A000000007C
:10CCC0000A2A20782920676F206261636B20202068
:10CCD0002020202020202020202020202020202054
:10CCE0002020202020202020202020202020202044
:10CCF0002020202020202020202020202020202034
:10CD00002020202A000000000A2A20202020536131
:10CD10006D73756E67204A6F7368756120536F433A
:10CD2000204B65706C65722049503C2D3E41502F60
:10CD300043502074657374207368656C6C202020E8
:10CD400020202020202020202020202A0000000059
:10CD50000A2A20202020436F707972696768742046
:10CD60002863292053616D73756E6720496E632EA9
:10CD700020323031332D3230313520202020202018
:10CD800020202020202020202020202020202020A3
:10CD90002020202A000000000A2A20312920434DAB
:10CDA000302B20746F204150204D656D6F727920BB
:10CDB0005465737473282036344B2D6D656D206275
:10CDC000617365203078353030305F303030302955
:10CDD0002020202020202020202020202A000000A9
:10CDE0000A2A2032292049504320696E74657272E4
:10CDF000757074732072656C6174656420746573FA
:10CE000074202020202020202020202020202020CE
:10CE10002020202020202020202020202020202012
:10CE2000202020202A0000000A2A203329204E6FCB
:10CE30006E2D636F726520546573747320202020FB
:10CE400020202020202020202020202020202020E2
:10CE500020202020202020202020202020202020D2
:10CE600020202020202020202020202A0000000038
:10CE70000A2A2034292052756E20436C6F636B2080
:10CE8000746573747320202020202020202020200F
:10CE90002020202020202020202020202020202092
:10CEA0002020202020202020202020202020202082
:10CEB0002020202A000000000A2A20352920506F57
:10CEC000776572206D6F64652054657374732020DC
:10CED0002020202020202020202020202020202052
:10CEE0002020202020202020202020202020202042
:10CEF00020202020202020202020202A00000000A8
:10CF00000A2A2036292052756E2044535020636F20
:10CF10007265204953502F575254542074657374CE
:10CF200073202020202020202020202020202020AE
:10CF300020202020202020202020202020202020F1
:10CF40002020202A000000000A2A203729205254DD
:10CF50004320636F756E747320546573747320205F
:10CF600020202020202020202020202020202020C1
:10CF700020202020202020202020202020202020B1
:10CF800020202020202020202020202A0000000017
:10CF90000A2A20382920474E5353206C6F63616C56
:10CFA000204D656D6F72792072656C6174656420C7
:10CFB00054657374732020202020202020202020FE
:10CFC0002020202020202020202020202020202061
:10CFD0002020202A000000000A2A2039292052752A
:10CFE0006E20717569636B206272696E672D757052
:10CFF000207465737473202020202020202020209E
:10D000002020202020202020202020202020202020
:10D0100020202020202020202020202A0000000086
:10D020000A2A2063292054797065204865782041B8
:10D0300064647265737320746F207265616420523A
:10D0400065672076616C75652820484848484848DF
:10D0500048482029203D3D3D3D3E202020202020E5
:10D060002020202A000000000A2A20642920547968
:10D07000706520486578204164647265737320612F
:10D080006E6420486578206461746120746F207735
:10D090007269746520696E746F205265672028205C
:10D0A0004848484848484848204848484848484828
:10D0B000482029203D3D3D3D3E202A00200A2020D9
:10D0C000616674657220416C61726D203120646507
:10D0D0007465637465642C204E5649432070656EF8
:10D0E00064696E6720726567283078653030305F1C
:10D0F0006532303029203D203078253038782020A6
:10D10000200A00000A2052756E2052544320616CA0
:10D1100061726D31207465737420616E6420636880
:10D1200065636B20696E74657272757074206166D8
:10D130007465722052544320616C61726D312074A9
:10D14000696D65206F75742E2E2E2E2E2E2E2020AA
:10D15000000000000A2A202020202020202020205B
:10D16000202020202020202020202020204D656D00
:10D170006F72792054657374732020202020202042
:10D18000202020202020202020202020202020209F
:10D19000202020202020202A000000000A2A2A2AFD
:10D1A0002A2A2A2A2A2A2A2A2A2A2A2A2A2A2A2ADF
:10D1B0002A2A2A2A2A2A2A2A2A2A2A2A2A2A2A2ACF
:10D1C0002A2A2A2A2A2A2A2A2A2A2A2A2A2A2A2ABF
:10D1D0002A2A2A2A2A2A2A2A2A2A2A2A2A2A2A00D9
:10D1E0000A2A20312920636865636B20445350313B
:10D1F00052414D2028203078633030305F3030305D
:10D2000030202D203078633030325F6666666629C4
:10D21000202020202020202020202020202020200E
:10D2200020202A000A2A20372920636865636B20A2
:10D23000436F646552414D205352414D206174202B
:10D240003078323032305F30303030282032323473
:10D250004B42292020202020202020202020202078
:10D26000202020202020202A000000000A2A203927
:10D270002920636865636B2041502D4475732052EB
:10D28000414D203078353030305F30303030202024
:10D29000202020202020202020202020202020208E
:10D2A000202020202020202020202020202020207E
:10D2B0002A0000000A2A2061292072756E20616C04
:10D2C0006C206D656D6F72792074657374732020A6
:10D2D000202020202020202020202020202020204E
:10D2E000202020202020202020202020202020203E
:10D2F000202020202020202A000000006368656391
:10D300006B696E6720696E7465726E616C20333272
:10D310004B20446174612052414D2E2E2E20626FAD
:10D32000617264206E656564732072657365742034
:10D3300061667465722066696E69736865642E0A39
:10D3400000000000200A203D3D3D3D3D3D3D3D3D6E
:10D350003D3D3D3D3D3D3D3D3D3D3D3D3D3D3D3DFD
:10D360003D3D3D3D3D3D3D3D3D3D3D3D3D3D3D3DED
:10D370003D3D3D3D3D3D3D3D3D3D3D3D3D3D3D3DDD
:10D380003D3D3D3D3D3D3D3D3D3D200A0000000011
:10D390000A2A202020202020202020202020202099
:10D3A000202020436F72652028576176657269647A
:10D3B000657229205465737473202020202020205A
:10D3C000202020202020202020202020202020205D
:10D3D0002020202A000000000A202A203129205283
:10D3E000756E204953502061637469766520626CC4
:10D3F000616E6B696E672020202020202020202075
:10D40000202020202020202020202020202020201C
:10D4100020202020202020202020202A2020000042
:10D420000A202A2032292052756E2049535020723A
:10D430006567732072642F777220666F72203438AC
:10D4400046782073796E6320676C69746368207412
:10D45000657374202020202020202020202A2020D6
:10D46000000000000A202A2034292044756D702015
:10D4700047505320696E53616D706C65206275660C
:10D48000666572206174203078303030305F333020
:10D49000303020776974682073686F727420363476
:10D4A00020627974657320646174612020202020DB
:10D4B000202A2020000000000A202A20352920529E
:10D4C000756E20575254542074696D6572205379DB
:10D4D0006E633528203438466F20636C6B20646F90
:10D4E0006D61696E2D41435120636F756E74657275
:10D4F0002020202020202020202020202020202A22
:10D50000202000000A202A203629202A52756E2069
:10D51000575254542074696D65722053796E63308C
:10D52000282057434C4B20636C6B20646F6D6169FE
:10D530006E29202020202020202020202020202094
:10D540002020202020202020202020202A202000F1
:10D550000A202A203729202A52756E205752545407
:10D560002074696D65722053796E633628203438D3
:10D57000466F20636C6B20646F6D61696E2D204176
:10D58000435120636F756E7465722920202020201E
:10D5900020202020202020202A2020000A202A20AD
:10D5A00038292052756E20575254542074696D6585
:10D5B000722053796E633228206578743120636C51
:10D5C0006B20646F6D61696E29202020202020204F
:10D5D000202020202020202020202020202020204B
:10D5E0002020202A202000000A202A203929205229
:10D5F000756E20575254542074696D657220616CA9
:10D6000061726D3228203438466F20636C6B206461
:10D610006F6D61696E29202020202020202020208D
:10D620002020202020202020202020202020202AF0
:10D63000202000000A202A2041292052756E204710
:10D640004E53532074696D65722053796E63362092
:10D650007669612052544320616C61726D312820DB
:10D660003438466F20636C6B20646F6D61696E2D7A
:10D670002041435120636F756E74657229202A2002
:10D68000200000000A202A2042292052756E2047DF
:10D690004E53532074696D65722053796E63352043
:10D6A0007669612050542074696D657220616C61E7
:10D6B000726D3128203438466F20636C6B20646FA4
:10D6C0006D61696E2D2041435120636F756E7465E5
:10D6D0007229202A202000000A202A2044292052D2
:10D6E000756E20474E53532074696D6572205379CF
:10D6F0006E6331312076696120657874312D454340
:10D700004C4B207468656E204D475F70756C736577
:10D7100020696E70757420666F722053594E4331C4
:10D72000312063617074757265202A20200000002A
:10D730000A202A2061292044756D7020475053200B
:10D74000696E53616D706C652062756666657220E6
:10D750006174203078303030305F333030302077B3
:10D76000697468203634204B627974657320646173
:10D7700074612020202020202A2020000A202A2036
:10D7800062292052756E2047616C696C656F204973
:10D7900053502F5752545420696E53616D706C650D
:10D7A0002074657374202020202020202020202039
:10D7B0002020202020202020202020202020202069
:10D7C00020202020202A20000A202A206329202A25
:10D7D00052756E20575254542074696D65722053EF
:10D7E000796E633528205453594E432D494E3320CA
:10D7F0003438466F20636C6B20646F6D61696E2DE9
:10D8000041435120636F756E746572202020202083
:10D810002A2020000A202A2064292052756E2042E6
:10D820006569646F752F436F6D7061737320495321
:10D83000502F575254542020746573742020202098
:10D8400020202020202020202020202020202020D8
:10D850002020202020202020202020202A202000DE
:10D860000A202A2065292052756E204750532049EE
:10D8700053502F5752545420207465737420202025
:10D880002020202020202020202020202020202098
:10D890002020202020202020202020202020202088
:10D8A000202020202020202A202000000A202A20BA
:10D8B00066292052756E20476C6F6E617373204924
:10D8C00053502F57525454202074657374202020D5
:10D8D0002020202020202020202020202020202048
:10D8E0002020202020202020202020202020202038
:10D8F0002020202A202000000A202A2067292052E8
:10D90000756E204953505F31303139612074657331
:10D9100074202020202020202020202020202020B3
:10D9200020202020202020202020202020202020F7
:10D93000202020202020202020202020202A2020DD
:10D94000000000000A202A206829202A52756E2033
:10D95000575254542074696D657220616C61726D08
:10D9600030282057434C4B20636C6B20646F6D61F3
:10D97000696E292020202020202020202020202007
:10D980002020202020202020202020202A202000AD
:10D990000A202A2069292052756E204750532032D0
:10D9A000466F206C6F7720706F776572206C6F63A5
:10D9B0006B206D6F646520207465737420202020B7
:10D9C0002020202020202020202020202020202057
:10D9D00020202020202020202A2020000A202A2069
:10D9E0006C292052756E204750532032466F204CD0
:10D9F000502D316269742C20476C6F6E61737320F7
:10DA000048502D32626974206D6978656420706FAA
:10DA100077657220746573742020202020202020D8
:10DA2000202020202A2020000A202A2050726573FE
:10DA300073203C613E203C623E2E2E2E3C6B3E20ED
:10DA4000746F207374617274207465737473202012
:10DA500020202020202020202020202020202020C6
:10DA60002020202020202020202020202020202AAC
:10DA7000202000000A202A2A2A2A2A2A2A2A2A2A98
:10DA80002A2A2A2A2A2A2A2A2A2A2A2A2A2A2A2AF6
:10DA90002A2A2A2A2A2A2A2A2A2A2A2A2A2A2A2AE6
:10DAA0002A2A2A2A2A2A2A2A2A2A2A2A2A2A2A2AD6
:10DAB0002A2A2A2A2A2A2A2A2A2A2A202000000058
:10DAC000200A20496E53616D706C65206275666630
:10DAD00065722064756D7020402061646472203D21
:10DAE0002030786330303033303030202C206C657B
:10DAF0006E677468203D203078663030302062795F
:10DB00007465732000000000200A202D2D2D2D2D7E
:10DB10002D2D2D2D2D2D2D2D2D2D2D2D2D2D2D2D35
:10DB20002D2D2D2D2D2D2D2D2D2D2D2D2D2D2D2D25
:10DB30002D2D2D2D2D2D2D2D2D2D2D2D2D2D2D2D15
:10DB40002D2D2D2D2D2D2D2D2D2D2D2000000000C6
:10DB5000200A20496E53616D706C6520627566669F
:10DB600065722064756D7020402061646472203D90
:10DB70002030783030303033303030202C20206C62
:10DB8000656E677468203D20363420627974657351
:10DB900020000000200A202D2D2D2D2D2D2D2D2D86
:10DBA0002D2D2D2D2D2D2D2D2D2D2D2D2D2D2D2DA5
:10DBB0002D2D2D2D2D2D2D2D2D2D2D2D2D2D2D2D95
:10DBC0002D2D2D2D2D2D2D2D2D2D2D2D2D2D2D2D85
:10DBD0002D2D2D2D200000000A2A203129205254FD
:10DBE0004320616C61726D20696E7420746573747A
:10DBF0002020202020202020202020202020202025
:10DC00002020202020202020202020202020202014
:10DC10002020202020202020202020202020202004
:10DC2000202020202A0000000A2A203229204869CA
:10DC30006265726E6174652C4E4F2052414D2072A8
:10DC4000657461696E65642C57616B652D75702014
:10DC5000736F757263652073656C656374284F4ECE
:10DC60005F4F4646292020202020202020202020F1
:10DC70002020202A000000000A2A20332920486999
:10DC80006265726E6174652D726574322C46554CF6
:10DC90004C20436F64652C446174612052414D20D7
:10DCA00072657461696E65642C57616B652D757062
:10DCB00020736F757263652073656C656374284F9C
:10DCC0004E5F4F46462920202A0000000A2A2034B1
:10DCD000292048696265726E6174652D72657432BF
:10DCE0002C436F64652052616D30207265746169E8
:10DCF0006E65642C57616B652D757020736F75723E
:10DD000063652073656C6563742028204F4E5F4FF8
:10DD10004646202920202020202020202A00000004
:10DD20000A2A2035292048696265726E6174652D62
:10DD3000726574322C436F64652052616D312072BC
:10DD4000657461696E65642C57616B652D75702013
:10DD5000736F757263652073656C6563742028202A
:10DD60004F4E5F4F46462029202020202020202093
:10DD70002A0000000A2A2036292048696265726E4E
:10DD80006174652D726574322C4461746120526136
:10DD90006D2072657461696E65642C57616B652DC9
:10DDA000757020736F757263652073656C6563743D
:10DDB0002028204F4E5F4F4646202920202020203B
:10DDC0002020202A000000000A2A20372920504D58
:10DDD00055206F6E6C792C6E6F20424252414D205F
:10DDE00072657461696E2C57616B652D7570207357
:10DDF0006F757263652073656C6563742028204FAE
:10DE00004E5F4F4646202920202020202020202A17
:10DE1000000000000A2A2038292048696265726ED5
:10DE20006174652D726574312C46554C4C20436FDE
:10DE300064652C446174612052414D2072657461A7
:10DE4000696E65642C57616B652D757020736F75F5
:10DE50007263652073656C656374284F4E5F4F462F
:10DE6000462920202A0000000A2A20392920486952
:10DE70006265726E6174652D726574312C436F64D6
:10DE8000652052616D302072657461696E65642C25
:10DE900057616B652D757020736F757263652073A4
:10DEA000656C6563742028204F4E5F4F46462029DD
:10DEB00020202020202020202A0000000A2A206183
:10DEC000292048696265726E6174652D72657431CE
:10DED0002C436F64652052616D31207265746169F5
:10DEE0006E65642C57616B652D757020736F75724C
:10DEF00063652073656C6563742028204F4E5F4F07
:10DF00004646202920202020202020202A00000012
:10DF10000A2A2062292048696265726E6174652C44
:10DF20002D726574312C446174612052616D2072D0
:10DF3000657461696E65642C57616B652D75702021
:10DF4000736F757263652073656C65637420282038
:10DF50004F4E5F4F464620292020202020202020A1
:10DF60002A0000000A2A20632920504D55206F6E98
:10DF70006C792C424252414D2072657461696E2C5D
:10DF800057616B652D757020736F757263652073B3
:10DF9000656C6563742028204F4E5F4F46462029EC
:10DFA00020202020202020202A0000000A2A20648F
:10DFB000292048696265726E6174652D72657465A9
:10DFC0006E74696F6E322C20626252414D2C576123
:10DFD0006B652D757020736F757263652073656C4A
:10DFE0006563742028204F4E5F4F4646202920202D
:10DFF0002020202020202A000A2A20202020202043
:10E000002020202020202020202020202020202010
:10E0100020436C6F636B2054657374732020202041
:10E0200020202020202020202020202020202020F0
:10E0300020202020202020202020202A0000000056
:10E040000A2A203129205365742053434C4B2074F5
:10E050006F20434C4B5F48434C4B5F465245455FF6
:10E060004F55542020202020202020202020202018
:10E0700020202020202020202020202020202020A0
:10E080002020202A000000000A2A2032292053657F
:10E09000742053434C4B20746F2020434C4B5F50F3
:10E0A000434C4B5F465245455F4F5554202020203E
:10E0B0002020202020202020202020202020202060
:10E0C00020202020202020202020202A00000000C6
:10E0D0000A2A203329205365742053434C4B207463
:10E0E0006F20434C4B5F343846585F465245455F7E
:10E0F0004F55542020202020202020202020202088
:10E10000202020202020202020202020202020200F
:10E110002020202A000000000A2A203429205365EC
:10E12000742053434C4B20746F20434C4B5F33326D
:10E130004B5F465245455F4F5554202020202020FC
:10E1400020202020202020202020202020202020CF
:10E1500020202020202020202020202A0000000035
:10E160000A2A203529205365742053434C4B2074D0
:10E170006F20434C4B5F48434C4B5F4F555420201E
:10E18000202020202020202020202020202020208F
:10E19000202020202020202020202020202020207F
:10E1A0002020202A000000000A2A2036292053655A
:10E1B000742053434C4B20746F20434C4B5F4843B7
:10E1C0004C4B5F41524D5F4F555420202020202062
:10E1D000202020202020202020202020202020203F
:10E1E00020202020202020202020202A00000000A5
:10E1F0000A2A203729205365742053434C4B20743E
:10E200006F20434C4B5F50434C4B5F4F5554202085
:10E2100020202020202020202020202020202020FE
:10E2200020202020202020202020202020202020EE
:10E230002020202A000000000A2A203829205365C7
:10E24000742053434C4B20746F20434C4B5F54431A
:10E250004B5F4F55542020202020202020202020BC
:10E2600020202020202020202020202020202020AE
:10E2700020202020202020202020202A0000000014
:10E280000A2A203929205365742053434C4B2074AB
:10E290006F2020434C4B5F54434B5F494E565F4FBA
:10E2A0005554202020202020202020202020202005
:10E2B000202020202020202020202020202020205E
:10E2C0002020202A000000000A2A2061292053650E
:10E2D000742053434C4B20746F20434C4B5F444D90
:10E2E000415F4F5554202020202020202020202036
:10E2F000202020202020202020202020202020201E
:10E3000020202020202020202020202A0000000083
:10E310000A2A206229205365742053434C4B2074F1
:10E320006F2020434C4B5F50544D4F445F4F55542A
:10E3300020202020202020202020202020202020DD
:10E3400020202020202020202020202020202020CD
:10E35000202020202A0000000A2A2063292053655B
:10E36000742053434C4B20746F20434C4B5F5541FA
:10E3700052545F465245455F4F555420202020207F
:10E38000202020202020202020202020202020208D
:10E390002020202020202020202020202A000000D3
:10E3A0000A2A206429205365742053434C4B20745F
:10E3B0006F20434C4B5F554152545F4F55542020C2
:10E3C000202020202020202020202020202020204D
:10E3D000202020202020202020202020202020203D
:10E3E00020202A000A2A20652920536574205343DF
:10E3F0004C4B20746F2020434C4B5F4932434452B6
:10E400005F4F555420202020202020202020202035
:10E4100020202020202020202020202020202020FC
:10E4200020202020202A00000A2A20662920536567
:10E43000742053434C4B20746F20434C4B5F50541B
:10E440004D4F445F57434C4B5F4F55542020202085
:10E4500020202020202020202020202020202020BC
:10E460002020202020202020202A00000A2A2067A7
:10E4700029205365742053434C4B20746F20204354
:10E480004C4B5F47504C4C5F4F5554202020202070
:10E49000202020202020202020202020202020207C
:10E4A00020202020202020202020202020202A0082
:10E4B0000A2A206829205365742053434C4B20744A
:10E4C0006F20434C4B5F41444320202020202020DC
:10E4D000202020202020202020202020202020203C
:10E4E000202020202020202020202020202020202C
:10E4F00020202A000A2A20692920536574205343CA
:10E500004C4B20746F20434C4B5F343846582020CE
:10E5100020202020202020202020202020202020FB
:10E5200020202020202020202020202020202020EB
:10E530002020202020202A000A2A206A2920536532
:10E54000742053434C4B20746F20474E5353324337
:10E55000505F434F4D4E5F424C4B5F434C4B20202E
:10E5600020202020202020202020202020202020AB
:10E57000202020202020202020202A000A2A2020BD
:10E580007479706520782020746F207265747572BC
:10E590006E2020202020202020202020202020202D
:10E5A000202020202020202020202020202020206B
:10E5B0002020202020202020202020202020202A51
:10E5C000000000000A2A20202020202020202020D7
:10E5D00020202020202020202020204E6F6E436FFE
:10E5E0007265205465737473202020202020202021
:10E5F000202020202020202020202020202020201B
:10E60000202020202020202A000000000A2A20317B
:10E61000292052756E2050542F474E535320746951
:10E620006D65722074657374206D656E7520202091
:10E6300020202020202020202020202020202020DA
:10E640002020202020202020202020202020202AC0
:10E65000200000000A2A2036292052756E204452DC
:10E6600049324320746F2049324320666C617368DD
:10E6700020547820646174612020202020202020F4
:10E68000202020202020202020202020202020208A
:10E69000202020202020202A200000000A2A2037C5
:10E6A000292052756E20445249324320746F20490C
:10E6B000324320666C6173682052782074657374ED
:10E6C000202020202020202020202020202020204A
:10E6D0002020202020202020202020202020202A30
:10E6E000200000000A2A2061292052756E206161F5
:10E6F00072647661726B20746F20445249324320F9
:10E70000205278202074657374202020202020203F
:10E7100020202020202020202020202020202020F9
:10E72000202020202020202A200000000A2A204229
:10E7300029202D2D52756E20696E7465726E616C84
:10E740002054656D706572617475726520726563C1
:10E750006F726465722074657374202020202020FD
:10E760002020202020202020202020202020202A9F
:10E77000200000000A2A2063292052756E2044528E
:10E780004932432020746F20686F73742061617276
:10E79000647661726B205478207465737420202035
:10E7A0002020202020202020202020202020202069
:10E7B000202020202020202A200000000A2A204398
:10E7C00029202D2D52756E2065787465726E736CDC
:10E7D0002054656D70657261747572652073656E25
:10E7E000736F7220746573742020202020202020F5
:10E7F0002020202020202020202020202020202A0F
:10E80000200000000A2A2044292052756E20444D21
:10E8100041205541525420527820746F204E415669
:10E820002052414D207769746820322053544F5054
:10E8300020627974657320746573742D2D73656E11
:10E840006420646174612066726F6D20686F7374F8
:10E850002076696120554152542A20000A2A2065F9
:10E86000292052756E20444D412052414D20746F35
:10E87000205541525420547820746573742D2D2DE9
:10E88000636865636B20686F737420646973706C70
:10E8900061792020202020202020202020202A20D4
:10E8A000000000000A2A2066292052756E20444D7F
:10E8B000412052414D20746F20444D4120646174C9
:10E8C00061207866657220746573742D2D2D20206B
:10E8D0002020202020202020202020202020202038
:10E8E0002020202020202A20000000000A2A206961
:10E8F000292052756E20444D4120415020446275BC
:10E90000732052414D20746F20474E535320444D85
:10E910004120646174612078666572207465737447
:10E920002D2D2D20202020202020202020202020C0
:10E9300020202020202020202020202A200000002D
:10E940000A2A2020202020202020202020202020D3
:10E950002020202020202050542F474E5353205455
:10E96000696D657220546573747320202020202007
:10E970002020202020202020202020202020202097
:10E980002020202A000000000A2A20312920527568
:10E990006E2050542057434C4B2074696D65722093
:10E9A000636E747220616C61726D20302049525127
:10E9B0002020746573742020202020202020202017
:10E9C00020202020202020202020202A200000009D
:10E9D0000A2A2032292052756E2050542057434C69
:10E9E0004B2074696D657220636E74722073796E4A
:10E9F0006320302D696D6D656420726571207465CA
:10EA000073742F636170747572652076616C7565BF
:10EA10002020202A200000000A2A203329205275B5
:10EA20006E2050542057434C4B2074696D65722002
:10EA3000636E74722073796E3120302D696D6D654F
:10EA4000642072657120746573742F6361707475CE
:10EA500072652076616C75652020202A20000000F8
:10EA60000A2A2034292052756E2050542074696D72
:10EA7000657220636E74722073796E6320322D6923
:10EA80006D6D65642072657120746573742F6361A8
:10EA900070747572652076616C7565202020202069
:10EAA0002020202A200000000A2A20352920527523
:10EAB0006E2057434C4B2074696D657220636E74F1
:10EAC000722073796E6320302D616C61726D31201C
:10EAD00072657120746573742F63617074757265EB
:10EAE0002076616C756520202020202A20000000FF
:10EAF0000A2A2036292052756E2050542074696DE0
:10EB0000657220636E74722073796E6320322D619A
:10EB10006C61726D3020746573742F6361707475ED
:10EB200072652076616C75652020202020202020D1
:10EB30002020202A200000000A2A203729202D2DFD
:10EB400052756E20474E53532054696D65722053A1
:10EB5000796E63302074696D657220202D696E5363
:10EB6000796E63207372632D52544320616C61721D
:10EB70006D31202020202020202020202A2000006D
:10EB80000A2A203829202D2D52756E20474E5353C6
:10EB90002057434C4B2074696D657220636E74720C
:10EBA0002052544320616C61726D312820696E538C
:10EBB000796E633629204952512020746573742080
:10EBC0002020202A200000000A2A203929205275FE
:10EBD0006E2050542057434C4B2074696D65722051
:10EBE000636E747220616C61726D203020495251E5
:10EBF00020207465737420202020202020202020D5
:10EC000020202020202020202020202A200000005A
:10EC10000A2A206129202D2D52756E20474E53530C
:10EC20002054696D6572203438467820636E7472A2
:10EC30002053796E6336202D20535720696D6D6502
:10EC40006420726571207465737420202020202058
:10EC50002020202A200000000A2A206229202D2DB1
:10EC600052756E20474E53532054696D657220349F
:10EC700038467820636E74722077697468205379FF
:10EC80006E6335202D20525443414C41524D206932
:10EC90006E70757420494E362D2D2D202020202A8F
:10ECA000200000000A2A206329202D2D52756E2095
:10ECB000474E53532054696D65722034384678208E
:10ECC000636E747220776974682053796E6335209F
:10ECD0002D205453594E4320696E70757420494E4F
:10ECE000332D2D2D2020202A200000000A2A206408
:10ECF000292052756E2050542074696D6572206908
:10ED00006E74657276616C207465737420202020A7
:10ED100020202020202020202020202020202020F3
:10ED200020202020202020202020202020202A20D9
:10ED3000000000000A2A202020202020202020205F
:10ED40002020202020202020204B65706C65722020
:10ED500041502F43502F474E535320495043207466
:10ED60006573747320202020202020202020202064
:10ED7000202020202020202A000000000A2A203104
:10ED800029204C6F6F7020616E6420617761697417
:10ED900020474E535320696E746572727570747398
:10EDA0002072782066726F6D204150284150202DCE
:10EDB0003E20474E53532920202020202020202071
:10EDC0002A0000000A2A20322920474E535320737C
:10EDD000656E647320494E5453286233312D62317D
:10EDE0003629746F204150202820474E53532D3E22
:10EDF00041502920202020202020202020202020B9
:10EE000020202020202020202A0000000A2A203351
:10EE100029204C6F6F7020616E6420617761697486
:10EE200020474E535320696E746572727570747307
:10EE30002072782066726F6D204350284350202D39
:10EE40003E20474E535329202020202020202020E0
:10EE50002A0000000A2A20342920474E53532073E9
:10EE6000656E647320494E5453286231352D6230EB
:10EE700029746F204350202820474E53532D3E4382
:10EE80005029202020202020202020202020202049
:10EE9000202020202020202A000000000A2A2035DF
:10EEA0002920434D302072642F777220736861727D
:10EEB0006564204150206D61696C626F78207265D5
:10EEC00067732830783830207E20307831376329D6
:10EED0002020202020202020202020202020202032
:10EEE0002A0000000A2A20362920434D302072646F
:10EEF0002F777220736861726564204350206D61C2
:10EF0000696C626F782072656773283078383020BA
:10EF10007E203078313763292020202020202020B7
:10EF200020202020202020202A0000000A2A20372C
:10EF30002920474E53532073656E64205245534534
:10EF400054207265717565737420746F2041502070
:10EF500020202020202020202020202020202020B1
:10EF60002020202020202020202020202020202A97
:10EF7000000000000A2A20382920474E53532065FC
:10EF80006E74657220736C6565702072657175654D
:10EF9000737420746F204150207468656E2077610F
:10EFA0006B652075702062792052544320616C613A
:10EFB000726D202A000000000A2A20392920474EBD
:10EFC0005353206177616974696E67204549542005
:10EFD00070756C736528204C4F572D484947482D54
:10EFE0004C4F572D2D3E2048494748207374617976
:10EFF00073203320525443206379636C6573296610
:10F000006F7220696E74657272757074202A0000C8
:10F010000A2A20612920474E535320656E74657279
:10F0200020736C65657020726571756573742074EA
:10F030006F204150207468656E2077616B65207584
:10F04000702062792041502049504320696E7465D8
:10F05000727275707428494E545352315B31353A8F
:10F06000305D202A000000000A2A20622920474E35
:10F0700053532073656E64207265717565737420D7
:10F080007369676E616C20746F20666F72636520B0
:10F09000435020746F2072657365742020202020F7
:10F0A00020202020202020202020202020202A0076
:10F0B0000A2A2063292052756E20474E5353207729
:10F0C00061746368646F672074696D656F7574201F
:10F0D000746573742C206177616974696E6720416F
:10F0E0005020746F20666F72636520474E53532023
:10F0F000686172642072657365742020202020206E
:10F100002020202A000000000A2A206429205275AD
:10F110006E20506275732077616B65207570206278
:10F1200065666F726520616E79206F746865722004
:10F1300043502049504320746573747328332C3432
:10F140002C36292020202020202020202A000000EA
:10F150000A2A2065292052756E20474E53532F41AD
:10F16000502F43502072616E646F6D20736C656523
:10F17000702F77616B6575702074657374732020D0
:10F18000202020202020202020202020202020207F
:10F19000202020202A0000000A2A20202D2D2D2D9D
:10F1A0002D2D2D2D2D2D2D2D2D7465737420382C86
:10F1B000392C61206F6E6C792072756E2066726FCB
:10F1C0006D20636F6465524F4D2061646472657396
:10F1D0007320307830202D2D2D2D2D2D2D2D2D2AE5
:10F1E00000000000200A202A2A2A2A2A2A2A2A2A5B
:10F1F0002A2A2A2A2A2A2A2A2A2A2A2A2A2A2A2A6F
:10F200002A2A2A2A2A2A2A2A2A2A2A2A2A2A2A2A5E
:10F210002A2A2A2A2A2A2A2A2A2A2A2A2A2A2A2A4E
:10F220002A2A2A2A2A2A2A2A2A2A2A2A2A2A2A2A3E
:10F23000202A2000200A202A2020202020202020F0
:10F24000202020202020202020202020204B6570FE
:10F250006C65722041502F43502F474E535320531B
:10F260006C6565702057616B6575702072616E64A6
:10F270006F6D20746573747320202020202020205F
:10F28000202A2000200A2031292052656620627938
:10F29000204150207468656E20737461727420740C
:10F2A0006573742D3E20415020495353525B3130D9
:10F2B0005D3D6D61782C495353525B31315D3D6D3D
:10F2C000696E2C495353525B31325D3D636E74203D
:10F2D000202A2000200A20322920526566206279E7
:10F2E000204350207468656E2073746172742074BA
:10F2F0006573742D3E20435020495353525B313087
:10F300005D3D6D61782C495353525B31315D3D6DEC
:10F31000696E2C495353525B31325D3D636E7420EC
:10F32000202A2000200A20782920676F206261634C
:10F330006B20202020202020202020202020202082
:10F3400020202020202020202020202020202020BD
:10F3500020202020202020202020202020202020AD
:10F36000202020202020202020202020202020209D
:10F37000202A20000A20434D302B204E564943209E
:10F3800070656E64696E67207265672830786530D5
:10F3900030306532303029206465746563742050E4
:10F3A0006275732077616B65757020696E74657224
:10F3B0007275707420646F6E652E2E2E2E2E2E2E7A
:10F3C00020200000200A204166746572205062757A
:10F3D000732077616B65757020696E742061636B53
:10F3E0002D434D302B204E5649432070656E646985
:10F3F0006E67207265672030786530303065323056
:10F4000030203D203078253038780000200A2070E8
:10F41000726F6772616D2077645F636F6D705B30D0
:10F420007838303034303038305D20746F203078A8
:10F430002530387820616E6420656E61626C6520CD
:10F440007761746368646F672C20776169742066E4
:10F450006F7220415020746F20666F726365204781
:10F460004E53532072657365742E2E2E2E2E2E2E23
:10F470002E0000000A2A20202020202020202020EA
:10F48000202020202020474E535320424220414E2E
:10F49000414C4F47204469676974732F53393235A3
:10F4A0002052462054657374732020202020202091
:10F4B00020202020202020202A0000000A2A20319D
:10F4C00029205339323520524620696E69746961AA
:10F4D0006C697A6174696F6E2020202020202020C2
:10F4E000202020202020202020202020202020201C
:10F4F000202020202020202020202020202020200C
:10F500002A0000000A2A20322920496E69746961A4
:10F510006C697A6520474E5353204242205343473B
:10F52000203438467820636C6B2D2D3E206F62733B
:10F53000657276652053434C4B206F7574707574FB
:10F5400020202020202020202A0000000A2A20330A
:10F550002920496E697469616C697A652041444368
:10F560002D2D3E2047505B305D2D3E495B325D2C9A
:10F570002047505B315D2D3E495B305D2C47505B31
:10F58000325D2D3E495B315D2C47505B335D2D3E36
:10F59000495B335D2C47505B345D2D3E34384678F3
:10F5A0002C47505B355D2D3E495B345D000000000B
:10F5B0000A2A2020202047505B365D2D3E515B30CB
:10F5C0005D2C2047505B375D2D3E515B315D2C47F4
:10F5D000505B385D2D3E515B325D2C47505B395D91
:10F5E0002D3E515B335D2C47505B31305D2D3E51DC
:10F5F0005B345D000A2A203429207065656B204742
:10F600004E535320524620726567697374657228A1
:10F610006164647229203D3D3E204848484848487E
:10F62000484820202020202020202020202020208A
:10F6300020202020202020202A0000000A2A203517
:10F640002920706F6B6520474E535320524620721D
:10F650006567697374657228616464722C206461E3
:10F660007461293D3D3E2048484848204848484864
:10F6700048484848202020202020202020202020EA
:10F680002A0000000A2A20372920496E697469611E
:10F690006C697A6520524620726561647920666FD4
:10F6A0007220414354207465737420202020202050
:10F6B000202020202020202020202020202020204A
:10F6C00020202020202020202A0000000A2A203983
:10F6D0002920706F6B652052463D3E207265675F42
:10F6E000616464722C206269745F73746172742C3B
:10F6F00020626974735F6C656E677468202C206289
:10F70000696E6172795F646174612838206269741E
:10F710007329202A000000000A2A2063292071751D
:10F7200069636B20524620726567697374657273F2
:10F730002072642F77726974657320746573742006
:10F740007669612073706565647920627573202025
:10F750002020202020202020202020202A000000FF
:10F76000200A204E6F7720747970653D3D3D3E2024
:10F77000207266207265675F616464722C20626922
:10F78000745F73746172742C20626974735F6C654A
:10F790006E677468202C2062696E6172795F6461A3
:10F7A0007461283820626974732920000A2A202095
:10F7B0002020202020202020202020202020202049
:10F7C00020202020204772663369205465737473AB
:10F7D0002020202020202020202020202020202029
:10F7E0002020202020202020202020202020202A0F
:10F7F000000000000A2A2031292054657374205328
:10F8000050492028736C6176652920696E74657291
:10F8100066616365206F6620475246336920202069
:10F8200020202020202020202020202020202020D8
:10F83000202020202020202A000000000A2A203238
:10F84000292073776974636820414351434C4B20EE
:10F85000746F20504C4C207573696E672047524678
:10F86000336920202020202020202020202020203C
:10F870002020202020202020202020202020202A7E
:10F88000000000000A2A2033292073776974636816
:10F8900020414351434C4B20746F204F7363696C7C
:10F8A0006C61746F72207573696E672047524633BE
:10F8B00069202020202020202020202020202020FF
:10F8C000202020202020202A00000000200A2020C4
:10F8D000616674657220416C61726D20312C32203A
:10F8E00064657465637465642C204E5649432070CA
:10F8F000656E64696E6720726567283078653030A0
:10F90000305F6532303029203D203078253038781E
:10F910002020200A000000000A202A2A2A2A2A2A57
:10F920002A205349524620475350332041534943DC
:10F930002054455354205348454C4C204D454E557A
:10F940002A2A2A2A2A2A2A2A2A2A2A2A2A2A2A2A17
:10F950002A2A2A2A2A2A2A2A2A2A2A2A2A20000065
:10F960000A202A20312920547970652048657820A2
:10F970004164647265737320746F207265616420E2
:10F980005265672076616C7565282048484848486C
:10F990004848482029203D3D3D3D3E202020202054
:10F9A000202020202A0000000A202A20322920546A
:10F9B00079706520486578204164647265737320AE
:10F9C000616E6420486578206461746120746F20E2
:10F9D000777269746520696E746F2052656720289C
:10F9E000204848484848484848204848484820292E
:10F9F000203D3D3D3D3E202A000000000A202A20F7
:10FA000066292052756E20416C7465726E61746552
:10FA10002066756E6374696F6E20746573747320ED
:10FA200020202020202020202020202020202020D6
:10FA300020202020202020202020202020202020C6
:10FA40002A2000000A202A206F292052756E205398
:10FA50005720636F6E662E737472617073207465C5
:10FA600073742020202020202020202020202020EF
:10FA70002020202020202020202020202020202086
:10FA800020202020202020202A2000000A202A20B8
:10FA900073292052756E2044727973746F6E6520DD
:10FAA0007465737420202020202020202020202016
:10FAB0002020202020202020202020202020202046
:10FAC0002020202020202020202020202020202036
:10FAD0002A2000000A202A2075292052756E2074E1
:10FAE00073796E6320746573742028202121216E40
:10FAF000656564207370656369616C204650474199
:10FB0000206269742066696C6521212129202020EA
:10FB100020202020202020202A2000000A202A2027
:10FB20007A292052756E20616C6C20746573747331
:10FB300020202020202020202020202020202020C5
:10FB400020202020202020202020202020202020B5
:10FB500020202020202020202020202020202020A5
:10FB60002A2000000A202A205072657373203C610D
:10FB70003E203C623E2E2E2E3C6B3E20746F207346
:10FB800074617274207465737473202020202020A7
:10FB90002020202020202020202020202020202065
:10FBA00020202020202020202A2000000A202A2A8D
:10FBB0002A2A2A2A2A2A2A2A2A2A2A2A2A2A2A2AA5
:10FBC0002A2A2A2A2A2A2A2A2A2A2A2A2A2A2A2A95
:10FBD0002A2A2A2A2A2A2A2A2A2A2A2A2A2A2A2A85
:10FBE0002A2A2A2A2A2A2A2A2A2A2A2A2A2A2A2A75
:10FBF0002A200000200A202A2A2A2A204368656336
:10FC00006B2046534D20506F776572207361766983
:10FC10006E6720616E6420726573756D6520667510
:10FC20006E6374696F6E207669612052544320417F
:10FC30004C41524D2A2A2A2A2A2A200A0000000072
:10FC40000A202053657474696E6720525443434DF3
:10FC5000504C202620525443434D504820666F722A
:10FC600020414C41524D2074726967676572696E1C
:10FC7000672C20617070726F782E20362073656358
:10FC8000732064656C617920666F72205254432042
:10FC9000496E746572727570742E2E2E2E2E2E2E55
:10FCA0002E2E2E000A2074657374206661696C65BF
:10FCB000642C416464723D30782538782C20457876
:10FCC00070656374656420646174613D202530381B
:10FCD000782C2041637475616C2064617461203DEF
:10FCE0002025303878000000200A202E2E53696E1F
:10FCF000676C65207264205465737420706173733F
:10FD00002E2E2E2E2E2E2E2E2E2E2E2E2E2E2E2E13
:10FD10002E2E2E2E2E2E2E2E2E2E2E2E2E2E2E2E03
:10FD20002E2E2E2E2E2E2E2E2E2E2E2E2E2E2E2EF3
:10FD30002E2E2E2E2E2E0000200A202E2E427572E0
:10FD4000737420526561642054657374207061730C
:10FD5000732E2E2E2E2E2E2E2E2E2E2E2E2E2E2E7E
:10FD60002E2E2E2E2E2E2E2E2E2E2E2E2E2E2E2EB3
:10FD70002E2E2E2E2E2E2E2E2E2E2E2E2E2E2E2EA3
:10FD80002E2E2E2E2E2E2E000A2054797065203C09
:10FD9000733E20666F72207374726F6E67204147E6
:10FDA0004320746573742C3C773E20666F72207715
:10FDB00065616B2041474320746573742C3C783E29
:10FDC00020746F2061626F72742074657374000018
:10FDD0000A202E2E2E2E72756E6E696E672055418A
:10FDE000525420706175736520746573742C20659E
:10FDF0006E61626C652075617274204120696E7459
:10FE00002C207761697420636F6E736F6C65206955
:10FE10006E7075742E2E00000A202E2E2E2E4D652B
:10FE20006173757265204350552063686970206363
:10FE3000757272656E74207468656E207072657379
:10FE40007320616E79206B657920746F2062726512
:10FE5000616B2055415254207061757365206D6F40
:10FE600064650000200A20506C6561736520707223
:10FE700065737320313420636861726163746572E5
:10FE8000732066726F6D20706F7274204120616EF6
:10FE90006420532F5720636865636B20322D62798D
:10FEA0007465732D746F2D52782D66756C6C2D658D
:10FEB0006E61626C65203D3D3D3E2000200A20427F
:10FEC00065666F726520322D62797465732D746F6B
:10FED0002D5278412D66756C6C20626974206465C2
:10FEE0007465637465642C55415254204120636FDE
:10FEF0006E74726F6C20726567203D2030782530FB
:10FF000038780000200A204265666F726520322D25
:10FF100062797465732D746F2D5278412D66756CFE
:10FF20006C206269742064657465637465642C5523
:10FF30004152542041207374617475732072656757
:10FF400020203D2030782530387800000A20436892
:10FF5000616E6765205541525420436C6F636B207E
:10FF6000536F757263652066726F6D2042434C4B10
:10FF700020746F20414351434C4B2C2072657461B7
:10FF8000696E2073616D6520424155442072617431
:10FF900065000000200A202A2A2A2A204368656377
:10FFA0006B2046534D20506F776572204F4E2F4F78
:10FFB00046462066756E6374696F6E2076696120AF
:10FFC00065787465726E616C204F4E5F4F464620B7
:10FFD00070696E2A2A2A2A2A2A200A000A20434DFA
:10FFE000302B204E5649432070656E64696E672041
:10FFF00072656728307865303030653230302920BE
:020000021000EC
:1000000073686F77732041502D3E474E53532049FC
:100010004E54206F636375722E2E2E2E2E2E2E20A0
:1000200020000000200A20416674657220494E5469
:100030007320636C65617265642C41502F474E5389
:1000400053206D61696C626F7820494E5453523170
:10005000283078343035373030323829203D203060
:1000600078253038780000000A20434D302B204E90
:100070005649432070656E64696E67207265672813
:1000800030786530303065323030292073686F77D2
:10009000732043502D3E474E535320494E54206FFA
:1000A000636375722E2E2E2E2E2E2E202000000021
:1000B000200A204E6F7720747970652041502F47B9
:1000C0004E5353206D61696C626F7820494E5447DE
:1000D0005230283078343035375F3030303829208E
:1000E0006233312D62313620696E20484558203CFC
:1000F000686868683E200000200A204E6F772074F0
:100100007970652043502F474E5353206D61696CC1
:10011000626F7820494E544752312830783730305A
:10012000305F3030316329206231352D62302069F3
:100130006E20484558203C686868683E20000000F2
:10014000200A20474E5353207265717565737420E1
:10015000415020746F20726573657420627920733A
:10016000657474696E6720424F4F545F5354415415
:1001700055535F5245472061637469766520626913
:100180007420746F204C4F5720000000200A204735
:100190004E535320726571756573742043502074FB
:1001A0006F20726573657420627920736574746959
:1001B0006E67204D49465F57414B45534C4545506E
:1001C0005F52454749535445522E474E535332438D
:1001D000505F53575F5245534554206269742074F1
:1001E0006F20484947482000200A20436F727465F9
:1001F0007820434D302B20656E7465727320736CCC
:10020000656570206D6F64652C2061776169746924
:100210006E672052544320616C61726D20746F20B0
:1002200077616B652075702E2E2E2E2E2E200000ED
:10023000200A200A204E6F77207479706520696E3D
:100240002077616B652075702064656C6179206929
:100250006E2023207365637320696E204845582003
:100260006E756D626572203A203C686868683E2051
:1002700000000000200A204177616974696E6720E0
:1002800065787465726E616C204549542070756C98
:100290007365202820706C757365207769647468B5
:1002A000206D696E2E203320525443207469636B95
:1002B000732833324B687A2F636C6B292E2E2E20D5
:1002C00000000000200A20436F7274657820434DBF
:1002D000302B20656E7465727320736C65657020B9
:1002E0006D6F64652C206177616974696E67204168
:1002F000502049504320696E746572727570742085
:10030000746F2077616B652075702E2E2E2E2E2E29
:10031000200000000A205350492052782041646494
:10032000722F525720626974732070617373656411
:10033000202D2D3E53504920525443205374617454
:10034000757320696E717569727920636F6D6D6167
:100350006E642E2E2E202020000000000A2D2D2D50
:100360002D2D2D2D2D2D2D2D2D2D2D2D2D2D2D2DBD
:100370002D2D2D2D2D2D2D2D2D2D2D2D2D2D2D2DAD
:100380002D2D2D2D2D2D2D2D2D2D2D2D2D2D2D2D9D
:100390002D2D2D2D2D2D2D2D2D2D2D2D2D2D0000E7
:1003A000200A20474E53532054696D6572204952EC
:1003B000512070656E64696E672062697420736590
:1003C0007420696E204E5649432070656E64696ED4
:1003D000672072656769737465722820626974208A
:1003E000312920200A000000200A2073796E63352D
:1003F0002C3438466F20636C6F636B20646F6D61C3
:10040000696E2C20696D6D65642053572D696E30BF
:100410002C20636170747572652076616C7565203F
:10042000253038782020200A00000000200A2073A0
:10043000796E6331312C204558543220636C6B2027
:10044000646F6D61696E2C20494E32204D475F50BC
:10045000756C73655F65617263302C2063617074C5
:100460007572652076616C7565202530387820209E
:10047000200A0000200A2073796E6331312C206538
:1004800078743220636C6B20646F6D61696E2D52DD
:10049000465F43414C2C20696D6D65642053572D98
:1004A000696E302C20636170747572652076616CA2
:1004B000756520253038782020200A00200A207316
:1004C000796E6331312C206578743220636C6B2037
:1004D000646F6D61696E2C20696D6D656420535782
:1004E0002D696E302C2063617074757265207661A1
:1004F0006C756520253038782020200A0000000027
:10050000200A2073796E63352C3438466F20636C73
:100510006F636B20646F6D61696E2C20736574204E
:10052000474E53532041435420696E697469616C8E
:1005300020636E742076616C75653D2025303878B7
:100540002020200A00000000200A20444D412055B0
:100550004152542052582053544F504259544553FD
:1005600020746F2043505520446174612052414DE6
:10057000207465737420636F6D706C6574652C20D6
:100580005278206461746120646973706C61792EA3
:100590002E2E2E2E200A2000200A20444D412055C8
:1005A00041525420525820746F20435055204461CA
:1005B00074612052414D207465737420636F6D70B7
:1005C0006C6574652C2052782064617461206469C4
:1005D00073706C61792E2E2E2E2E200A20000000C2
:1005E000200A20444D412055415254205258207039
:1005F0006F727420746F20545241434B4552204413
:100600006174612052414D2820444D31292061649C
:10061000647265737320307830207465737420635E
:100620006F6D706C657465202E2E2E2E2E200A2084
:1006300000000000200A20444D4120435055204432
:100640006174612052414D20746F205541525420F5
:10065000547820636F6D706C6574652C205478201D
:100660006461746120646973706C61792E2E2E2E22
:100670002E200A2000000000000000000000000002
:1006800030313233343536373839414243444546C8
:1006900040305800303132333435363738396162C2
:1006A00063646566403078000400000800000000C4
:1006B000000000020001000010000000F00721000F
:1006C000000000600C01000004012000FC08210073
:1006D0000C010060A00200002001200010010000B9
:1006E00043000000F8FFFFFF004040404040404012
:1006F00040404141414141404040404040404040F5
:100700004040404040404040400502020202020298
:1007100002020202020202020220202020202020E7
:1007200020202002020202020202909090909090FB
:1007300010101010101010101010101010101010B9
:10074000101010100202020202028888888888882D
:100750000808080808080808080808080808080819
:100760000808080802020202400000000000000021
:100770000000000000000000000000000000000079
:100780000000000000000000000000000000000069
:100790000000000000000000000000000000000059
:1007A0000000000000000000000000000000000049
:1007B0000000000000000000000000000000000039
:1007C0000000000000000000000000000000000029
:1007D0000000000000000000000000000000000019
:1007E000000000000000000000000000BD43FFFF0B
:1007F00000000000000000000000000000000000F9
:1008000000000000000000000000000000000000E8
:1008100000000000000000000000000000000000D8
:1008200000000000000000000000000000000000C8
:1008300000000000000000000000000000000000B8
:1008400000000000000000000000000000000000A8
:100850000000000000000000000000000000000098
:100860000000000000000000000000000000000088
:100870000000000000000000000000000000000078
:100880000000000000000000000000000000000068
:100890000000000000000000000000005C5C5C5CE8
:1008A0005C5C5C5C5C5C5C5C5C5C5C5CA3A3A3A36C
:1008B000A3A3A3A3A3A3A3A3A3A3A3A35C5C5C5C24
:1008C0005C5C5C5C5C5C5C5C5C5C5C5C5C5C5C5C68
:1008D0005C5C5C5C5C5C5C5C5C5C5C5CA3A3A3A33C
:1008E000A3A3A3A3A3A3A3A3A3A3A3A3A3A3A3A3D8
:0C08F000A3A3A3A3A3A3A3A3A3A3A3A358
:00000001FF
